:020000040800F2
:1000000000000524290F0008F90D0008FB0D000869
:10001000FD0D0008FF0D0008010E000800000000A3
:10002000000000000000000000000000030E0008B7
:10003000050E000800000000070E0008090E000869
:100040007D0F00087D0F00087D0F00087D0F000860
:100050007D0F00087D0F00087D0F00087D0F000850
:100060007D0F00087D0F00087D0F00087D0F000840
:100070007D0F00087D0F00087D0F00087D0F000830
:100080007D0F00087D0F00087D0F0008110E00088D
:100090007D0F0008210E00087D0F00087D0F00086D
:1000A0007D0F00087D0F00087D0F00087D0F000800
:1000B0007D0F00087D0F00087D0F00087D0F0008F0
:1000C0007D0F00087D0F00087D0F00087D0F0008E0
:1000D0007D0F00087D0F00087D0F00087D0F0008D0
:1000E0007D0F00087D0F0008000000007D0F000854
:1000F0007D0F00087D0F00087D0F00087D0F0008B0
:100100007D0F00087D0F00087D0F00087D0F00089F
:100110007D0F00087D0F00087D0F00087D0F00088F
:100120007D0F00087D0F00087D0F00087D0F00087F
:100130007D0F00087D0F00087D0F00087D0F00086F
:1001400000000000000000000000000000000000AF
:100150007D0F00087D0F00087D0F00087D0F00084F
:100160007D0F00087D0F00087D0F00087D0F00083F
:100170007D0F00087D0F00087D0F000800000000C3
:100180007D0F00087D0F00087D0F00087D0F00081F
:100190007D0F00087D0F00087D0F00087D0F00080F
:1001A0007D0F00087D0F00087D0F00080000000093
:1001B0007D0F00087D0F00087D0F00087D0F0008EF
:1001C0007D0F00087D0F0008000000000000000007
:1001D00000000000000000007D0F0008000000008B
:1001E000000000000000000000000000000000000F
:1001F00000000000000000007D0F00087D0F0008D7
:100200007D0F00087D0F0008000000007D0F000832
:100210007D0F00087D0F00087D0F00087D0F00088E
:100220007D0F0008000000007D0F000800000000A6
:100230007D0F00087D0F0008000000007D0F000802
:100240007D0F00087D0F00087D0F00087D0F00085E
:100250007D0F00087D0F00087D0F00087D0F00084E
:100260007D0F00087D0F00087D0F00087D0F00083E
:100270007D0F00087D0F00087D0F000800000000C2
:100280007D0F00087D0F00087D0F00087D0F00081E
:10029000000000007D0F00087D0F00080000000036
:1002A000000000007D0F00087D0F00087D0F000892
:1002B0007D0F00087D0F00087D0F00087D0F0008EE
:0C02C0007D0F00087D0F00087D0F000876
:1002CC0080F0004002E000BF81F0004142001FBFFF
:1002DC005FEA410392EA030F7FEA226C7FEA236C08
:1002EC006AD04FEA1262D2EB1363C1BFD2184140FD
:1002FC0048404140B8BF5B42192B88BF704710F093
:10030C00004F40F4000020F07F4018BF404211F035
:10031C00004F41F4000121F07F4118BF494292EA9D
:10032C00030F3FD0A2F1010241FA03FC10EB0C00C9
:10033C00C3F1200301FA03F100F0004302D5494256
:10034C0060EB4000B0F5000F13D3B0F1807F06D303
:10035C0040084FEA310102F10102FE2A51D2B1F1FB
:10036C00004F40EBC25008BF20F0010040EA0300F0
:10037C007047490040EB0000013A28BFB0F5000F70
:10038C00EDD2B0FA80FCACF1080CB2EB0C0200FA26
:10039C000CF0AABF00EBC25052421843BCBFD04075
:1003AC001843704792F0000F81F4000106BF80F4EF
:1003BC0000000132013BB5E74FEA41037FEA226CB2
:1003CC0018BF7FEA236C21D092EA030F04D092F07D
:1003DC00000F08BF0846704790EA010F1CBF0020B1
:1003EC00704712F07F4F04D1400028BF40F000400E
:1003FC00704712F100723CBF00F50000704700F02E
:10040C00004343F0FE4040F4000070477FEA226254
:10041C0016BF08467FEA23630146420206BF5FEA25
:10042C00412390EA010F40F4800070474FF0000325
:10043C0004E000BF10F0004348BF40425FEA000CEC
:10044C0008BF704743F0964301464FF000001CE094
:10045C0050EA010208BF70474FF000030AE000BFEA
:10046C0050EA010208BF704711F0004302D5404228
:10047C0061EB41015FEA010C02BF8446014600209A
:10048C0043F0B64308BFA3F18053A3F50003BCFAB5
:10049C008CF2083AA3EBC25310DB01FA02FC634462
:1004AC0000FA02FCC2F12002BCF1004F20FA02F269
:1004BC0043EB020008BF20F00100704702F120025C
:1004CC0001FA02FCC2F1200250EA4C0021FA02F2BD
:1004DC0043EB020008BF20EADC7070474FF0FF0CC2
:1004EC001CEAD0521EBF1CEAD15392EA0C0F93EABD
:1004FC000C0F6FD01A4480EA010C400218BF5FEA5F
:10050C0041211ED04FF0006343EA501043EA5111D1
:10051C00A0FB01310CF00040B1F5000F3EBF4900CB
:10052C0041EAD3715B0040EA010062F17F02FD2ACF
:10053C001DD8B3F1004F40EBC25008BF20F00100B2
:10054C00704790F0000F0CF0004C08BF49024CEAC9
:10055C00502040EA51207F3AC2BFD2F1FF0340EA5B
:10056C00C250704740F400004FF00003013A5DDCCC
:10057C0012F1190FDCBF00F000407047C2F100020D
:10058C00410021FA02F1C2F1200200FA02FC5FEAFA
:10059C00310040F1000053EA4C0308BF20EADC7044
:1005AC00704792F0000F00F0004C02BF400010F4B6
:1005BC00000F013AF9D040EA0C0093F0000F01F063
:1005CC00004C02BF490011F4000F013BF9D041EA85
:1005DC000C018FE70CEAD15392EA0C0F18BF93EA87
:1005EC000C0F0AD030F0004C18BF31F0004CD8D1B1
:1005FC0080EA010000F00040704790F0000F17BF38
:10060C0090F0004F084691F0000F91F0004F14D07D
:10061C0092EA0C0F01D142020FD193EA0C0F03D1D5
:10062C004B0218BF084608D180EA010000F00040D8
:10063C0040F0FE4040F40000704740F0FE4040F4B3
:10064C00400070474FF0FF0C1CEAD0521EBF1CEA52
:10065C00D15392EA0C0F93EA0C0F69D0A2EB030270
:10066C0080EA010C49024FEA402037D04FF080530A
:10067C0043EA111143EA10130CF000408B4238BFCF
:10068C005B0042F17D024FF4000C8B4224BF5B1ADD
:10069C0040EA0C00B3EB510F24BFA3EB510340EA2B
:1006AC005C00B3EB910F24BFA3EB910340EA9C00D9
:1006BC00B3EBD10F24BFA3EBD10340EADC001B0149
:1006CC0018BF5FEA1C1CE0D1FD2A3FF650AF8B42ED
:1006DC0040EBC25008BF20F0010070470CF0004CFA
:1006EC004CEA50207F32C2BFD2F1FF0340EAC25025
:1006FC00704740F400004FF00003013A37E792F0E6
:10070C00000F00F0004C02BF400010F4000F013A43
:10071C00F9D040EA0C0093F0000F01F0004C02BF3E
:10072C00490011F4000F013BF9D041EA0C0195E7A7
:10073C000CEAD15392EA0C0F08D142027FF47DAF40
:10074C0093EA0C0F7FF470AF084676E793EA0C0F30
:10075C0004D14B023FF44CAF08466EE730F0004C2E
:10076C0018BF31F0004CCAD130F000427FF45CAFBE
:10077C0031F000437FF43CAF5FE700BF42000ED284
:10078C00B2F1FE4F0BD34FF09E03B3EB126209D4C0
:10079C004FEA002343F0004323FA02F070474FF076
:1007AC000000704712F1610F01D1420202D14FF0EB
:1007BC00FF3070474FF00000704700BF00F134016C
:1007CC0091E838009C46A6464CF8045D90E8FF0F73
:1007DC00E54600BD90EC210B704700BF80EC210B6F
:1007EC00704700BF90EC200B704700BF80EC200BD3
:1007FC00704700BFD0EC200B704700BFC0EC200B43
:10080C00704700BFF0EC0201F0EC0211F0EC022199
:10081C00F0EC0231F0EC0241F0EC0251F0EC026130
:10082C00F0EC0271F0EC0281F0EC0291F0EC02A120
:10083C00F0EC02B1F0EC02C1F0EC02D1F0EC02E110
:10084C00F0EC02F1704700BFE0EC0201E0EC0211A9
:10085C00E0EC0221E0EC0231E0EC0241E0EC025170
:10086C00E0EC0261E0EC0271E0EC0281E0EC029160
:10087C00E0EC02A1E0EC02B1E0EC02C1E0EC02D150
:10088C00E0EC02E1E0EC02F1704700BFB0FC01814A
:10089C00B0FC0191B0FC01A1B0FC01B1704700BFEC
:1008AC00A0FC0181A0FC0191A0FC01A1A0FC01B164
:1008BC00704700BFEC4600B52DE900502DE9FF1F35
:1008CC004FF000032DE90C0001A903F04FF8DDF8FF
:1008DC0040E012B0704700BFEC4600B52DE9005067
:1008EC002DE9FF1F4FF000032DE90C0001A903F0C7
:1008FC0079F8DDF840E012B0704700BFEC4600B567
:10090C002DE900502DE9FF1F4FF000032DE90C00DD
:10091C0001A903F089F8DDF840E012B0704700BF80
:10092C00EC4600B52DE900502DE9FF1F4FF00003F8
:10093C002DE90C0001AB03F04DF8DDF840E012B0EE
:10094C00704700BFEC4600B52DE900502DE9FF1FA4
:10095C004FF000032DE90C0001AA03F0BDF8DDF8FF
:10096C0040E012B0704700BF844641EA000313F028
:10097C0003036DD1403A41D351F8043B40F8043B9A
:10098C0051F8043B40F8043B51F8043B40F8043B5D
:10099C0051F8043B40F8043B51F8043B40F8043B4D
:1009AC0051F8043B40F8043B51F8043B40F8043B3D
:1009BC0051F8043B40F8043B51F8043B40F8043B2D
:1009CC0051F8043B40F8043B51F8043B40F8043B1D
:1009DC0051F8043B40F8043B51F8043B40F8043B0D
:1009EC0051F8043B40F8043B51F8043B40F8043BFD
:1009FC0051F8043B40F8043B403ABDD2303211D39D
:100A0C0051F8043B40F8043B51F8043B40F8043BDC
:100A1C0051F8043B40F8043B51F8043B40F8043BCC
:100A2C00103AEDD20C3205D351F8043B40F8043B9C
:100A3C00043AF9D2043208D0D2071CBF11F8013B9A
:100A4C0000F8013B01D30B8803806046704700BF60
:100A5C00082A13D38B078DD010F003038AD0C3F16F
:100A6C000403D21ADB071CBF11F8013B00F8013B51
:100A7C0080D331F8023B20F8023B7BE7043AD9D310
:100A8C00013A11F8013B00F8013BF9D20B780370E5
:100A9C004B7843708B788370604670470348044BE7
:100AAC00834202D0034B03B1184770475C0100240A
:100ABC005C010024000000000548064B1B1AD90FEE
:100ACC0001EBA301491002D0034B03B11847704747
:100ADC005C0100245C0100240000000010B5064CF1
:100AEC00237843B9FFF7DAFF044B13B10448AFF393
:100AFC0000800123237010BD5C0100240000000065
:100B0C00B046000808B5054B1BB105490548AFF3C5
:100B1C000080BDE80840FFF7CFBF00BF0000000019
:100B2C0060010024B046000838B51648164B036027
:100B3C0000238360C3600122027443748274032512
:100B4C0045610A2181611D24C46101624562816293
:100B5C00C462026343638363C36308220264042197
:100B6C0041648264C164036541658365C365026643
:100B7C0043661223836600F013FD00B938BD00F004
:100B8C00B8F8FBE77801002400A0004010B5B6B01F
:100B9C000446002131913291339134913591B82230
:100BAC0002A803F053FC2268254B9A4201D036B0C0
:100BBC0010BD4FF400420023CDE902234FF08053C7
:100BCC001D9302A802F060F8002836D11D4BD3F813
:100BDC00EC2042F48072C3F8EC20D3F8EC2002F441
:100BEC0080720092009AD3F8E02042F00802C3F819
:100BFC00E020D3F8E03003F008030193019B0323BA
:100C0C003193022332930024339434940923359383
:100C1C0031A90D4801F0AAF822462146132000F014
:100C2C0017FB132000F024FB22462146152000F070
:100C3C000FFB152000F01CFBB9E700F05AF8C5E7D4
:100C4C0000A0004000440258000C025884B0134B22
:100C5C00D3F8E02042F08002C3F8E020D3F8E02083
:100C6C0002F080020192019AD3F8E02042F00102D6
:100C7C00C3F8E020D3F8E02002F001020292029ABD
:100C8C00D3F8E02042F00802C3F8E020D3F8E030BB
:100C9C0003F008030393039B04B07047004402580D
:100CAC0010B584B00024009401940294039400F0D5
:100CBC00F7FA01238DF800308DF8014001941F22C2
:100CCC008DF8082087228DF809208DF80A408DF8C0
:100CDC000B408DF80C308DF80D308DF80E408DF8E2
:100CEC000F40684600F0FAFA042000F0E7FA04B06E
:100CFC0010BD72B6FEE7000000B59DB04C2200217D
:100D0C0009A803F0A3FB2022002101A803F09EFBFD
:100D1C00022001F039F900230093204B9A6922F448
:100D2C0040429A619B6903F440430093009B1B4B28
:100D3C009B6913F4005FFAD0012209924FF48033BF
:100D4C000A9302231293139314932821159116924C
:100D5C000422179218930C23199300231A931B93B4
:100D6C0009A801F03BF9A8B93F2301930321029193
:100D7C0000230393082304934023059306934FF415
:100D8C0080620792089301A801F02CFD20B91DB0D8
:100D9C005DF804FBFFF7ADFFFFF7ABFF004802580F
:100DAC0008B5FFF77DFF00F0ADF9FFF7A5FFFFF7E2
:100DBC004DFFFFF7B9FE00F05FF900F06BF9012071
:100DCC0000F0E0F9F9E7000082B0074BD3F8F4200B
:100DDC0042F00202C3F8F420D3F8F43003F002031B
:100DEC000193019B02B0704700440258FEE7FEE7F6
:100DFC00FEE7FEE7FEE770477047704708B500F066
:100E0C00AFF908BD08B5024800F020FE08BD00BFD0
:100E1C007801002408B5024800F018FE08BD00BF98
:100E2C00780100240120704708B503F0A5FB1623B8
:100E3C0003604FF0FF3008BD08B54FF0FF31FFF7EE
:100E4C00F3FFFEE7274B1B6803F00F03062B06D8B6
:100E5C00244A136823F00F0343F007031360224B5B
:100E6C001A6842F001021A6000221A6119681F4ABE
:100E7C000A401A601B4B1B6813F0080F06D0194A66
:100E8C00136823F00F0343F007031360164B002283
:100E9C009A61DA611A62164999621649D962164941
:100EAC0019635A639963DA6319645A64196821F4F3
:100EBC00802119601A66D3F8D43013F4805F10D1F6
:100ECC00094BD3F8D42042F48052C3F8D4200B4AF7
:100EDC0043F2D2011160D3F8D42022F48052C3F82B
:100EEC00D420704700200052004402587FEDF6EAEF
:100EFC00000202020000FF018002010100400052CA
:100F0C00054AD36843F00203D360034B5B6813F4C8
:100F1C00005FFAD0704700BF00480258DFF838D0A5
:100F2C00FFF7EEFFFFF78EFF0C480D490D4A00232B
:100F3C0002E0D458C4500433C4188C42F9D30A4A82
:100F4C000A4C002301E013600432A242FBD303F0ED
:100F5C0019FBFFF725FF7047000005240000002453
:100F6C005C010024104800085C010024A405002446
:100F7C00FEE730B58BB0044601F002050295CD08B2
:100F8C00039502250495C1F3800105910692079300
:100F9C0002A900F04FFC002300932A462946204664
:100FAC0000F08AFC0BB030BD38B504460D4600F09D
:100FBC009EFC00220121204600F0EEFC00221021B4
:100FCC00204600F0E9FC23681C4A934206D01C4AD8
:100FDC00934213D01B4A934220D038BD1A4B1C604D
:100FEC005D6300231A4619462046FFF7C2FF002313
:100FFC001A460C212046FFF7BCFFEEE7134B1C6092
:10100C005D6300231A4670212046FFF7B2FF0023D0
:10101C001A467C212046FFF7ACFFDEE70C4B1C6028
:10102C005D6300231A46E0212046FFF7A2FF002350
:10103C001A46EC212046FFF79CFFCEE700A00040AB
:10104C0000A4004000D40040900200245802002468
:10105C002002002400B58BB0019100210291039174
:10106C0004930591069107910891099101A900F04B
:10107C0058FC0BB05DF804FB08B500210348FFF7E2
:10108C0093FF034B01221A7008BD00BF78010024A6
:10109C00C802002408B5054A0A23137053700823AC
:1010AC004FF400710248FFF7D5FF08BD1802002469
:1010BC0078010024104B1B780BB90120704710B538
:1010CC0004464FF47A70B0FBF3F30C4A1068B0FB93
:1010DC00F3F000F0D1F868B90F2C01D901200AE027
:1010EC00002221464FF0FF3000F0B2F8044B1C6098
:1010FC00002000E0012010BD0800002404000024A2
:10110C000C00002410B5032000F090F801F058FA00
:10111C000F498B69C3F303230E4AD35C03F01F03FF
:10112C00D8408B6903F00F03D35C03F01F0320FA44
:10113C0003F3094A1360094B18600F20FFF7BAFF3D
:10114C0010B10124204610BD0446FFF73DFEF9E71F
:10115C000044025814470008000000240400002436
:10116C00034B1B78034A11680B441360704700BF94
:10117C0008000024CC020024014B1868704700BF03
:10118C00CC02002438B50446FFF7F6FF0546B4F14F
:10119C00FF3F02D0044B1B781C44FFF7EDFF401BB4
:1011AC00A042FAD338BD00BF08000024002807DB9A
:1011BC0000F01F02400901239340024A42F82030FC
:1011CC00704700BF00E100E0002804DB0901C9B250
:1011DC00044B1954704700F00F000901C9B2024BBF
:1011EC001954704700E400E014ED00E000B500F085
:1011FC000700C0F1070CBCF1040F28BF4FF0040C22
:10120C00031D062B0FD9C31E4FF0FF3E0EFA0CF038
:10121C0021EA000199400EFA03FE22EA0E0241EA8D
:10122C0002005DF804FB0023EEE700000649CB68E2
:10123C0023F4E0631B041B0C000200F4E060034386
:10124C00024A1A43CA60704700ED00E00000FA053C
:10125C0010B50446054BD868C0F30220FFF7C6FF53
:10126C0001462046FFF7B0FF10BD00BF00ED00E0C7
:10127C0008B5FFF79BFF08BD0138B0F1807F0BD29A
:10128C004FF0E0235861054AF02182F8231000202A
:10129C00986107221A6170470120704700ED00E049
:1012AC00BFF35F8F044B5A6A22F480325A620022D9
:1012BC00C3F89420704700BF00ED00E040F001003F
:1012CC00054BC3F894005A6A42F480325A62BFF359
:1012DC004F8FBFF36F8F704700ED00E04378144AD7
:1012EC00C2F89830D2F8A03023F00103C2F8A03035
:1012FC004368C2F89C30017BC37A1B0643EA017336
:10130C00817A43EAC143417B43EA8143817B43EACF
:10131C004143C17B43EA0143417A43EA0123017A09
:10132C0043EA410301780B43C2F8A030704700BF79
:10133C0000ED00E010B4416B0468D4F88430724ABC
:10134C00134043EA8103C4F884300468D4F8843031
:10135C0023F47F03D0F838C043EA0C43C4F884303C
:10136C00836B0B440468D4F88810114041EA830164
:10137C00C4F888100468D4F8881021F4FE01D0F861
:10138C003CC041EA0C41C4F88810C16B03EB41032B
:10139C000468D4F8A010114041EA8301C4F8A010ED
:1013AC000468D4F8A01021F4FE01D0F840C041EA42
:1013BC000C41C4F8A010016C446C04FB01330468AC
:1013CC00D4F8B010114041EA8301C4F8B01004689D
:1013DC00D4F8B01021F4FE01D0F848C041EA0C4119
:1013EC00C4F8B010816CC46C04FB01330468D4F8ED
:1013FC00AC10114041EA8301C4F8AC10016D446D8E
:10140C0004FB01330468D4F8F010114041EA830165
:10141C00C4F8F0100468D4F8F01021F47C11D0F862
:10142C0058C041EA0C41C4F8F010816D03EB410344
:10143C000468D4F8C0100A4042EA8303C4F8C030F0
:10144C000268D2F8C03023F47C13C16D43EA014327
:10145C00C2F8C0300268D2F8C03023F07C53016E61
:10146C0043EA0163C2F8C030436B284A1A44920025
:10147C00C266836B02EB83030367C16B03EBC1038F
:10148C004367016C446C04FB01F103EB810383673C
:10149C00816CC46C04FB01F103EB8103C367016D28
:1014AC00446D04FB01F103EB8103C0F88030816DC6
:1014BC0003EBC103C0F88430816EC46D01FB04FCE6
:1014CC0003EB8C03C0F88830046E04FB01F103EBD2
:1014DC008103C0F890300E498B420DD9D0F89C3066
:1014EC0043F02003C0F89C30032380F8983001208F
:1014FC0007E0002342F8043BD0F890309342F8D830
:10150C00002010BC704700BF0300FFFF002B001031
:10151C00FCD3004070B54C68FCB90D698C68254350
:10152C000C6845EA84450E6ACC6944EA06648E6907
:10153C0034434E693443CE6844EA0644D0F88460A0
:10154C00806E00FB03F306EB830E46F82350CEF8B7
:10155C0004400EF1080E002019E00C698D6825433B
:10156C000C68254345F08045DDE702EB000C9CF848
:10157C0003409CF802301B0443EA04639CF80140CE
:10158C0043EA0423145C23434EF8043B0430CB6839
:10159C00024CE35C8342E8D870BD00BF24470008CE
:1015AC0030B595B004464C22A04901A8FFF7DCF9F0
:1015BC00002C00F0388123689D4A934220D094F887
:1015CC0098300BB32268936923F010039361FFF7F3
:1015DC00D3FD054623689A6912F0080F1AD0FFF75D
:1015EC00CBFD431B0A2BF5D9D4F89C3043F00103F7
:1015FC00C4F89C30032384F89830012015B030BD1A
:10160C0003F580736360DAE784F899302046FFF7BE
:10161C00BDFAD7E79A6942F001029A61FFF7ACFD77
:10162C00054623689A6912F0010F0FD1FFF7A4FD4C
:10163C00401B0A28F5D9D4F89C3043F00103C4F8B8
:10164C009C30032384F898300120D7E79A6942F044
:10165C0002029A61237C012B40D02268936943F0EB
:10166C0040039361637C012B3ED02268936923F481
:10167C0080439361A37C012B3CD02268936943F493
:10168C00805393612268936923F44073A1680B43E0
:10169C0093612268936923F0A40393612268136910
:1016AC0023F010031361E368012B29D0002B2CD0FD
:1016BC00022B00F09B802268936943F080039361B6
:1016CC002268136943F010031361E368032B1CD1E8
:1016DC002268936943F02003936116E022689369B2
:1016EC0023F040039361BDE72268936943F4804380
:1016FC009361BFE72268936923F480539361C1E738
:10170C002268936943F004039361A3695A1EE36949
:10171C00013B1B0243EA4263226A013A13436269AA
:10172C00013A216843EA0243CB61A368B3F5407FD9
:10173C0062D0236E33B12268D2F8C030616E0B4395
:10174C00C2F8C030E36D226ED3420DD02168D1F8BF
:10175C00C83023F00703A26E14A800EB820252F8E3
:10176C004C2C1343C1F8C830236C6BB12168D1F8F1
:10177C00BC3023F00703626C14A800EB820252F811
:10178C004C2C1343C1F8BC30A36C73B12168D1F855
:10179C00BC3023F07003E26C14A800EB820252F808
:1017AC004C2C43EA0213C1F8BC30236D73B1216891
:1017BC00D1F8BC3023F4E063626D14A800EB820214
:1017CC0052F84C2C43EA0223C1F8BC302268184B67
:1017DC009A4222D00023C4F89430C4F89C300123E0
:1017EC0084F898302046FFF7A5FD07E72268936937
:1017FC0043F02003936188E7A36A013BE26A013A54
:10180C0043EA0223226B013A43EA0213626A013A69
:10181C00216843EA0243CB608BE76268936823F04C
:10182C0003039360D6E70120E8E600BFC846000832
:10183C0000A0004090F89830013BDBB2012B07D997
:10184C00D0F89C3043F00203C0F89C300120704764
:10185C000B68DBB9CB68072B0ED08A68DB0643EA32
:10186C0082730A6943EA02434A691343C26E4968A8
:10187C0042F82130002070470A69CB691B0243EA09
:10188C0002438A69134343F06053EFE7CA680B695C
:10189C0043EA4273072A0DD04A69D1F808C042EADC
:1018AC008C72006F496800EBC10C40F83130CCF8F9
:1018BC000420DFE78A69F4E790F898C05FFA8CFCA3
:1018CC00BCF1010F07D0D0F89C3043F00403C0F8F2
:1018DC009C3001207047920042EA011242EA430315
:1018EC000168009A1A43C1F880200020704790F8D4
:1018FC009830DBB2012B07D0D0F89C3043F00403B6
:10190C00C0F89C3001207047022380F898300268A0
:10191C00936923F0010393610023C0F89C301846AF
:10192C00704738B5044690F89830DBB2022B2BD1B7
:10193C000368D3F8C00010F07C5F0CD0D3F8C4005F
:10194C0010F4001F0FD0D4F89C3043F40073C4F88B
:10195C009C3001201FE0D4F89C3043F02003C4F8E5
:10196C009C30012017E0D3F8C450C5F304452B4636
:10197C002046FFF7CFFD22680123AB40C2F8D030E0
:10198C00C4F89430002006E0D0F89C3043F00803F3
:10199C00C0F89C30012038BD90F89830013BDBB288
:1019AC00012B07D9D0F89C3043F00203C0F89C30CF
:1019BC000120704710B403689C6D0C4223D1DC6D80
:1019CC0044F00104DC6511F4007F05D00468D4F800
:1019DC00E0301343C4F8E03011F4806F05D0046894
:1019EC00D4F8E4301343C4F8E4300068436D0C4A77
:1019FC000A40134343650B4A536943EA917353619D
:101A0C00002010BC70479C6D31EA040402D0032402
:101A1C00DC65D8E7DC6D44F00204DC65D3E700BF7D
:101A2C00FFFFCF3F00A800407047704770477047DA
:101A3C0070477047704770477047704770477047E2
:101A4C007047704770477047704700002DE9F04FA2
:101A5C0083B00446904B1A695B69134001939B0752
:101A6C00009303681A6D02F4704A5A6D0AEA020A6E
:101A7C001A6D02F00F095A6D09EA02091A6D02F08B
:101A8C00F0085A6D08EA02081E6D06F071565A6D80
:101A9C0016401F6D07F060775A6D17405D6DD3F8D7
:101AAC0050B015F4807F02D01BF4807F64D115F404
:101ABC00806F02D01BF4806F67D1009B002B74D118
:101ACC00BAF1000F7ED1B9F1000F40F08780B8F168
:101ADC00000F40F08F8015F4006F03D01BF4006FE3
:101AEC0040F0948015F4007F03D01BF4007F40F08D
:101AFC00988015F4002F03D01BF4002F40F0A18028
:101B0C0015F4803F03D01BF4803F40F0A58015F402
:101B1C00802F03D01BF4802F40F0A98015F4003FD8
:101B2C000FD01BF4003F0CD023684FF400321A6521
:101B3C00594B00221A61D4F89C3043F08003C4F84E
:101B4C009C30002F40F09E804EB123681E65B20F72
:101B5C00514B1A61D4F89C303343C4F89C30226842
:101B6C004E4B9A4200F09C80D4F89C30002B40F0F5
:101B7C00F98003B0BDE8F08F4FF480721A65464BC4
:101B8C0000221A61FFF75AFF91E72368D3F8DC10A3
:101B9C00D3F8E4204FF4806018653F4B00201861A7
:101BAC0011402046FFF746FF87E7236800221A659D
:101BBC00019B03F00303384A136100992046FFF799
:101BCC0033FF7DE72368C3F850A04FEA9A72324B7B
:101BDC001A6151462046FFF728FF74E72368C3F8C3
:101BEC0050904FEA99722C4B1A6149462046FFF7E8
:101BFC001DFF6CE72368C3F850804FEA9872264BA0
:101C0C001A6141462046FFF712FF64E723684FF440
:101C1C0000621A65204B00221A612046FFF708FF6C
:101C2C0060E72368D3F8D810D3F8E0204FF40070A5
:101C3C001865194B0020186111402046FFF7F9FE7A
:101C4C0057E723684FF400221A65134B00221A61E0
:101C5C002046FFF7F0FE53E723684FF480321A65F5
:101C6C000D4B00221A612046FFF7E6FE4FE7236872
:101C7C004FF480221A65084B00221A612046FFF7A8
:101C8C00DCFE4BE723681F65BA0F034B1A6139461C
:101C9C002046FFF7D5FE57E700A8004000A0004003
:101CAC0063689A6812F0030F3FF45EAF196A01F093
:101CBC000F015A6A186A00F03008586A08EA0008DE
:101CCC001F6A07F4C077586A07401E6A06F4FC4680
:101CDC00586A06401D6A05F4F025586A0540D3F889
:101CEC002490D3F820A011401CD1B8F1000F1ED1C4
:101CFC0019F0400F02D01AF0400F20D15FBB36B163
:101D0C0063681E62D4F89C303343C4F89C30002DB9
:101D1C003FF42AAF63681D62D4F89C302B43C4F89F
:101D2C009C3021E719622046FFF78BFEDDE76368E4
:101D3C00C3F8208041462046FFF784FED8E763684D
:101D4C00D96BDA6B4020186202F03F02090C204676
:101D5C00FFF779FED2E763681F6239462046FFF72A
:101D6C0073FECCE72046FFF76AFE02E770B582B03F
:101D7C0000236EE085685E000324B44025EA040568
:101D8C00CC68B4402C438460456825EA0C054C684B
:101D9C00C4F300149C402C4344606DE0DD0808350E
:101DAC0050F8254003F0070C4FEA8C0C4FF00F0E47
:101DBC000EFA0CFE24EA0E0E0C6904FA0CF444EA3A
:101DCC000E0440F825406FE0092400E0002404FADA
:101DDC000EF42C430CF1020C684D45F82C404FF0DE
:101DEC00B0442568D44325EA0206D1F804C01CF49B
:101DFC00801F01D042EA05064FF0B0452E606D6899
:101E0C0004EA0506D1F804C01CF4001F01D042EA14
:101E1C0005064FF0B0456E60D5F8845004EA05060F
:101E2C00D1F804C01CF4003F01D042EA05064FF083
:101E3C00B045C5F88460D5F880502C404E6816F437
:101E4C00803F01D042EA05044FF0B042C2F8804016
:101E5C0001330A6832FA03F400F08D804FF0010C64
:101E6C000CFA03FC1CEA0202F2D04C6804F00304E6
:101E7C00013C012C7FF67EAF4C6804F00304032C6C
:101E8C000CD0C4685D004FF0030C0CFA05FC24EA7E
:101E9C000C0C8C68AC4044EA0C04C4604C6804F034
:101EAC000304022C3FF47AAF04684FEA430E4FF060
:101EBC00030C0CFA0EFC24EA0C0C4C6804F0030422
:101ECC0004FA0EF444EA0C0404604C6814F4403F29
:101EDC00BED02B4CD4F8F45045F00205C4F8F450A5
:101EEC00D4F8F44004F002040194019C4FEA930CE2
:101EFC000CF10205214C54F8255003F0030E4FEA67
:101F0C008E0E0F2404FA0EF425EA04051D4CA04293
:101F1C003FF45CAF04F58064A0421ED004F58064ED
:101F2C00A0421CD004F58064A0421AD004F5806451
:101F3C00A04218D004F58064A04216D004F5806449
:101F4C00A04214D004F58064A04212D004F50064C1
:101F5C00A0423FF439AF0A2439E7012437E70224C1
:101F6C0035E7032433E7042431E705242FE706245F
:101F7C002DE707242BE702B070BD00BF000400580A
:101F8C000044025800000258134BDB6813F0040F96
:101F9C0007D1114BDB6803F0070383421AD00120F1
:101FAC00704710B50C4AD36823F007030343D36082
:101FBC00FFF7E2F80446084B5B6813F4005F07D1A7
:101FCC00FFF7DAF8001BB0F57A7FF4D9012000E0B6
:101FDC00002010BD0020704700480258002800F077
:101FEC00D58238B50446036813F0010F25D0A04AFA
:101FFC00136903F03803926A102B15D0182B0FD0ED
:10200C006368B3F5803F3FD0002B53D1984B1A68CF
:10201C0022F480321A601A6822F480221A6038E0A6
:10202C0002F00302022AEBD1914B1B6813F4003F20
:10203C0003D06368002B00F0AB82236813F0020F0F
:10204C0000F088808A4A1369926A13F038035AD0D8
:10205C00182B55D0E368002B00F0A98084490A683E
:10206C0022F0190213430B60FFF786F80546804BEC
:10207C001B6813F0040F40F09180FFF77DF8401BB4
:10208C000228F4D903208AE2794A136843F4803396
:10209C00136063682BB3FFF76FF80546744B1B682E
:1020AC0013F4003FC9D1FFF767F8401B6428F5D93A
:1020BC00032074E2B3F5A02F09D06D4B1A6822F4FB
:1020CC0080321A601A6822F480221A60E1E7684BA9
:1020DC001A6842F480221A601A6842F480321A603C
:1020EC00D7E7FFF749F80546614B1B6813F4003F2F
:1020FC00A3D0FFF741F8401B6428F5D903204EE22A
:10210C0012F0030FA6D15A4B1B6813F0040F03D027
:10211C00E368002B00F03E82554A136823F0190344
:10212C00E1680B431360FFF727F80546504B1B681B
:10213C0013F0040F06D1FFF71FF8401B0228F5D946
:10214C0003202CE24A4A536823F0FE43216943EAF8
:10215C0001635360236813F0100F51D0444A136984
:10216C0003F03803926A082B39D0182B33D0E3696B
:10217C00002B69D03E4A136843F080031360FEF7CE
:10218C00FBFF05463A4B1B6813F4807F53D1FEF7D7
:10219C00F3FF401B0228F5D9032000E2344A5368B0
:1021AC0023F0FE43216943EA01635360D2E7304ACE
:1021BC00136823F001031360FEF7DEFF05462C4B7A
:1021CC001B6813F0040FC5D0FEF7D6FF401B022886
:1021DC00F5D90320E3E102F00302012AC7D1244B15
:1021EC001B6813F4807F03D0E369802B40F0D4810B
:1021FC001F4AD36823F07C53216A43EA0163D360FE
:10220C00236813F0080F49D06369002B32D0184AA9
:10221C00536F43F001035367FEF7AEFF0546144BB3
:10222C005B6F13F0020F39D1FEF7A6FF401B02289B
:10223C00F5D90320B3E10E4AD36823F07C53216A0D
:10224C0043EA0163D360DBE7094A136823F0800398
:10225C001360FEF791FF0546054B1B6813F4807F56
:10226C00CED0FEF789FF401B0228F5D9032096E15A
:10227C00004402589D4A536F23F001035367FEF745
:10228C007BFF0546994B5B6F13F0020F06D0FEF7F0
:10229C0073FF401B0228F5D9032080E1236813F05B
:1022AC00200F29D0A3699BB1904A136843F4805343
:1022BC001360FEF761FF05468C4B1B6813F4005F3F
:1022CC001AD1FEF759FF401B0228F5D9032066E10D
:1022DC00864A136823F480531360FEF74DFF0546BE
:1022EC00824B1B6813F4005F06D0FEF745FF401BC2
:1022FC000228F5D9032052E1236813F0040F21D1F1
:10230C00636A002B00F04A81784A126902F03802A5
:10231C00182A00F0F180022B75D0744A136823F050
:10232C0080731360FEF728FF0446704B1B6813F094
:10233C00007F00F0D880FEF71FFF001B0228F4D9A5
:10234C0003202CE16A4A136843F480731360FEF790
:10235C0013FF0546664B1B6813F4807F06D1FEF70E
:10236C000BFF401B6428F5D9032018E1A368012B4F
:10237C000AD00BBB5D4B1A6F22F001021A671A6F61
:10238C0022F004021A6704E0584A136F43F0010369
:10239C001367A36833B3FEF7EFFE0546534B1B6F71
:1023AC0013F0020FACD1FEF7E7FE401B41F288336D
:1023BC009842F3D90320F2E0052B09D04B4B1A6F4E
:1023CC0022F001021A671A6F22F004021A67E0E782
:1023DC00464B1A6F42F004021A671A6F42F0010260
:1023EC001A67D6E7FEF7C8FE0546404B1B6F13F085
:1023FC00020F85D0FEF7C0FE401B41F28833984295
:10240C00F3D90320CBE0394A136823F080731360AF
:10241C00FEF7B2FE0546354B1B6813F0007F06D065
:10242C00FEF7AAFE401B0228F5D90320B7E02F4B7C
:10243C00996A304A0A40A16AE06A41EA00110A43EB
:10244C009A62226B013AC2F30802616B01394902AC
:10245C0089B20A43A16B0139090401F4FE010A4354
:10246C00E16B0139090601F0FE410A431A63DA6A8D
:10247C0022F00102DA625A6B6FF3CF02A16C42EACE
:10248C00C1025A63DA6A22F00C02216C0A43DA6246
:10249C00DA6A22F00202616C0A43DA62DA6A42F406
:1024AC008032DA62DA6A42F40032DA62DA6A42F4D0
:1024BC008022DA62DA6A42F00102DA621A6842F0C9
:1024CC0080721A60FEF758FE0446084B1B6813F026
:1024DC00007F06D1FEF750FE001B0228F5D9032021
:1024EC005DE000205BE0002059E000BF0044025892
:1024FC00004802580CFCFFFF30498A6A086B012B1C
:10250C004ED002F00303A16A8B424BD1C2F30512E9
:10251C00E36A9A4248D1C0F30802236B013B9A420A
:10252C0044D1C0F34622636B013B9A4240D1C0F3C5
:10253C000642A36B013B9A423CD1C0F30660E36BAD
:10254C00013B984238D11D4B5B6BC3F3CC03A26C9F
:10255C009A4201D1002022E0184AD36A23F00103E9
:10256C00D362FEF709FE0546FEF706FEA842FBD035
:10257C00124A536B6FF3CF03A16C43EAC10353634D
:10258C00D36A43F00103D362002008E001207047B6
:10259C00012004E0012002E0012000E0002038BD11
:1025AC000120FCE70120FAE70120F8E70120F6E71B
:1025BC000120F4E70120F2E70120F0E70044025883
:1025CC00F8B5814B1B6903F03803102B00F0F48035
:1025DC00182B0FD0002B40F0F2807B4B1B6813F0B4
:1025EC00200F00F0EE80784B1B68C3F3C103774CCF
:1025FC00DC40E2E0744B9D6A05F003059C6AC4F371
:10260C000514D86A00F001005B6BC3F3CC0303FB29
:10261C0000F0FDF70BFF0646002C00F0CE80012DDC
:10262C0056D0022D00F08480002D40F0A380664B24
:10263C001B6813F0200F29D0634F3B68C3F3C10311
:10264C006248D840FDF7F2FE05462046FDF7EEFE47
:10265C0001462846FDF7F6FF0446386BC0F3080028
:10266C00FDF7E4FE05464FF064513046FDF736FFAA
:10267C0001462846FDF72AFE4FF07E51FDF726FE57
:10268C0001462046FDF72AFF044642E02046FDF7AE
:10269C00CDFE01464E48FDF7D5FF04464A4B186B5C
:1026AC00C0F30800FDF7C2FE05464FF064513046FA
:1026BC00FDF714FF01462846FDF708FE4FF07E514A
:1026CC00FDF704FE01462046FDF708FF044620E016
:1026DC002046FDF7ABFE01463E48FDF7B3FF04462E
:1026EC00394B186BC0F30800FDF7A0FE05464FF000
:1026FC0064513046FDF7F2FE01462846FDF7E6FD33
:10270C004FF07E51FDF7E2FD01462046FDF7E6FE57
:10271C0004462D4B1B6BC3F34623581CFDF786FE5A
:10272C0001462046FDF78EFFFEF728F8044644E0EC
:10273C002046FDF77BFE01462748FDF783FF044644
:10274C00214B186BC0F30800FDF770FE05464FF0E7
:10275C0064513046FDF7C2FE01462846FDF7B6FD32
:10276C004FF07E51FDF7B2FD01462046FDF7B6FE57
:10277C000446CEE72046FDF759FE01461548FDF705
:10278C0061FF0446104B186BC0F30800FDF74EFEBA
:10279C0005464FF064513046FDF7A0FE0146284631
:1027AC00FDF794FD4FF07E51FDF790FD014620465C
:1027BC00FDF794FE0446ACE7084C2046F8BD084CE7
:1027CC00FBE7024CF9E700BF004402580090D0032D
:1027DC000024744C0024744A001BB74B00366E0165
:1027EC0000093D00002800F0328170B50D4604460A
:1027FC009B4B1B6803F00F038B420BD2984A136858
:10280C0023F00F030B431360136803F00F038B4289
:10281C0040F01F81236813F0040F0CD02269914BF8
:10282C009B6903F070039A4205D98E498B6923F09A
:10283C0070031A438A61236813F0080F0CD0626985
:10284C00884BDB6903F070039A4205D98549CB6943
:10285C0023F070031A43CA61236813F0100F0CD0D5
:10286C00A269804BDB6903F4E0639A4205D97D4988
:10287C00CB6923F4E0631A43CA61236813F0200F79
:10288C000CD0E269774B1B6A03F070039A4205D9AE
:10289C0074490B6A23F070031A430A62236813F01D
:1028AC00020F0CD0E2686F4B9B6903F00F039A4246
:1028BC0005D96C498B6923F00F031A438A6123688D
:1028CC0013F0010F41D0674A936923F47063A16838
:1028DC000B4393616368022B0AD0032B27D0012B87
:1028EC002CD0604A126812F0040F06D10120ADE022
:1028FC00126812F4003F00F0AE805A490A6922F0C7
:10290C00070213430B61FEF737FC0646554B1B6958
:10291C0003F038036268B3EBC20F16D0FEF72CFC41
:10292C00801B41F288339842F0D903208EE04D4A47
:10293C00126812F0007FE0D1012087E0494A12684A
:10294C0012F4807FD9D1012080E0236813F0020FAC
:10295C000CD0E268434B9B6903F00F039A4205D2FB
:10296C0040498B6923F00F031A438A613C4B1B6867
:10297C0003F00F03AB420AD9394A136823F00F0353
:10298C002B431360136803F00F03AB4265D123682C
:10299C0013F0040F0CD02269324B9B6903F07003C7
:1029AC009A4205D22F498B6923F070031A438A612E
:1029BC00236813F0080F0CD062692A4BDB6903F013
:1029CC0070039A4205D22749CB6923F070031A434E
:1029DC00CA61236813F0100F0CD0A269214BDB697C
:1029EC0003F4E0639A4205D21E49CB6923F4E063F9
:1029FC001A43CA61236813F0200F0CD0E269194BFB
:102A0C001B6A03F070039A4205D216490B6A23F035
:102A1C0070031A430A62FFF7D3FD12498B69C3F3A3
:102A2C000323114AD35C03F01F03D8408B6903F0D6
:102A3C000F03D35C03F01F0320FA03F30B4A13605C
:102A4C000B4B18600B4B1868FEF734FB70BD012064
:102A5C0070470120FAE70120F8E70120F6E700BFF4
:102A6C0000200052004402581447000800000024C3
:102A7C00040000240C000024404B9B6A03F0030369
:102A8C00032B79D070B505460E463C4A136823F0EB
:102A9C0080631360FEF770FB0446384B1B6813F021
:102AAC00006F06D0FEF768FB031B022BF5D9032041
:102ABC0070BD324B9A6A22F47C32296842EA0132A8
:102ACC009A626A68013AC2F30802A968013949029C
:102ADC0089B20A43E9680139090401F4FE010A4389
:102AEC0029690139090601F0FE410A439A63DA6A41
:102AFC0022F0C00269690A43DA62DA6A22F0200223
:102B0C00A9690A43DA62DA6A22F01002DA62DA6B35
:102B1C006FF3CF02E96942EAC102DA63DA6A42F082
:102B2C001002DA62C6B91A46DB6A43F40023D36298
:102B3C00124A136843F080631360FEF71DFB0446D2
:102B4C000E4B1B6813F0006F14D1FEF715FB001B26
:102B5C000228F5D90320ABE7012E05D0074AD36A2A
:102B6C0043F40013D362E3E7044AD36A43F48013BB
:102B7C00D362DDE700209BE7012070470044025838
:102B8C00404B9B6A03F00303032B79D070B50546C9
:102B9C000E463C4A136823F080531360FEF7ECFAA0
:102BAC000446384B1B6813F0005F06D0FEF7E4FABE
:102BBC00031B022BF5D9032070BD324B9A6A22F00D
:102BCC007C72296842EA01529A626A68013AC2F33D
:102BDC000802A9680139490289B20A43E968013936
:102BEC00090401F4FE010A4329690139090601F0BF
:102BFC00FE410A431A64DA6A22F4406269690A43A4
:102C0C00DA62DA6A22F40072A9690A43DA62DA6AD1
:102C1C0022F48072DA625A6C6FF3CF02E96942EAED
:102C2C00C1025A64DA6A42F48072DA62C6B91A4690
:102C3C00DB6A43F48003D362124A136843F0805377
:102C4C001360FEF799FA04460E4B1B6813F0005FF5
:102C5C0014D1FEF791FA001B0228F5D90320ABE73B
:102C6C00012E05D0074AD36A43F08073D362E3E7A1
:102C7C00044AD36A43F40003D362DDE700209BE7E8
:102C8C000120704700440258F8B50446036813F05D
:102C9C00006F2FD0436EB3F5001F25D015D8E3B1CC
:102CAC00B3F5801F0ED102210830FFF7E5FE054673
:102CBC0075BB934A136D23F44013616E0B4313657C
:102CCC00002619E00126354616E0B3F5401F01D168
:102CDC000025EEE7012635460EE0894AD36A43F417
:102CEC000033D3620025E4E702212830FFF748FFC8
:102CFC000546DDE700263546236813F4807F29D08E
:102D0C00A36D042B22D8DFE803F005131A0A0A007E
:102D1C002E46F1E77A4AD36A43F40033D362C5B93D
:102D2C00774A136D23F00703A16D0B43136511E074
:102D3C00002104F10800FFF79FFE0546EFE7002194
:102D4C0004F12800FFF71CFF0546E8E7012635468D
:102D5C0000E02E46236813F4806F2DD0D4F8A430F5
:102D6C00B3F5800F3DD00DD8C3B1B3F5001F06D11C
:102D7C00002104F10800FFF77FFE054613E0012651
:102D8C00354619E0B3F5000F0DD0B3F5200F0AD07E
:102D9C00B3F5C00F07D0012635460DE0584AD36A6B
:102DAC0043F40033D3621DBB554A936D23F4600387
:102DBC00D4F8A4100B439365236813F4006F37D039
:102DCC00D4F8A830B3F1007F5ED016D80BB3B3F1B2
:102DDC00807F0FD1002104F10800FFF74DFE05465E
:102DEC001CE0002104F12800FFF7CAFE0546DAE7D3
:102DFC002E46E1E7012635461AE0B3F1806F0DD07F
:102E0C00B3F1A06F0AD0B3F1407F07D0012635464D
:102E1C000EE03B4AD36A43F40033D362002D3AD11F
:102E2C00374A936D23F0E063D4F8A8100B439365F5
:102E3C00236813F0007F13D0E36C202B35D02FD8F0
:102E4C0033B1102B29D12E4AD36A43F40033D36209
:102E5C0095BB2B4AD36C23F03003E16C0B43D3644A
:102E6C00236813F4805F4ED0E36DB3F5005F3FD061
:102E7C0027D87BB3B3F5805F20D1002104F1080083
:102E8C00FFF7FAFD05462AE0002104F12800FFF7C0
:102E9C0077FE0546C2E72E46CAE701263546DFE730
:102EAC00302BD5D001263546DAE7022104F1080093
:102EBC00FFF7E2FD0546CBE72E46D1E70126354666
:102ECC0021E0B3F5405F0AD0B3F5804F07D001265F
:102EDC00354618E00A4AD36A43F40033D3628DB9FD
:102EEC00074A136D23F4E043E16D0B4313650AE0CD
:102EFC00002104F12800FFF743FE0546EFE700BF71
:102F0C00004402582E46236813F4005F17D0236E3A
:102F1C00B3F5003F4FD042D843B1B3F5803F3BD11E
:102F2C00012104F10800FFF7A7FD0546002D49D14A
:102F3C00924A136D23F4E023216E0B43136523682F
:102F4C0013F4804F19D0D4F8AC30B3F1005F4AD0F1
:102F5C003DD843B1B3F1805F36D1012104F10800B3
:102F6C00FFF78AFD0546002D44D1844A936D23F06A
:102F7C00E043D4F8AC100B439365236813F4004F73
:102F8C0047D0E36EB3F1805F36D0B3F1005F4BD026
:102F9C00BBB3012635463CE001263546CFE7B3F5F9
:102FAC00802FC3D0B3F5A02FC0D0B3F5403FBDD018
:102FBC0001263546C3E7012104F12800FFF7E0FDA7
:102FCC000546B3E72E46BAE701263546D5E7B3F1F9
:102FDC00804FC8D0B3F1A04FC5D0B3F1405FC2D081
:102FEC0001263546C9E7012104F12800FFF7C8FD89
:102FFC000546B8E72E46C0E7604AD36A43F400336F
:10300C00D362C5B95D4A136D23F04053E16E0B4397
:10301C001365236813F0807F1CD0A36C032B44D85A
:10302C00DFE803F0100B3C10012104F10800FFF75E
:10303C0023FD0546E5E72E46EBE7504AD36A43F4F9
:10304C000033D362A5BB4D4AD36C23F00303A16CB0
:10305C000B43D364236813F4800F2BD1236813F034
:10306C00010F00F0A980A36F282B00F2A380DFE8EA
:10307C0003F091A1A1A1A1A1A1A18BA1A1A1A1A1A9
:10308C00A1A19AA1A1A1A1A1A1A191A1A1A1A1A13B
:10309C00A1A191A1A1A1A1A1A1A19100022104F141
:1030AC000800FFF7E9FC0546CCE701263546D1E7D9
:1030BC002E46CFE7324A136843F480731360FEF751
:1030CC005BF807462E4B1B6813F4807F05D1FEF787
:1030DC0053F8C01B6428F5D90325002D4AD1274B82
:1030EC001B6FD4F8B020534013F4407F0CD0234B0B
:1030FC001A6F22F44072196F41F480311967196FFD
:10310C0021F4803119671A67D4F8B030B3F5807F99
:10311C0015D08DBBD4F8B03003F44072B2F5407FBB
:10312C001ED0164A136923F47C53136113490B6F99
:10313C00D4F8B020C2F30B0213430B678EE7FEF7F3
:10314C001BF807460D4B1B6F13F0020FE1D1FEF776
:10315C0013F8C01B41F288339842F3D90325D8E702
:10316C000648026922F47C52064901EA1313134300
:10317C000361DBE72E4671E72E466FE700440258E9
:10318C0000480258CFFFFF00012104F10800FFF7AF
:10319C0073FC0546E5B9B14A536D23F03803A16FB2
:1031AC000B43536508E0012104F12800FFF7E8FC0C
:1031BC000546EFE701263546236813F0020F17D0BA
:1031CC00636F052B29D8DFE803F00B05210B0B0BE4
:1031DC002E46F1E7012104F10800FFF74DFC0546EE
:1031EC00F5B99E4A536D23F00703616F0B4353658A
:1031FC00236813F0040F26D0D4F89030052B00F27E
:10320C00D680DFE803F0150FCD151515012104F15B
:10321C002800FFF7B5FC0546E2E701263546E7E74F
:10322C002E46E5E7012104F10800FFF725FC0546D1
:10323C00002D40F0BF80894A936D23F00703D4F82A
:10324C0090100B439365236813F0200F1DD0D4F816
:10325C008C30B3F1005F00F0C18000F2B0804BB154
:10326C00B3F1805F40F0A880002104F10800FFF763
:10327C0003FC0546002D40F0B880784A536D23F0CE
:10328C00E043D4F88C100B435365236813F0400FC4
:10329C001DD0D4F89830B3F5006F00F0BA8000F26E
:1032AC00A9804BB1B3F5806F40F0A180002104F1EF
:1032BC000800FFF7E1FB0546002D40F0B180674A9E
:1032CC00936D23F4E053D4F898100B439365236863
:1032DC0013F0800F1DD0D4F89C30B3F5804F00F064
:1032EC00B38000F2A2804BB1B3F5005F40F09A803E
:1032FC00002104F10800FFF7BFFB0546002D40F04C
:10330C00AA80564A936D23F46043D4F89C100B4367
:10331C009365236813F0080F0DD0D4F88030B3F503
:10332C00805F00F09D804D4A536D23F44053D4F8D8
:10333C0080100B435365236813F0100F0DD0D4F895
:10334C009430B3F5807F00F09580444A936D23F45C
:10335C004073D4F894100B439365236813F4002F37
:10336C0000F09D80D4F8A030B3F5803F00F08C8045
:10337C00B3F5003F08D0002B40F08D80002104F104
:10338C000800FFF779FB0546002D40F08780334A93
:10339C00936D23F44033D4F8A0100B4393657EE077
:1033AC00012104F12800FFF7EBFB054640E701265D
:1033BC00354648E72E4646E70126354665E7B3F124
:1033CC00804F3FF457AFB3F1A04F3FF453AFB3F17D
:1033DC00405F3FF44FAF0126354656E7022104F11A
:1033EC002800FFF7CDFB054644E72E464DE70126A6
:1033FC0035466CE7B3F5805F3FF45EAFB3F5A05F85
:10340C003FF45AAFB3F5406F3FF456AF0126354643
:10341C005DE7022104F12800FFF7B2FB05464BE7FC
:10342C002E4654E70126354673E7B3F5004F3FF4BB
:10343C0065AFB3F5204F3FF461AFB3F5C04F3FF428
:10344C005DAF0126354664E7022104F12800FFF741
:10345C0097FB054652E72E465BE700BF0044025837
:10346C00022104F12800FFF78BFB00283FF45BAF2F
:10347C00012658E7022104F12800FFF781FB002800
:10348C003FF463AF012660E7022104F12800FFF747
:10349C0077FB054678E70126354600E02E46236883
:1034AC0013F4802F24D0D4F88430B3F5001F14D03B
:1034BC00B3F5401F07D0B3F5801F15D17C4AD36AF2
:1034CC0043F40033D36295B9794A536D23F4401316
:1034DC00D4F884100B4353650AE0012104F1280051
:1034EC00FFF74EFB0546EEE70126354600E02E467B
:1034FC00236813F4803F06D0236DCBB1B3F5803F26
:10350C0024D001263546236813F0005F27D12368A9
:10351C0013F4003F3DD0E36FB3F5807F2BD027D958
:10352C00B3F5007F2CD0B3F5407F29D0012630E0D5
:10353C005F4AD36A43F40033D36275B95C4AD36CE7
:10354C0023F48033216D0B43D364DCE7022104F1B7
:10355C000800FFF791FA0546EFE72E46D3E7022164
:10356C0004F12800FFF70CFB0028D0D00126CEE791
:10357C0033B101260DE04E4AD36A43F40033D362D3
:10358C00002D5CD14A4A536D23F44073E16F0B4319
:10359C005365236813F4801F06D0454A136D23F03E
:1035AC000043216F0B431365236813F4001F06D0EF
:1035BC003F4A136D23F08073A16E0B431365236890
:1035CC0013F0804F09D03A4B1A6922F400421A6169
:1035DC001A69D4F8B4100A431A612368002B06DA6E
:1035EC00334AD36C23F04053616D0B43D36423688F
:1035FC0013F4000F07D02E4A536D23F44003D4F874
:10360C0088100B435365636813F0010F19D163687D
:10361C0013F0020F1ED1636813F0040F23D16368FB
:10362C0013F0080F28D1636813F0100F2DD16368C5
:10363C0013F0200F32D106B101263046F8BD2E46CC
:10364C00A7E7002104F10800FFF716FA0028DED0E6
:10365C000646DCE7012104F10800FFF70DFA00280B
:10366C00D9D00646D7E7022104F10800FFF704FA87
:10367C000028D4D00646D2E7002104F12800FFF739
:10368C007FFA0028CFD00646CDE7012104F12800AF
:10369C00FFF776FA0028CAD00646C8E7022104F1E3
:1036AC002800FFF76DFA0028C5D00126C5E700BF3A
:1036BC000044025803685A004CBF43F0004323F007
:1036CC0000431844704700BF2DE9F04759B301F18E
:1036DC00FF380546164647464FF0000A0AEB07012D
:1036EC0001EBD171491005EBC1094846FFF7E2FF28
:1036FC0088454FEAC104034610D004F10800B342D8
:10370C00284407D8FFF7D6FF0138B04208D201F1A0
:10371C00010AE3E78A4506D04F1EDFE7B042F9D82D
:10372C004846BDE8F0874FF000094846BDE8F087F1
:10373C00012809D0022805D0044B00280CBF1846DC
:10374C000020704702487047024870470D3E000841
:10375C001D3E0008153E000830B5224B83B00446D0
:10376C008D1E43B301A92846AFF30080F0B1019937
:10377C002A46FFF7A9FF0146C0B1FFF79BFF4B6834
:10378C00A064012B2BD0002B01F1040025DBFFF7EB
:10379C0091FF002323650368E064002B12DBFFF725
:1037AC0089FF03460020236103B030BD00230920AC
:1037BC00236103B030BD0C4B0C49C91AC910184613
:1037CC000191D5E7C3F30360FFF7B2FF031E0CBFF3
:1037DC0009200020236103B030BD0123DAE7002368
:1037EC000520E0E7000000004C47000804480008F2
:1037FC000368DA0710B5044606D49B0700F15000A5
:10380C0009D5FCF7EFFF2368590709D51A070ED520
:10381C00DB0613D510BDFCF7DDFF23685907F5D483
:10382C0004F1D800FCF7E6FF23681A07F0D404F57E
:10383C00AC70FCF7E7FF2368DB06EBD404F5EC7007
:10384C00BDE81040FDF722B80346006800B11844EB
:10385C00704700BF704700BF70B504460E46316C10
:10386C002046FFF779FF054688B9326C62612369FF
:10387C0032462146012098470828F0D0072806D167
:10388C002846316CFFF7E6FF301DFCF797FF00F080
:10389C00D5FD00BF2DE9F04701F1040CC768D0F845
:1038AC00188006469146BCE80F00ADF5767D03AC5A
:1038BC000FC4BCE80F000FC4BCE80F000FC49CE899
:1038CC000F0002AD4FF0000E84E80F00C5F800E0C9
:1038DC0021E02B6C73614FF4F47229467CA8FDF740
:1038EC0043F833697CAA3146504698478A9BAB64AF
:1038FC004946CDE900588246334601203246B84746
:10390C00814630BB4FF4F4727CA92846FDF72CF8A5
:10391C00BAF1080F1AD1296C3046FFF71DFF09F1D7
:10392C00090904465FFA89FA0028D2D0AB6BAB6464
:10393C003246CDE9005833464AF010010120B84711
:10394C0038B920460DF5767DBDE8F087BAF1070F42
:10395C0005D0092420460DF5767DBDE8F087484654
:10396C00296CFFF777FF03A8FCF728FFF0B5CB6BAA
:10397C00FBB001F1040C0B640E460546BCE80F00CD
:10398C0001AC0FC4BCE80F000FC4BCE80F000FC49F
:10399C009CE80F004FF0FF3784E80F00009706E01B
:1039AC002B696A46294698470828044608D110997D
:1039BC002846FFF7D1FE0028F2D009207BB0F0BDDD
:1039CC006846FFF715FF062CF7D131462846FFF75E
:1039DC0043FF00BFC160D96B826119640022194694
:1039EC00FFF758BF70B5C66843690B64AEB903697D
:1039FC000A4604460D46014602209847072805D082
:103A0C0008280FD129462046FFF726FF3046296C9F
:103A1C00FFF720FF281DFCF7D1FE0122FFF73AFF2C
:103A2C0000F00CFD00F00AFDC26822B1CA6B0A64FA
:103A3C000022FFF72FBFFFF799BF00BF052915D84C
:103A4C00DFE801F00A031403030501207047009A14
:103A5C00436C13600020704743B90F2A06D800EB63
:103A6C00820200205368009A13607047022070474E
:103A7C0000B585B00A46002303A900911946FFF74B
:103A8C00DDFF039805B05DF804FB00BF052915D8D0
:103A9C00DFE801F00A031403030501207047009BC3
:103AAC001B6843640020704743B90F2A06D8009B5B
:103ABC0000EB82021B6853600020704702207047A5
:103ACC0010B584B0002303AC039200940A46194647
:103ADC00FFF7DCFF04B010BD70B5D36BADF5107DF6
:103AEC0002F1040C136405460C46BCE80F000DF102
:103AFC005C0EAEE80F00BCE80F00AEE80F00BCE8AF
:103B0C000F00AEE80F009CE80F004FF0FF368EE878
:103B1C000F00169610E0FFF7D3FF214616A8A84712
:103B2C00034616AA0820694683B9049B98470528C2
:103B3C0006460CD0092809D026996846FFF70CFEDA
:103B4C0003460C216A4616A8002BE4D0092616A8B9
:103B5C00FFF74EFE30460DF5107D70BD2DE9F04F90
:103B6C001646CA6C89B00D4652F8041B069200F03A
:103B7C00030C002B79D00C0C8DF81D400904E4B219
:103B8C00059102EB840202218DF81C10296DBCF109
:103B9C00020F08BFAA6B11F0010809D005A9304625
:103BAC0000F0CEFA002856D1082009B0BDE8F08FFD
:103BBC001768002FF2D000F00801CDE90118E34698
:103BCC009A46BAF1020F4CD01788548802F10409B6
:103BDC00AA6C24F001030F21304603EB0208FFF717
:103BEC0047FF80453BD827F0010202EB08038342D4
:103BFC0094BF00230123640004F0020407F00107C2
:103C0C002743012F4ED0022F35D027BBBBF1000F1D
:103C1C0002D0002B40F0D38009F104021768002F6A
:103C2C00CFD105A93046DDF8088000F089FA90B9AB
:103C3C00B8F1000FB8D00F213046FFF719FF0E2155
:103C4C0002463046FFF73CFF6C4A0F213046FFF727
:103C5C0037FF072000E0092009B0BDE8F08F0023F2
:103C6C00C9E7546802F10809B2E7090205918DF819
:103C7C001D30032188E7D9F8004024F00048BBF13F
:103C8C00000F47D12BB1019B002B5CD0B8F1000F7A
:103C9C0059D0002C01DA09F1040908F1010209EBF1
:103CAC008202BBE7BBF1000F1CD1C3B1D9F80430C1
:103CBC00D9F80020991C4FEAD272CCD005F15804E7
:103CCC000133049400F08E8009F10400FFF7BCFD71
:103CDC0004AB01462846AFF30080002859D109F106
:103CEC0008029BE70D213046FFF7C2FE2C6A844286
:103CFC00F5D1AB6A9945F2D14846FFF7DBFC0F21B1
:103D0C0002463046FFF7DCFE2A4600213046FFF71C
:103D1C00D7FE9EE70D213046FFF7AAFE2F6A874299
:103D2C00B7D1AB6A9945B4D100240423C5E90B4340
:103D3C004B44C5F828806B63D9F80030A34258DB9C
:103D4C0001230293A9E705F15803CDF80CB009F152
:103D5C000407B34600241E460BE038460496FFF7D2
:103D6C0073FD0022014604AB2846AFF300800437F4
:103D7C00F8B9444504F10104EFD10D215846FFF781
:103D8C0077FE049BC5F828900246C5E90823062057
:103D9C0062E704460D213046FFF76AFE049E286256
:103DAC00022C04BFEE6205F12C06C5E90969062058
:103DBC0052E75E46D9F80040DDF80CB069E748469A
:103DCC00FFF778FC09F104030446AB632846AFF314
:103DDC00008000283FF43FAF22460F213046FFF70A
:103DEC006FFE36E730460D21FFF742FE264628626D
:103DFC00DBE708F1010209EB82007EE7000000001E
:103E0C000023FFF7ABBE00BF0123FFF7A7BE00BF27
:103E1C000223FFF7A3BE00BF2DE9F0410646C4B054
:103E2C001446052900F2D880DFE811F012002D00AD
:103E3C00D6006C0091000600836B002C40F0CC8007
:103E4C0053F8042B42648363002044B0BDE8F08136
:103E5C00002B40F0C180856B1FFA84FC012006F119
:103E6C00040E00FA03F111EA0C0F2A4604D052F8A2
:103E7C00041B4EF8231015460133102BF1D1A70467
:103E8C00E2D4B563E0E7012B4FEA1447A4B200F08B
:103E9C008380052B40F0A08007EB0408B8F1200FBD
:103EAC0000F29A800F2F40F29980002CCCD002683F
:103EBC00500700F11881019302AD2846FCF79EFCD7
:103ECC004FEA440CA7F11000B16B019B0CF1FF3CC5
:103EDC0005EBC0000CF1010C043801EB8C0251F81D
:103EEC00044B40F8044F9142F9D1012B00F0DE80D5
:103EFC000F2FB16302D822A8FCF774FC2846FCF7FC
:103F0C0079FCA1E7032B67D1A7B207EB1443102B65
:103F1C004FEA144460D80368190700F1BF8022AD42
:103F2C002846FCF791FC7A00B06B05EBC404531ED9
:103F3C0042B1011B625844F8042B013B5A1CF9D1C5
:103F4C0000EBC700B0632846FCF75CFC7CE7002B59
:103F5C0042D1102C40D80368DD0600F1978022ADC9
:103F6C002846FCF79DFCB76B294600234FF0010C4B
:103F7C000CFA03F22242384603F1010303D050F845
:103F8C00042B0A600746042B01F10401F0D1B7633E
:103F9C002846FCF77BFC57E73A19102A1CD8102F3F
:103FAC001AD00268D00708D5304622F0030240F838
:103FBC00502B0193FCF712FC019B019322AD284678
:103FCC00FCF70CFCB26B019B002C58D10432B26391
:103FDC002846FCF7FFFB37E7022036E7B8F1100F55
:103FEC00026865D9D40772D522F0010242F00202B0
:103FFC0040F8502B0193FCF7F9FB3268019B12F04F
:10400C00040F66D122AD28460193FCF7EFFB02A802
:10401C00FCF7F4FBC7F110014900B26B019BA8F14E
:10402C00100C4C1E05EBC7000134043802EB840164
:10403C0052F8044B40F8044F8A42F9D1BCF1000FFE
:10404C005AD0102F384638BF10204FEA4C0C10387D
:10405C0002AD0CF1FF3C05EBC0003BE7304622F013
:10406C00010242F0020240F8502B22AD0193FCF702
:10407C00BDFB2846FCF7BAFBB26B24B3019B640072
:10408C00013C05EBC7004FF0000CCDE723F010030B
:10409C00036000F5EC70FCF703FC60E723F0080309
:1040AC00036000F5AC70FCF7CFFB38E722AD8DE771
:1040BC00D107D3D422AD28460193FCF797FBB26B02
:1040CC00019B002CDBD12846FCF78CFBBCE654078B
:1040DC0098D5304622F0040240F8D82B0193FCF717
:1040EC008DFB019B8EE7304622F0040240F8D82B62
:1040FC000193FCF783FBDFE6012B3FF467AF0F2F37
:10410C00B2633FF6A1AEDEE7027A03467AB9427A91
:10411C00A2B14168013A10B44272086803220C1D26
:10412C001A7202025C60000E10BC1A6070470068C4
:10413C00013A1A7202021A60000E7047B0207047E2
:10414C002DE9F043064685B00D464FF00008284691
:10415C00FFF7DAFFB028044600F01C8107065BD598
:10416C0000F0F003A02B1AD030D8802B00F0828006
:10417C00902B27D100F00D030D2B23D002AF002381
:10418C0000F00F02194600973046FFF757FC00234A
:10419C0000970D2219463046FFF778FCD7E7C3434A
:1041AC0003F007034FF47F621A41010702F47F62A8
:1041BC0001D542F48042002319463046FFF72CFE0D
:1041CC000028C4D0092005B0BDE8F083B02B68D01E
:1041DC00C02B3DD1C62800F0CA80C72800F0DF8074
:1041EC0000F0F803C02B00F0EC80C82800F0F7803A
:1041FC00C928E7D12846FFF787FF020300F00F001C
:10420C0002F4702201300243012105233046FFF7EE
:10421C0003FE00289BD0D5E78300DBB21F1D0DF1F8
:10422C00080900231946CDF800900D223046FFF7FF
:10423C0005FC029BCDF8009060064CBFDF1BFF18FD
:10424C0000230D22194630460297FFF71FFC7EE72C
:10425C0000F0F803D02BB5D100F007020132052392
:10426C0042F4002201213046FFF7D6FD00283FF42E
:10427C006EAFA7E72846FFF747FF24022043B0F5AF
:10428C00004F9FD004010023A2B219463046FFF71D
:10429C00C3FD002896D114F4004F18BF4FF001084D
:1042AC0055E7A0F1B103042B00F2B580DFE803F071
:1042BC005529160C030003AA0023009219460D225F
:1042CC003046FFF7BBFB42E700231A460521304678
:1042DC00FFF7A2FD00283FF43AAF73E72846FFF73B
:1042EC0013FF020300F00F00013002F470220123CF
:1042FC00024319463046FFF78FFD00283FF427AFE5
:10430C0060E700230DF108090D221946CDF8009045
:10431C003046FFF793FB2846FFF7F6FE0206029C99
:10432C004FF002070BD500F07F00B840044428463C
:10433C000294FFF7E9FE030607F10707F3D4B84030
:10434C00002304F501740444CDF800900D221946A5
:10435C0030460294FFF79AFBF9E62846FFF7D4FEA5
:10436C00431EDBB20E2B02467FF625AF2AE728460A
:10437C00FFF7CAFE020300F00F00013002F47022B6
:10438C000323024319463046FFF746FD00283FF44D
:10439C00DEAE17E7B8F1000F2DD0002013E728464A
:1043AC00FFF7B2FE431EDBB20E2B02463FF60AAFFE
:1043BC00002304213046FFF72FFD00283FF4C7AE41
:1043CC0000E700F00F020132032342F420221946C9
:1043DC003046FFF721FD00283FF4B9AEF2E628463F
:1043EC00FFF792FE00F0F00200F00F0310320133E1
:1043FC0043EA023208E702AC4346414600940E22DF
:10440C003046FFF71BFB0F220094434641463046D3
:10441C00FFF73CFBC1E700F0FC03B42B3FF4D2AE3A
:10442C0000F007020132012342F400221946304603
:10443C00FFF7F2FC00283FF48AAEC3E608B506206D
:10444C0000F056F80120FCF7F7FC00BF830730B5ED
:10445C0047D0541E002A3ED0CAB2034601E0013CAC
:10446C0039D303F8012B9D07F9D1032C2CD9CDB2EC
:10447C0005EB05250F2C05EB054535D9A4F11002EC
:10448C0022F00F0C03F1100EE6444FEA121C1A46F0
:10449C00C2E90055C2E9025510327245F8D10CF14F
:1044AC00010214F00C0F03EB021204F00F0C13D0EA
:1044BC00ACF1040323F003030433134442F8045B0C
:1044CC009342FBD10CF003042CB1C9B21C4403F889
:1044DC00011BA342FBD130BD64461346002CF4D122
:1044EC00F9E703461446C0E71A46A446E0E700BFC6
:1044FC0038B5144B1F281D681ED8D5F83821044632
:10450C0062B152F820304BB1012B05D0591C0FD0A1
:10451C00002142F820109847002038BD284600F0B2
:10452C0029F8224601462846BDE8384000F00CB870
:10453C0016232B60012038BD16232B604FF0FF3063
:10454C0038BD00BF1000002470B50C46084D034662
:10455C000026204611461C462E60FCF765FC431CC9
:10456C0000D070BD2B68002BFBD0236070BD00BF4A
:10457C0008040024FCF756BC014B1868704700BFB8
:10458C001000002470B50F4B0F4DAB42A3EB05068A
:10459C0007D0B610002455F8043B01349847A642C6
:1045AC00F9D800F07FF8094D094B5E1BAB424FEA7E
:1045BC00A60606D0002455F8043B01349847A642C1
:1045CC00F9D870BD044800080448000804480008E5
:1045DC000C480008704700BF704700BF024B13B176
:1045EC00024800F005B870470000000009460008BA
:1045FC00002301461A46184600F014B838B5074D8A
:10460C00074C2C1BA41005D0013C55F8043D9847D1
:10461C00002CF9D1BDE8384000F04AB81048000829
:10462C000C4800082DE9F8431B4D064628689846AF
:10463C000F469146FFF7CEFF184B1C681CB3286839
:10464C0065681F2D22DC4EB96B1C0235636044F883
:10465C002570FFF7C1FF0020BDE8F88304EB85014E
:10466C000123C1F88890D4F88821AB401A43022E5C
:10467C00C4F88821C1F80881E6D1D4F88C211A43FA
:10468C00C4F88C21E0E7064C1C60D8E7FFF7A4FFC8
:10469C004FF0FF30E0E700BF580100241004002465
:1046AC0014040024F8B500BFF8BC08BC9E46704743
:0C46BC00F8B500BFF8BC08BC9E46704773
:1046C80000000000000000000000000000000000E2
:1046D80000000000010000000200000003000000CC
:1046E80004000000000000000500000000000000B9
:1046F80000000000000000000600000000000000AC
:10470800000000000000000007000000000000009A
:104718000102030401020304060708090001020359
:0C47280004050607080C1014182030408F
:1047340008B10181B0B000840000000008B101811B
:08474400B0B000840000000089
:10474C0028C2FF7F010000002AC8FF7FB0A90A80A1
:10475C0058C8FF7FA908B180FCC8FF7F00840A807D
:10476C0018C9FF7FC4FFFF7F2CC9FF7FC8FFFF7FE5
:10477C0044C9FF7F01000000E0EFFF7FB0A9028079
:10478C0070F0FF7FB0B0A880C0F0FF7F0100000088
:10479C00C8F0FF7FB0B0AA80FCF0FF7FAE75B2808E
:1047AC00CCF1FF7FAB3F3A802CF2FF7F0100000081
:1047BC0034F2FF7FB0B0AA8070F2FF7F01000000DE
:1047CC0018F3FF7FAA0FB28094F3FF7FB0AF08807D
:1047DC0030F6FF7F0100000040F6FF7FAC3F038006
:1047EC0028F9FF7F0100000058F9FF7FB0AD04806D
:0847FC004CFCFF7F01000000EE
:08480400E9450008110B000852
:04480C00E90A0008AD
:104810000090D0030090D0030100000010000000C1
:10482000180000240000000000000000D002002456
:1048300038030024A0030024000000000000000052
:104840000000000000000000000000000000000068
:104850000000000000000000000000000000000058
:104860000000000000000000000000000000000048
:104870000000000000000000000000000000000038
:104880000000000000000000000000000000000028
:104890000000000000000000000000000000000018
:1048A0000000000000000000000000000000000008
:1048B00000000000000000000000000000000000F8
:1048C00001000000000000000E33CDAB34126DE695
:1048D000ECDE05000B0000000000000000000000FE
:1048E00000000000000000000000000000000000C8
:1048F00000000000000000000000000000000000B8
:1049000000000000000000000000000000000000A7
:104910000000000000000000000000000000000097
:104920000000000000000000000000000000000087
:104930000000000000000000000000000000000077
:104940000000000000000000000000000000000067
:104950000000000000000000000000000000000057
:0C49600000000000000000000C04002417
:0400000508000F29B7
:00000001FF
