:020000040800F2
:1000000000000524310E0008A5090008A709000812
:10001000A9090008AB090008AD09000800000000AC
:10002000000000000000000000000000AF09000810
:10003000B109000800000000B3090008B509000874
:10004000850E0008850E0008850E0008850E000844
:10005000850E0008850E0008850E0008850E000834
:10006000850E0008850E0008850E0008BD090008F1
:10007000CD090008DD090008850E0008850E00087E
:10008000850E0008850E0008850E0008ED090008A1
:10009000850E0008FD090008850E0008850E000881
:1000A000850E0008850E0008850E0008850E0008E4
:1000B000850E0008850E0008850E0008850E0008D4
:1000C000850E0008850E0008850E0008850E0008C4
:1000D000850E00080D0A0008850E0008850E000830
:1000E000850E0008850E000800000000850E00083F
:1000F000850E0008850E0008850E0008850E000894
:10010000850E0008850E0008850E0008850E000883
:10011000850E00081D0A0008850E0008850E0008DF
:10012000850E0008850E0008850E0008850E000863
:10013000850E0008850E0008850E0008850E000853
:1001400000000000000000000000000000000000AF
:10015000850E0008850E0008850E0008850E000833
:10016000850E0008850E0008850E0008850E000823
:10017000850E0008850E0008850E000800000000AE
:10018000850E0008850E0008850E0008850E000803
:10019000850E0008850E0008850E0008850E0008F3
:1001A000850E0008850E0008850E0008000000007E
:1001B000850E0008850E0008850E0008850E0008D3
:1001C000850E0008850E00080000000000000000F9
:1001D0000000000000000000850E00080000000084
:1001E000000000000000000000000000000000000F
:1001F0000000000000000000850E0008850E0008C9
:10020000850E0008850E000800000000850E00081D
:10021000850E0008850E0008850E0008850E000872
:10022000850E000800000000850E00080000000098
:10023000850E0008850E000800000000850E0008ED
:10024000850E0008850E0008850E0008850E000842
:10025000850E0008850E0008850E0008850E000832
:10026000850E0008850E0008850E0008850E000822
:10027000850E0008850E0008850E000800000000AD
:10028000850E0008850E0008850E0008850E000802
:1002900000000000850E0008850E00080000000028
:1002A00000000000850E0008850E0008850E00087D
:1002B000850E0008850E0008850E0008850E0008D2
:0C02C000850E0008850E0008850E000861
:1002CC0053B94AB9002908BF00281CBF4FF0FF31B1
:1002DC004FF0FF3000F0E2B8ADF1080C6DE904CE40
:1002EC0006F06CFADDF804E0DDE9022304B0704797
:1002FC0000F1340191E838009C46A6464CF8045DA8
:10030C0090E8FF0FE54600BD90EC210B704700BF55
:10031C0080EC210B704700BF90EC200B704700BFA6
:10032C0080EC200B704700BFD0EC200B704700BF57
:10033C00C0EC200B704700BFF0EC0201F0EC021196
:10034C00F0EC0221F0EC0231F0EC0241F0EC025145
:10035C00F0EC0261F0EC0271F0EC0281F0EC029135
:10036C00F0EC02A1F0EC02B1F0EC02C1F0EC02D125
:10037C00F0EC02E1F0EC02F1704700BFE0EC02019E
:10038C00E0EC0211E0EC0221E0EC0231E0EC024185
:10039C00E0EC0251E0EC0261E0EC0271E0EC028175
:1003AC00E0EC0291E0EC02A1E0EC02B1E0EC02C165
:1003BC00E0EC02D1E0EC02E1E0EC02F1704700BFAE
:1003CC00B0FC0181B0FC0191B0FC01A1B0FC01B109
:1003DC00704700BFA0FC0181A0FC0191A0FC01A111
:1003EC00A0FC01B1704700BFEC4600B52DE90050F0
:1003FC002DE9FF1F4FF000032DE90C0001A906F0B9
:10040C0097FCDDF840E012B0704700BFEC4600B539
:10041C002DE900502DE9FF1F4FF000032DE90C00D2
:10042C0001A906F0C1FCDDF840E012B0704700BF36
:10043C00EC4600B52DE900502DE9FF1F4FF00003ED
:10044C002DE90C0001A906F0D1FCDDF840E012B05A
:10045C00704700BFEC4600B52DE900502DE9FF1F99
:10046C004FF000032DE90C0001AB06F095FCDDF814
:10047C0040E012B0704700BFEC4600B52DE90050CB
:10048C002DE9FF1F4FF000032DE90C0001AA06F027
:10049C0005FDDDF840E012B0704700BF704700BFAB
:1004AC00844641EA000313F003036DD1403A41D373
:1004BC0051F8043B40F8043B51F8043B40F8043B32
:1004CC0051F8043B40F8043B51F8043B40F8043B22
:1004DC0051F8043B40F8043B51F8043B40F8043B12
:1004EC0051F8043B40F8043B51F8043B40F8043B02
:1004FC0051F8043B40F8043B51F8043B40F8043BF2
:10050C0051F8043B40F8043B51F8043B40F8043BE1
:10051C0051F8043B40F8043B51F8043B40F8043BD1
:10052C0051F8043B40F8043B51F8043B40F8043BC1
:10053C00403ABDD2303211D351F8043B40F8043B61
:10054C0051F8043B40F8043B51F8043B40F8043BA1
:10055C0051F8043B40F8043B103AEDD20C3205D371
:10056C0051F8043B40F8043B043AF9D2043208D069
:10057C00D2071CBF11F8013B00F8013B01D30B88DB
:10058C0003806046704700BF082A13D38B078DD0B9
:10059C0010F003038AD0C3F10403D21ADB071CBF8B
:1005AC0011F8013B00F8013B80D331F8023B20F8F5
:1005BC00023B7BE7043AD9D3013A11F8013B00F82E
:1005CC00013BF9D20B7803704B7843708B788370B6
:1005DC00604670470348044B834202D0034B03B17F
:1005EC00184770475C0100245C01002400000000E7
:1005FC000548064B1B1AD90F01EBA301491002D079
:10060C00034B03B1184770475C0100245C010024C4
:10061C000000000010B5064C237843B9FFF7DAFF51
:10062C00044B13B10448AFF300800123237010BDB9
:10063C005C01002400000000747A000808B5054B2A
:10064C001BB105490548AFF30080BDE80840FFF732
:10065C00CFBF00BF0000000060010024747A0008C6
:10066C0000B583B0134BD3F8D82042F00102C3F885
:10067C00D820D3F8D83003F001030193019B00225A
:10068C0011460B2001F0C8F80B2001F0D5F8002220
:10069C0011460C2001F0C0F80C2001F0CDF800221E
:1006AC0011460D2001F0B8F80D2001F0C5F803B08B
:1006BC005DF804FB0044025838B51648164B03602D
:1006CC0000238360C3600122027443748274032587
:1006DC0045610A2181611D24C46101624562816208
:1006EC00C462026343638363C3630821016404220D
:1006FC0042648164C264036542658365C3650166B7
:10070C004366826602F082FD00B938BD00F0C5F880
:10071C00FBE700BF7801002400A0004010B5B6B084
:10072C000446002131913291339134913591B822A4
:10073C0002A807F06DF82268254B9A4201D036B01A
:10074C0010BD4FF400420023CDE902234FF080533B
:10075C001D9302A804F000F8002836D11D4BD3F8E5
:10076C00EC2042F48072C3F8EC20D3F8EC2002F4B5
:10077C0080720092009AD3F8E02042F00802C3F88D
:10078C00E020D3F8E03003F008030193019B03232E
:10079C0031930223329300243394349409233593F8
:1007AC0031A90D4803F01EF822462146132001F012
:1007BC0033F8132001F040F822462146152001F0B1
:1007CC002BF8152001F038F8B9E700F066F8C5E70A
:1007DC0000A0004000440258000C025884B0194B91
:1007EC00D3F8E02042F08002C3F8E020D3F8E020F8
:1007FC0002F080020092009AD3F8E02042F002024C
:10080C00C3F8E020D3F8E02002F002020192019A32
:10081C00D3F8E02042F00102C3F8E020D3F8E02046
:10082C0002F001020292029AD3F8E02042F0080290
:10083C00C3F8E020D3F8E03003F008030393039BE4
:10084C0004B070470044025810B584B000240094E2
:10085C0001940294039401F007F801238DF8003001
:10086C008DF8014001941F228DF8082087228DF805
:10087C0009208DF80A408DF80B408DF80C308DF85E
:10088C000D308DF80E408DF80F40684601F00AF8D7
:10089C00042000F0F7FF04B010BD72B6FEE70000B4
:1008AC0000B59DB04C22002109A806F0B1FF202212
:1008BC00002101A806F0ACFF022003F09DF80023F4
:1008CC000093204B9A6922F440429A619B6903F48D
:1008DC0040430093009B1B4B9B6913F4005FFAD0C1
:1008EC00012209924FF480330A930223129313933B
:1008FC0014932821159116920422179218930C2305
:10090C00199300231A931B9309A803F09FF8A8B915
:10091C003F230193032102910023039308230493A3
:10092C004023059306934FF480620792089301A825
:10093C0003F07AFC20B91DB05DF804FBFFF7ADFFA6
:10094C00FFF7ABFF0048025808B5FFF77DFF00F03A
:10095C00D1FEFFF7A5FFFFF741FFFFF781FEFFF781
:10096C00ABFE00F0E3F800F01BF900F05FFE00F0C6
:10097C007FFEFCE782B0074BD3F8F42042F0020272
:10098C00C3F8F420D3F8F43003F002030193019B75
:10099C0002B0704700440258FEE7FEE7FEE7FEE7B0
:1009AC00FEE770477047704708B500F0D1FE08BDF0
:1009BC0008B5024801F0A4FF08BD00BF08030024DD
:1009CC0008B5024801F09CFF08BD00BF900200244E
:1009DC0008B5024801F094FF08BD00BF18020024BE
:1009EC0008B5024802F06EFD08BD00BF7801002476
:1009FC0008B5024802F066FD08BD00BF780100246E
:100A0C0008B5024804F0D6FE08BD00BF80030024E0
:100A1C0008B5024804F0CEFE08BD00BF1404002443
:100A2C000120704708B506F089FF162303604FF0CC
:100A3C00FF3008BD08B54FF0FF31FFF7F3FFFEE7BD
:100A4C002B4AD2F8883043F47003C2F88830294B13
:100A5C001B6803F00F03062B06D8264A136823F0F5
:100A6C000F0343F007031360234B1A6842F0010293
:100A7C001A6000221A611968204A0A401A601D4B3C
:100A8C001B6813F0080F06D01A4A136823F00F03E3
:100A9C0043F007031360184B00229A61DA611A6263
:100AAC00174999621749D962174919635A639963AF
:100ABC00DA6319645A64196821F4802119601A6682
:100ACC00D3F8D43013F4805F10D10B4BD3F8D4206F
:100ADC0042F48052C3F8D4200C4A43F2D201116084
:100AEC00D3F8D42022F48052C3F8D420704700BF2E
:100AFC0000ED00E000200052004402587FEDF6EAC1
:100B0C00000202020000FF018002010100400052BD
:100B1C00054AD36843F00203D360034B5B6813F4BC
:100B2C00005FFAD0704700BF0048025808B519485A
:100B3C00194B0360194B43604FF4805383604FF49F
:100B4C000053C36000230361042242618361C361CB
:100B5C0003624362836205F0ECFC70B900210D481E
:100B6C0005F0BAFD60B900210A4805F0DAFD50B96C
:100B7C00084805F092FD48B908BDFFF78EFEEDE779
:100B8C00FFF78BFEEFE7FFF788FEF1E7FFF785FE37
:100B9C00F2E700BF1404002400500040A0860100BE
:100BAC0008B51748174B0360174B4360002383604D
:100BBC00C36003610C2242618361C36103624362BF
:100BCC00836205F0B6FC70B900210D4805F084FD78
:100BDC0060B900210A4805F0A4FD50B9084805F099
:100BEC005CFD48B908BDFFF758FEEDE7FFF755FE71
:100BFC00EFE7FFF752FEF1E7FFF74FFEF2E700BF1A
:100C0C00800300240010014040420F0070B5BAB0C0
:100C1C000446002135913691379138913991B8229B
:100C2C0006A806F0F5FD2368724A934204D0724A76
:100C3C0093426FD03AB070BD02220023CDE9062357
:100C4C0006A803F089FD00285ED16C4BD3F8E82090
:100C5C0042F48012C3F8E820D3F8E82002F48012A2
:100C6C000192019AD3F8E02042F00202C3F8E0208E
:100C7C00D3F8E02002F002020292029AD3F8E020AC
:100C8C0042F00802C3F8E020D3F8E03003F0080388
:100C9C000393039B4FF4005335930226369600259D
:100CAC00379538950E23399335A9554802F09AFD9E
:100CBC00042335933696379538950823399335A9FF
:100CCC00504802F08FFD5048504B03604123436065
:100CDC008560C5604FF48063036145618561C561C2
:100CEC004FF440330362456201F018F878B9464B73
:100CFC00C4F880309C6300221146352000F08CFD36
:100D0C00352000F099FD95E7FFF7C7FD9DE7FFF74C
:100D1C00C4FDECE701220023CDE9062306A803F06D
:100D2C001BFD00285CD1354BD3F8F02042F01002AB
:100D3C00C3F8F020D3F8F02002F010020492049AC9
:100D4C00D3F8E02042F00102C3F8E020D3F8E03001
:100D5C0003F001030593059B4FF4C0633593022305
:100D6C0036930025379538950723399335A92848AC
:100D7C0002F038FD2748284B036029234360856027
:100D8C00C5604FF48063036145618561C56105628F
:100D9C00456200F0C3FF30BB1E4BC4F880309C632F
:100DAC001E481F4B03602A234360402383600023AB
:100DBC00C3604FF48062026143618361C36103626B
:100DCC00436200F0ABFF88B9144BE3679C630022CD
:100DDC001146252000F020FD252000F02DFD29E7EF
:100DEC00FFF75BFD9FE7FFF758FDD5E7FFF755FDD4
:100DFC00EAE700BF005000400010014000440258D8
:100E0C0000040258000C0258080300241000024091
:100E1C00000002589002002428000240180200240E
:100E2C0040000240DFF838D0FFF772FEFFF708FEF3
:100E3C000C480D490D4A002302E0D458C450043329
:100E4C00C4188C42F9D30A4A0A4C002301E01360FF
:100E5C000432A242FBD306F077FDFFF775FD704715
:100E6C0000000524000000245C0100243C7C0008E8
:100E7C005C010024C0300024FEE7000010B584465D
:100E8C00084611461A46054B04689C4202D000F0F5
:100E9C004DF910BD024BCCF80030F8E70050004083
:100EAC00E4180024036893F8042293F8051201F067
:100EBC00070142EA012207EE902AD0ED016AF8EE12
:100ECC00E77A77EEE67A90ED027A87EE876A80ED24
:100EDC000B6A93F8051293F8062202F03F025201B6
:100EEC0042EAD10207EE902AF8EEE77A77EEE67A3C
:100EFC0087EE876A80ED0C6A93F8061293F8072246
:100F0C00920042EA911293F8081201F0010142EAB0
:100F1C00812207EE902AF8EEE77A77EEE67A87EEF2
:100F2C00876A80ED0D6A93F8081293F8092202F093
:100F3C000F02D20142EA510207EE902AF8EEE77A4C
:100F4C0077EEE67A87EE876A80ED0E6AB3F90A22AD
:100F5C0007EE902AF8EEE77A9FED166A67EE867A2E
:100F6C00C0ED107AB3F90C2207EE902AF8EEE77A6E
:100F7C0067EE867AC0ED117AB3F90E2207EE902A4D
:100F8C00F8EEE77A67EE867AC0ED127A93F81422BF
:100F9C0093F8153203F0070342EA032307EE903A65
:100FAC00F8EEE77A77EEE67AC7EE876AC0ED186A54
:100FBC00704700BF0000003810B5046A01340462A9
:100FCC001146FFF76FFF10BD10B584460846114659
:100FDC001A460468234B9C421ED0234B9C4221D0C2
:100FEC00224B9C4222D0224B9C4223D0214B9C4230
:100FFC0024D0214B9C4225D0204B9C4226D0204B08
:10100C009C4227D01F4B9C4228D01F4B9C4206D1A0
:10101C001E4BCCF8003002E01D4BCCF8003000F039
:10102C0085F810BD1B4BCCF80030F8E71A4BCCF808
:10103C000030F4E7194BCCF80030F0E7184BCCF843
:10104C000030ECE7174BCCF80030E8E7164BCCF847
:10105C000030E4E7154BCCF80030E0E7144BCCF84B
:10106C000030DCE700100140004400400048004024
:10107C00004C00400050004000140140007800403B
:10108C00007C004000180140001C0140A804002412
:10109C001429002408250024FC200024F01C002422
:1010AC00E4180024D8140024CC100024C00C002414
:1010BC00B408002401680431002305E000EB83022E
:1010CC00526841F82320013390F82C209A42F5DC29
:1010DC004FF0000C01F822C090F82C309B0001332B
:1010EC0001F803C090F82C309B0002338022CA54C4
:1010FC0090F82C309B0003337F22CA54704738B5CC
:10110C000446154692000430FFF7CAF984F82C50B7
:10111C002046FFF7CFFF216894F82C20013251F8BC
:10112C00040B920000F0B8F838BD000010B503684D
:10113C00454CA34225D0454CA3422DD0444CA34250
:10114C0035D0444CA3423DD0434CA34245D0434CF4
:10115C00A3424DD0424CA34255D0424CA3425DD049
:10116C00414CA34265D0414CA34214D1404B186072
:10117C00C3F80814A3F8042403F5017105F0F6FA7A
:10118C0009E03C4B1860C3F80814A3F8042403F5D9
:10119C00017105F0EBFA10BD374B1860C3F8081459
:1011AC00A3F8042403F5017105F0E0FAF3E7334BDF
:1011BC001860C3F80814A3F8042403F5017105F0B2
:1011CC00D5FAE8E72E4B1860C3F80814A3F80424EA
:1011DC0003F5017105F0CAFADDE72A4B1860C3F874
:1011EC000814A3F8042403F5017105F0BFFAD2E743
:1011FC00254B1860C3F80814A3F8042403F50171F7
:10120C0005F0B4FAC7E7214B1860C3F80814A3F82B
:10121C00042403F5017105F0A9FABCE71C4B186016
:10122C00C3F80814A3F8042403F5017105F09EFA21
:10123C00B1E7184B1860C3F80814A3F8042403F59D
:10124C00017105F093FAA6E700100140004400403C
:10125C0000480040004C0040005000400014014089
:10126C0000780040007C004000180140001C014048
:10127C00A80400241429002408250024FC200024A0
:10128C00F01C0024E4180024D8140024CC100024F2
:10129C00C00C0024B408002408B504F0CBF908BD38
:1012AC005E4B1B78002B00F0B88010B50446036829
:1012BC005B4A93422AD05B4A934236D05A4A9342B5
:1012CC0042D05A4A93424ED0594A93425AD0594A24
:1012DC00934266D0584A934272D0584A93427ED079
:1012EC00574A934200F08A80564A93421CD1564B7F
:1012FC00D3F808340BB1554898475349B1F8042436
:10130C0001F50171204605F031FA0DE0504BD3F890
:10131C0008340BB14F4898474D49B1F8042401F5F6
:10132C000171204605F022FA10BD4B4BD3F808345E
:10133C000BB14A4898474849B1F8042401F50171AA
:10134C00204605F013FAEFE7454BD3F808340BB100
:10135C00444898474249B1F8042401F501712046EC
:10136C0005F004FAE0E7404BD3F808340BB13F48E2
:10137C0098473D49B1F8042401F50171204605F068
:10138C00F5F9D1E73A4BD3F808340BB13948984703
:10139C003749B1F8042401F50171204605F0E6F94E
:1013AC00C2E7354BD3F808340BB13448984732496F
:1013BC00B1F8042401F50171204605F0D7F9B3E723
:1013CC002F4BD3F808340BB12E4898472C49B1F861
:1013DC00042401F50171204605F0C8F9A4E72A4B55
:1013EC00D3F808340BB1294898472749B1F804249D
:1013FC0001F50171204605F0B9F995E7244BD3F8B6
:10140C0008340BB1234898472149B1F8042401F55D
:10141C000171204605F0AAF986E77047482D002493
:10142C00001001400044004000480040004C0040C7
:10143C00005000400014014000780040007C004047
:10144C0000180140001C0140A8040024AC06002434
:10145C0014290024182B0024082500240C27002410
:10146C00FC20002400230024F01C0024F41E002483
:10147C00E4180024E81A0024D8140024DC160024F4
:10148C00CC100024D0120024C00C0024C40E002464
:10149C00B4080024B80A002410B504460368424A74
:1014AC0093422DD0414A934232D0414A934237D095
:1014BC00404A93423CD0404A934241D03F4A9342E7
:1014CC0046D03F4A93424BD03E4A934250D03E4A7C
:1014DC00934255D03D4A934219D13D4BD3F8083431
:1014EC002BB13B48B0F8041400F50170984738490B
:1014FC00B1F8042401F50171204605F037F906E036
:10150C003449B1F8042401F5017105F02FF910BD2F
:10151C003149B1F8042401F5017105F027F9F6E71A
:10152C002E49B1F8042401F5017105F01FF9EEE71D
:10153C002B49B1F8042401F5017105F017F9E6E720
:10154C002849B1F8042401F5017105F00FF9DEE723
:10155C002549B1F8042401F5017105F007F9D6E726
:10156C002249B1F8042401F5017105F0FFF8CEE72A
:10157C001F49B1F8042401F5017105F0F7F8C6E72D
:10158C001C4BD3F808342BB11A48B0F8041400F5EE
:10159C00017098471749B1F8042401F501712046F0
:1015AC0005F0E4F8B3E700BF001001400044004030
:1015BC0000480040004C0040005000400014014026
:1015CC0000780040007C004000180140001C0140E5
:1015DC00A80400241429002408250024FC2000243D
:1015EC00F01C0024E4180024D8140024CC1000248F
:1015FC00C00C0024B4080024054B4FF089425A60FB
:10160C00044A9A6000221A625A6283F828207047B2
:10161C00842D00240000254408B50A4601460248E2
:10162C00FFF7CAFC08BD00BF842D002438B50A4C56
:10163C00002525704FF40073084A09490948FFF743
:10164C001DFC4FF400732A4607490848FFF7BCFC01
:10165C000123237038BD00BF482D00242516000837
:10166C0014040024842D0024800300244C2D002419
:10167C0008B5074B5A6B07490A609A6B4A60DA6ADD
:10168C008A601B6BCB6004220348FFF738FD08BD52
:10169C00842D0024202D00244C2D002408B5FFF7A8
:1016AC00ABFF08BD104B1B780BB90120704710B570
:1016BC0004464FF47A70B0FBF3F30C4A1068B0FB9D
:1016CC00F3F000F0BDF868B90F2C01D901200AE045
:1016DC00002221464FF0FF3000F09EF8044B1C60B6
:1016EC00002000E0012010BD0800002404000024AC
:1016FC000C00002410B5032000F07CF802F098FCDC
:10170C000F498B69C3F303230E4AD35C03F01F0309
:10171C00D8408B6903F00F03D35C03F01F0320FA4E
:10172C0003F3094A1360094B18600F20FFF7BAFF47
:10173C0010B10124204610BD0446FFF71BF9F9E750
:10174C0000440258D87A0008000000240400002449
:10175C00034B1B78034A11680B441360704700BF9E
:10176C0008000024E82D0024014B1868704700BFC6
:10177C00E82D0024002807DB00F01F02400901239C
:10178C009340024A42F82030704700BF00E100E06D
:10179C00002804DB0901C9B2044B1954704700F04E
:1017AC000F000901C9B2024B1954704700E400E064
:1017BC0014ED00E000B500F00700C0F1070CBCF11F
:1017CC00040F28BF4FF0040C031D062B0FD9C31EAA
:1017DC004FF0FF3E0EFA0CF021EA000199400EFA90
:1017EC0003FE22EA0E0241EA02005DF804FB00232C
:1017FC00EEE700000649CB6823F4E0631B041B0CE6
:10180C00000200F4E0600343024A1A43CA607047C6
:10181C0000ED00E00000FA0510B50446054BD86851
:10182C00C0F30220FFF7C6FF01462046FFF7B0FFCA
:10183C0010BD00BF00ED00E008B5FFF79BFF08BD31
:10184C000138B0F1807F0BD24FF0E0235861054A8C
:10185C00F02182F823100020986107221A6170474A
:10186C000120704700ED00E0BFF35F8F044B5A6A14
:10187C0022F480325A620022C3F89420704700BFD1
:10188C0000ED00E040F00100054BC3F894005A6AEB
:10189C0042F480325A62BFF34F8FBFF36F8F7047A1
:1018AC0000ED00E04378144AC2F89830D2F8A0302A
:1018BC0023F00103C2F8A0304368C2F89C30017BCE
:1018CC00C37A1B0643EA0173817A43EAC143417B25
:1018DC0043EA8143817B43EA4143C17B43EA0143B1
:1018EC00417A43EA0123017A43EA410301780B432D
:1018FC00C2F8A030704700BF00ED00E0F0B4876D77
:10190C000468664E664DAC4218BFB44242D01835DE
:10191C00AC423FD01835AC423CD01835AC4239D033
:10192C001835AC4236D01835AC4233D01835AC42F1
:10193C0030D005F55675AC422CD01835AC4229D0B8
:10194C001835AC4226D01835AC4223D01835AC42F1
:10195C0020D01835AC421DD01835AC421AD01835F1
:10196C00AC4217D04F4DAC4214D01435AC4211D010
:10197C001435AC420ED01435AC420BD01435AC42FD
:10198C0008D01435AC4205D01435AC4202D0143515
:10199C00AC4207D1446E856E6560C46E14B1046FA1
:1019AC00456F656004683D4E3D4DAC4218BFB44276
:1019BC0052D01835AC424FD01835AC424CD01835FB
:1019CC00AC4249D01835AC4246D01835AC4243D065
:1019DC001835AC4240D005F55675AC423CD01835A4
:1019EC00AC4239D01835AC4236D01835AC4233D075
:1019FC001835AC4230D01835AC422DD01835AC422D
:101A0C002AD01835AC4227D0264E274DAC4218BFF1
:101A1C00B44211D0254DAC420ED01435AC420BD093
:101A2C001435AC4208D01435AC4205D01435AC4258
:101A3C0002D01435AC4224D1C46D04F01F0501242E
:101A4C00AC407C60046863608368402B20D00368E2
:101A5C0099600368DA6014E0C46D04F01F0C3F2435
:101A6C0004FA0CF4BC6005682C6824F480242C6007
:101A7C00046863608368402B05D003689960036831
:101A8C00DA60F0BC704703689A600368D960F8E7C5
:101A9C0003689A600368D960F3E700BF1000024046
:101AAC0028000240085402581C5402583054025862
:101ABC0003682749274A934218BF8B422FD018320C
:101ACC0093422CD01832934229D01832934226D00C
:101ADC001832934223D01832934220D018329342BA
:101AEC001DD002F55672934219D01832934216D07B
:101AFC001832934213D01832934210D018329342BA
:101B0C000DD0183293420AD01832934207D01832B3
:101B1C00934204D023F0FF038365806D704710B4AB
:101B2C00D9B210390C4AA2FB0142C2F302120B4C7F
:101B3C00A25CC2655F2907D96FF30903043383657F
:101B4C00806D5DF8044B70476FF309038365F7E70D
:101B5C001000024028000240ABAAAAAAE87A0008AA
:101B6C0083699BB9836A012B0AD0022B02D00BB17B
:101B7C0000207047C36A13F0807F2AD10020704781
:101B8C00C36AB3F1C07F26D000207047B3F5005F65
:101B9C000AD0836A022B26D9032B26D1C36A13F0F1
:101BAC00807F24D100207047836A032B03D8DFE8A1
:101BBC0003F01404140A00207047C36A13F0807FEA
:101BCC000DD100207047C36AB3F1C07F09D000204B
:101BDC007047012070470120704701207047012099
:101BEC00704701207047012070470020704701208A
:101BFC007047000003682149214A934218BF8B4269
:101C0C0027D01432934224D01432934221D0143270
:101C1C0093421ED0143293421BD01432934218D0EC
:101C2C001432934215D0DAB2103A1649A1FB0212C3
:101C3C00120915491944A8291ED9144B13449B00A9
:101C4C000366134B436602F01F0201239340836625
:101C5C007047DBB2083B0F4AA2FB03230E4A02EB90
:101C6C001312920002660D4A4266C3F3041301225A
:101C7C0002FA03F3836670470832DEE70854025811
:101C8C001C540258ABAAAAAAF0FBFDBF008200109C
:101C9C0080080240CDCCCCCC00960016805802585F
:101CAC0001794A1E072A2BD830B40368154D164CFF
:101CBC00A34218BFAB4218D01434A34215D014342D
:101CCC00A34212D01434A3420FD01434A3420CD02C
:101CDC001434A34209D01434A34206D00B4B0B444A
:101CEC009B00C3660A4B036705E00A4B0B449B0041
:101CFC00C366094B036701239340436730BC7047AD
:101D0C00704700BF085402581C5402583F82001000
:101D1C00400902403F9600164059025870B50446DF
:101D2C00FFF722FD002C00F0B781054623685349CC
:101D3C00534A934218BF8B420CBF0121002150D053
:101D4C00183293424DD0183293424AD018329342F3
:101D5C0047D01832934244D01832934241D01832B3
:101D6C0093423ED002F5567293423AD018329342C7
:101D7C0037D01832934234D01832934231D01832C3
:101D8C0093422ED0183293422BD01832934228D043
:101D9C001832934225D03B493B4A934218BF8B42A1
:101DAC0000F03281394A934200F02E811432934272
:101DBC0000F02A811432934200F0268114329342AF
:101DCC0000F022811432934200F01E8114329342AF
:101DDC0000F01A8140236365032384F83530012019
:101DEC004AE0022284F83520002284F8342079BBA2
:101DFC00274A93422CD01832934229D0183293425E
:101E0C0026D01832934223D01832934220D0183265
:101E1C0093421DD002F55672934219D01832934258
:101E2C0016D01832934213D01832934210D0183275
:101E3C0093420DD0183293420AD01832934207D0F5
:101E4C001832934204D01A6822F001021A6003E09F
:101E5C001A6822F001021A6023681A6812F0010F46
:101E6C0018D0FFF781FC431B052BF5D920236365A4
:101E7C00032384F83530012070BD00BF10000240F0
:101E8C0028000240085402581C540258305402587E
:101E9C00400002401A6881491140A268E068024380
:101EAC002069024360690243A0690243E06902436E
:101EBC00206A02430A43616A042900F09080616839
:101ECC00522900F296803F29C0F08E803F39744829
:101EDC0020FA01F111F0010F01D042F480121A60C6
:101EEC002668756925F00705636A1D43042B08D124
:101EFC00A36A1D43E36A23B12046FFF731FE002895
:101F0C007CD175612046FFF7D3FDE36D03F01F0212
:101F1C003F239340836023686249634A934218BF0E
:101F2C008B4242D0183293423FD0183293423CD06D
:101F3C001832934239D01832934236D01832934229
:101F4C0033D01832934230D002F5567293422CD0D3
:101F5C001832934229D01832934226D01832934229
:101F6C0023D01832934220D0183293421DD018320D
:101F7C0093421AD01832934217D04C4A934214D041
:101F8C001432934211D0143293420ED01432934235
:101F9C000BD01432934208D01432934205D0143231
:101FAC00934202D01432934213D12046FFF722FE03
:101FBC00A368802B63D0236E22791A60636EA26EA5
:101FCC005A606368013B072B5CD90023E3662367E7
:101FDC00636700206065012384F835304CE7E16AC3
:101FEC00206B01430A436AE7293905293FF677AF8D
:101FFC0073E7743903293FF672AF6EE740236365CC
:10200C00012084F8350037E7022284F835200022BD
:10201C0084F8342019686FF31011A268402A2CD070
:10202C00802A27D00022E06842EAD002206942EAE6
:10203C00D002606942EAD002A06942EAD002E069AB
:10204C0042EAD002206A42EA10120A431A6022685D
:10205C00174B1344174AA2FB03231B099B00E36590
:10206C002046FFF725FDE26D02F01F0101228A4098
:10207C00426050E74FF48042D5E71022D3E70023AB
:10208C00636098E72046FFF70BFEE36E00221A60B0
:10209C00236F626F5A609CE70120EDE63F8010FED3
:1020AC000F030F0010000240280002400854025891
:1020BC00F8ABFDA7CDCCCCCC002800F03E8170B5A0
:1020CC00044690F83400012800F03981012084F88E
:1020DC00340094F83500C0B2012807D04FF40063E7
:1020EC006365002384F83430012070BD022084F82D
:1020FC003500002060652068924E934DA84218BFB1
:10210C00B0422FD01835A8422CD01835A84229D06F
:10211C001835A84226D01835A84223D01835A84225
:10212C0020D01835A8421DD005F55675A84219D0F7
:10213C001835A84216D01835A84213D01835A84225
:10214C0010D01835A8420DD01835A8420AD0183531
:10215C00A84207D01835A84204D0056825F001051F
:10216C00056003E0056825F0010505602046FFF7D2
:10217C00C5FB23687349744A934218BF8B4238D00D
:10218C001832934235D01832934232D018329342DF
:10219C002FD0183293422CD01832934229D01832B7
:1021AC00934226D002F55672934222D018329342B3
:1021BC001FD0183293421CD01832934219D01832C7
:1021CC00934216D01832934213D01832934210D047
:1021DC00183293420DD01A6822F00E0242F00A0215
:1021EC001A60236C93B12268136843F004031360E4
:1021FC000CE01A6822F01E0242F016021A60236CE0
:10220C0023B12268136843F00803136023684D4917
:10221C004D4A934218BF8B4242D0183293423FD062
:10222C00183293423CD01832934239D01832934230
:10223C0036D01832934233D01832934230D002F554
:10224C00567293422CD01832934229D018329342B2
:10225C0026D01832934223D01832934220D0183211
:10226C0093421DD0183293421AD01832934217D091
:10227C00364A934214D01432934211D01432934202
:10228C000ED0143293420BD01432934208D0143235
:10229C00934205D01432934202D0143293420ED1A1
:1022AC00236E1A6812F4803F03D01A6842F48072CD
:1022BC001A60E36E1BB11A6842F480721A602368CC
:1022CC002049214A934218BF8B4230D01832934296
:1022DC002DD0183293422AD01832934227D018327C
:1022EC00934224D01832934221D0183293421ED0FC
:1022FC0002F5567293421AD01832934217D0183204
:10230C00934214D01832934211D0183293420ED00B
:10231C00183293420BD01832934208D018329342A1
:10232C0005D01A6842F001021A600020DDE61A6836
:10233C0042F001021A600020D7E60120704702200B
:10234C00D3E600BF10000240280002400854025897
:10235C0070B50446FFF708FA002C00F09181054691
:10236C0094F83530DBB2022B06D080236365002352
:10237C0084F83430012070BD23688C498C4A934218
:10238C0018BF8B4230D0183293422DD01832934262
:10239C002AD01832934227D01832934224D01832C4
:1023AC00934221D0183293421ED002F556729342BA
:1023BC001AD01832934217D01832934214D01832D4
:1023CC00934211D0183293420ED0183293420BD054
:1023DC001832934208D01832934205D01A6822F072
:1023EC000E021A60266809E01A6822F01E021A60B2
:1023FC002268536923F080035361266823686B4974
:10240C006B4A934218BF8B4242D0183293423FD052
:10241C00183293423CD01832934239D0183293423E
:10242C0036D01832934233D01832934230D002F562
:10243C00567293422CD01832934229D018329342C0
:10244C0026D01832934223D01832934220D018321F
:10245C0093421DD0183293421AD01832934217D09F
:10246C00544A934214D01432934211D014329342F2
:10247C000ED0143293420BD01432934208D0143243
:10248C00934205D01432934202D01432934204D1B9
:10249C00226E136823F48073136023684349444A03
:1024AC00934218BF8B422FD0183293422CD0183243
:1024BC00934229D01832934226D01832934223D01B
:1024CC001832934220D0183293421DD002F5567226
:1024DC00934219D01832934216D01832934213D02B
:1024EC001832934210D0183293420DD018329342C6
:1024FC000AD01832934207D01832934204D01A688B
:10250C0022F001021A6003E01A6822F001021A603C
:10251C00336813F0010F0ED0FFF726F9431B052B80
:10252C00F6D920236365032384F83530002384F81F
:10253C00343001201FE723681C491D4A934218BF01
:10254C008B4239D01832934236D01832934233D062
:10255C001832934230D0183293422DD01832934215
:10256C002AD01832934227D002F55672934223D0C8
:10257C001832934220D0183293421DD01832934215
:10258C001AD01832934217D01832934214D0183202
:10259C00934211D0183293420ED0A16DE36D03F02B
:1025AC001F02012393404B600DE000BF100002405E
:1025BC002800024008540258A16DE36D03F01F027D
:1025CC003F2393408B6023682E492F4A934218BFB8
:1025DC008B4242D0183293423FD0183293423CD0B7
:1025EC001832934239D01832934236D01832934273
:1025FC0033D01832934230D002F5567293422CD01D
:10260C001832934229D01832934226D01832934272
:10261C0023D01832934220D0183293421DD0183256
:10262C0093421AD01832934217D0184A934214D0BE
:10263C001432934211D0143293420ED0143293427E
:10264C000BD01432934208D01432934205D014327A
:10265C00934202D0143293420BD1636EA26E5A6035
:10266C00E36E33B11A6822F480721A60236F626FC2
:10267C005A60012384F83530002084F834007AE65F
:10268C00012078E61000024028000240085402584D
:10269C00002800F0288108B5024690F83530DBB2EE
:1026AC00022B03D080234365012008BD03689048AA
:1026BC0090498B4218BF83420CBF0120002065D08B
:1026CC0018318B4262D018318B425FD018318B425B
:1026DC005CD018318B4259D018318B4256D01831FE
:1026EC008B4253D001F556718B424FD018318B422F
:1026FC004CD018318B4249D018318B4246D018310E
:10270C008B4243D018318B4240D018318B423DD094
:10271C0018318B423AD0196821F00E0119601368F8
:10272C00734874498B4218BF83426AD072498B42FA
:10273C0067D018318B4264D018318B4261D018317C
:10274C008B425ED018318B425BD018318B4258D003
:10275C0001F556718B4254D018318B4251D018313F
:10276C008B424ED018318B424BD018318B4248D013
:10277C0018318B4245D018318B4242D018318B42E4
:10278C003FD0196821F0010119603EE0042182F864
:10279C00351080BB584A93422DD0183293422AD020
:1027AC001832934227D01832934224D018329342D5
:1027BC0021D0183293421ED002F5567293421AD091
:1027CC001832934217D01832934214D018329342D5
:1027DC0011D0183293420ED0183293420BD01832CB
:1027EC00934208D01832934205D01A6822F00102A5
:1027FC001A60002059E71A6822F001021A600020C2
:10280C0053E7196821F001011960136838483949F8
:10281C008B4218BF834242D018318B423FD01831C3
:10282C008B423CD018318B4239D018318B4236D088
:10283C0018318B4233D018318B4230D001F55671A0
:10284C008B422CD018318B4229D018318B4226D098
:10285C0018318B4223D018318B4220D018318B4247
:10286C001DD018318B421AD018318B4217D0234906
:10287C008B4214D014318B4211D014318B420ED0B8
:10288C0014318B420BD014318B4208D014318B4253
:10289C0005D014318B4202D014318B4217D1116EFA
:1028AC000B6823F480730B60906DD36D03F01F01E4
:1028BC0001238B404360536E916E5960D36E33B1DC
:1028CC00196821F480711960136F516F59600123DD
:1028DC0082F83530002382F83430136D2BB110465A
:1028EC0098470020E1E6012070470020DDE600BF9C
:1028FC0010000240280002404000024008540258D8
:10290C00F0B583B00446002301937D4B1D687D4BCD
:10291C00A3FB0535AD0A876D3E68D7F800C0036888
:10292C0079497A48834218BF8B420CBF01200020A2
:10293C0061D0774A93425ED0183293425BD0183202
:10294C00934258D01832934255D01832934252D0F9
:10295C00183293424FD002F5567293424BD0183234
:10296C00934248D01832934245D01832934242D009
:10297C00183293423FD0183293423CD018329342D3
:10298C0039D01832934236D06249634A934218BF09
:10299C008B4212D0614A93420FD0143293420CD026
:1029AC001432934209D01432934206D0143293421B
:1029BC0003D01432934240F061821A68E16D01F049
:1029CC001F010420884010EA0C0F00F0A78212F0BF
:1029DC00040F00F0A382786012F4004F00F05A82CA
:1029EC0012F4803F40F05082A36C002B00F0468222
:1029FC002046984742E2E26D02F01F0108228A400D
:102A0C00324241D070BB424A93422BD0183293428F
:102A1C0028D01832934225D01832934222D0183243
:102A2C0093421FD0183293421CD002F55672934237
:102A3C0018D01832934215D01832934212D0183253
:102A4C0093420FD0183293420CD01832934209D0D3
:102A5C001832934206D01832934203D01A68C2F34C
:102A6C00C00202E01A68C2F380026AB11A6822F04E
:102A7C0004021A60E36D03F01F0208239340BB604D
:102A8C00636D43F001036365E26D02F01F0226FAE9
:102A9C0002F313F0010F47D023681B481B498B42EC
:102AAC0018BF83423CD018318B4239D018318B423D
:102ABC0036D018318B4233D018318B4230D018318C
:102ACC008B422DD018318B422AD001F556718B4296
:102ADC0026D018318B4223D018318B4220D018319C
:102AEC008B421DD018318B421AD018318B4217D023
:102AFC0018318B4214D018318B4211D01B6813E063
:102B0C0004000024B5814E1B100002402800024036
:102B1C0040000240085402581C54025830540258C9
:102B2C005B6913F0800F3BD1E36D03F01F030422AC
:102B3C0002FA03F333423FD02268964896498A4200
:102B4C0018BF824234D018318A4231D018318A42AF
:102B5C002ED018318A422BD018318A4228D0183105
:102B6C008A4225D018318A4222D001F556718A4208
:102B7C001ED018318A421BD018318A4218D0183115
:102B8C008A4215D018318A4212D018318A420FD09D
:102B9C0018318A420CD018318A4209D013680BE0E4
:102BAC0001239340BB60636D43F002036365BBE795
:102BBC00126812F0020F3DD1E36D03F01F031022D7
:102BCC0002FA03F333425FD02268724872498A4298
:102BDC0018BF824234D018318A4231D018318A421F
:102BEC002ED018318A422BD018318A4228D0183175
:102BFC008A4225D018318A4222D001F556718A4278
:102C0C001ED018318A421BD018318A4218D0183184
:102C1C008A4215D018318A4212D018318A420FD00C
:102C2C0018318A420CD018318A4209D01268C2F38A
:102C3C00800208E0BB60636D43F004036365BBE78F
:102C4C001268C2F3C002FAB1BB6023681A6812F4AE
:102C5C00802F0DD01B6813F4002F04D1236C9BB173
:102C6C002046984710E0A36C73B1204698470BE0C0
:102C7C001A6812F4807F03D11A6822F008021A60D5
:102C8C00236C0BB120469847E36D03F01F03202201
:102C9C0002FA03F3334200F0938022683D483E4928
:102CAC008A4218BF82422ED018318A422BD018315A
:102CBC008A4228D018318A4225D018318A4222D033
:102CCC0018318A421FD018318A421CD001F5567136
:102CDC008A4218D018318A4215D018318A4212D043
:102CEC0018318A420FD018318A420CD018318A42DE
:102CFC0009D018318A4206D018318A4203D01268A2
:102D0C00C2F3400202E01268C2F30012002A57D04C
:102D1C00BB6094F83530DBB2042B0ED023681A68F4
:102D2C0012F4802F3AD01B6813F4002F2DD1636C52
:102D3C00002B45D02046984742E02268136823F0C8
:102D4C00160313602268536923F080035361236CCC
:102D5C00BBB12268136823F008031360E36D03F022
:102D6C001F023F239340BB60012384F835300023BE
:102D7C0084F83430236D002B00F080802046984777
:102D8C007CE0A36C002BE4D1E8E7E36BC3B12046F5
:102D9C00984715E010000240280002401A6812F40F
:102DAC00807F09D11A6822F010021A60012384F87E
:102DBC003530002384F83430E36B0BB12046984750
:102DCC00636D002B5AD0636D13F0010F52D00423A6
:102DDC0084F8353023689649964A934218BF8B4243
:102DEC002FD0183293422CD01832934229D018325B
:102DFC00934226D01832934223D01832934220D0DB
:102E0C00183293421DD002F55672934219D01832E3
:102E1C00934216D01832934213D01832934210D0EA
:102E2C00183293420DD0183293420AD01832934282
:102E3C0007D01832934204D01A6822F001021A60AB
:102E4C0003E01A6822F001021A60019B013301931E
:102E5C00AB4204D823681B6813F0010FF5D123682B
:102E6C001B6813F0010F0BD0032384F835300023BB
:102E7C0084F83430E36C0BB12046984703B0F0BDB6
:102E8C00012384F83530F2E7236C002BF6D0204672
:102E9C009847F3E712F0200F3AD123686449654A4A
:102EAC00934218BF8B422FD0183293422CD0183239
:102EBC00934229D01832934226D01832934223D011
:102ECC001832934220D0183293421DD002F556721C
:102EDC00934219D01832934216D01832934213D021
:102EEC001832934210D0183293420DD018329342BC
:102EFC000AD01832934207D01832934204D01A6881
:102F0C0022F004021A6003E01A6822F008021A6028
:102F1C00236C002BB2D020469847AFE702208840A4
:102F2C0010EA0C0F60D012F0020F5DD0786012F432
:102F3C00004F0ED012F4803F05D1636C002B9DD056
:102F4C00204698479AE7E36B002B97D0204698478A
:102F5C0094E712F0200F40D123683549354A93424B
:102F6C0018BF8B422FD0183293422CD01832934278
:102F7C0029D01832934226D01832934223D01832DB
:102F8C00934220D0183293421DD002F556729342D0
:102F9C0019D01832934216D01832934213D01832EB
:102FAC00934210D0183293420DD0183293420AD06B
:102FBC001832934207D01832934204D01A6822F088
:102FCC000A021A6003E01A6822F014021A60012344
:102FDC0084F83530002384F83430E36B002B3FF455
:102FEC004DAF2046984749E7082000FA01F111EA55
:102FFC000C0F3FF443AF12F0080F3FF43FAF1A68C9
:10300C0022F00E021A60E36D03F01F03012202FA94
:10301C0003F37B60626584F83520002384F8343038
:10302C00E36C002B3FF42AAF2046984726E700BFFD
:10303C00100002402800024030B4416B0468D4F800
:10304C0084306F4A134043EA8103C4F88430046827
:10305C00D4F8843023F47F03856B43EA0543C4F82A
:10306C008430836B0B440468D4F88810114041EA17
:10307C008301C4F888100468D4F8881021F4FE0188
:10308C00C56B41EA0541C4F88810C16B03EB4103E1
:10309C000468D4F8A010114041EA8301C4F8A010D0
:1030AC000468D4F8A01021F4FE01056C41EA054136
:1030BC00C4F8A010016C446C04FB01330468D4F810
:1030CC00B010114041EA8301C4F8B0100468D4F880
:1030DC00B01021F4FE01856C41EA0541C4F8B01032
:1030EC00816CC46C04FB01330468D4F8AC1011403F
:1030FC0041EA8301C4F8AC10016D446D04FB01334B
:10310C000468D4F8F010114041EA8301C4F8F010BF
:10311C000468D4F8F01021F47C11856D41EA054166
:10312C00C4F8F010816D03EB41030468D4F8C010AF
:10313C000A4042EA8303C4F8C0300268D2F8C030B7
:10314C0023F47C13C16D43EA0143C2F8C03002681A
:10315C00D2F8C03023F07C53016E43EA0163C2F80D
:10316C00C030436B274A1A449200C266836B02EB51
:10317C0083030367C16B03EBC1034367016C446CAE
:10318C0004FB01F103EB81038367816CC46C04FBCA
:10319C0001F103EB8103C367016D446D04FB01F185
:1031AC0003EB8103C0F88030816D03EBC103C0F8E1
:1031BC008430816EC46D01FB04FC03EB8C03C0F8FE
:1031CC008830046E04FB01F103EB8103C0F89030EE
:1031DC000D498B420DD9D0F89C3043F02003C0F838
:1031EC009C30032380F89830012007E0002342F83C
:1031FC00043BD0F890309342F8D8002030BC704794
:10320C000300FFFF002B0010FCD3004030B595B03D
:10321C0004464C22A04901A8FDF742F9002C00F00D
:10322C00388123689D4A934220D094F898300BB390
:10323C002268936923F010039361FEF795FA054613
:10324C0023689A6912F0080F1AD0FEF78DFA431B07
:10325C000A2BF5D9D4F89C3043F00103C4F89C3008
:10326C00032384F89830012015B030BD03F580732A
:10327C006360DAE784F899302046FDF74FFAD7E718
:10328C009A6942F001029A61FEF76EFA05462368CC
:10329C009A6912F0010F0FD1FEF766FA401B0A284B
:1032AC00F5D9D4F89C3043F00103C4F89C300323C7
:1032BC0084F898300120D7E79A6942F002029A61AB
:1032CC00237C012B40D02268936943F04003936127
:1032DC00637C012B3ED02268936923F48043936175
:1032EC00A37C012B3CD02268936943F480539361F7
:1032FC002268936923F44073A1680B43936122689D
:10330C00936923F0A40393612268136923F01003DB
:10331C001361E368012B29D0002B2CD0022B00F079
:10332C009B802268936943F0800393612268136940
:10333C0043F010031361E368032B1CD122689369DB
:10334C0043F02003936116E02268936923F0400355
:10335C009361BDE72268936943F480439361BFE7AF
:10336C002268936923F480539361C1E722689369BF
:10337C0043F004039361A3695A1EE369013B1B02EA
:10338C0043EA4263226A013A13436269013A2168B3
:10339C0043EA0243CB61A368B3F5407F62D0236E4E
:1033AC0033B12268D2F8C030616E0B43C2F8C03022
:1033BC00E36D226ED3420DD02168D1F8C83023F0D2
:1033CC000703A26E14A800EB820252F84C2C134394
:1033DC00C1F8C830236C6BB12168D1F8BC3023F034
:1033EC000703626C14A800EB820252F84C2C1343B6
:1033FC00C1F8BC30A36C73B12168D1F8BC3023F098
:10340C007003E26C14A800EB820252F84C2C43EAD5
:10341C000213C1F8BC30236D73B12168D1F8BC30F4
:10342C0023F4E063626D14A800EB820252F84C2C7A
:10343C0043EA0223C1F8BC302268184B9A4222D0CE
:10344C000023C4F89430C4F89C30012384F89830DD
:10345C002046FFF7F1FD07E72268936943F020034C
:10346C00936188E7A36A013BE26A013A43EA0223CB
:10347C00226B013A43EA0213626A013A216843EA79
:10348C000243CB608BE76268936823F0030393607D
:10349C00D6E70120E8E600BF8C7A000800A00040C7
:1034AC007047704770477047704770477047704758
:1034BC007047704770477047704770477047704748
:1034CC00704700002DE9F04F83B00446904B1A6909
:1034DC005B69134001939B07009303681A6D02F418
:1034EC00704A5A6D0AEA020A1A6D02F00F095A6DF7
:1034FC0009EA02091A6D02F0F0085A6D08EA02088E
:10350C001E6D06F071565A6D16401F6D07F06077F0
:10351C005A6D17405D6DD3F850B015F4807F02D012
:10352C001BF4807F64D115F4806F02D01BF4806F84
:10353C0067D1009B002B74D1BAF1000F7ED1B9F189
:10354C00000F40F08780B8F1000F40F08F8015F429
:10355C00006F03D01BF4006F40F0948015F4007FD3
:10356C0003D01BF4007F40F0988015F4002F03D09B
:10357C001BF4002F40F0A18015F4803F03D01BF406
:10358C00803F40F0A58015F4802F03D01BF4802FD2
:10359C0040F0A98015F4003F0FD01BF4003F0CD075
:1035AC0023684FF400321A65594B00221A61D4F883
:1035BC009C3043F08003C4F89C30002F40F09E8078
:1035CC004EB123681E65B20F514B1A61D4F89C3072
:1035DC003343C4F89C3022684E4B9A4200F09C80D6
:1035EC00D4F89C30002B40F0F98003B0BDE8F08F8C
:1035FC004FF480721A65464B00221A61FFF75AFF8E
:10360C0091E72368D3F8DC10D3F8E4204FF4806002
:10361C0018653F4B0020186111402046FFF746FF0C
:10362C0087E7236800221A65019B03F00303384ADD
:10363C00136100992046FFF733FF7DE72368C3F839
:10364C0050A04FEA9A72324B1A6151462046FFF74E
:10365C0028FF74E72368C3F850904FEA99722C4BFB
:10366C001A6149462046FFF71DFF6CE72368C3F833
:10367C0050804FEA9872264B1A6141462046FFF75C
:10368C0012FF64E723684FF400621A65204B002296
:10369C001A612046FFF708FF60E72368D3F8D810BB
:1036AC00D3F8E0204FF400701865194B0020186116
:1036BC0011402046FFF7F9FE57E723684FF400222C
:1036CC001A65134B00221A612046FFF7F0FE53E7F0
:1036DC0023684FF480321A650D4B00221A61204684
:1036EC00FFF7E6FE4FE723684FF480221A65084B7C
:1036FC0000221A612046FFF7DCFE4BE723681F65AA
:10370C00BA0F034B1A6139462046FFF7D5FE57E72F
:10371C0000A8004000A0004063689A6812F0030FF4
:10372C003FF45EAF196A01F00F015A6A186A00F093
:10373C003008586A08EA00081F6A07F4C077586A0C
:10374C0007401E6A06F4FC46586A06401D6A05F4DA
:10375C00F025586A0540D3F82490D3F820A01140E6
:10376C001CD1B8F1000F1ED119F0400F02D01AF085
:10377C00400F20D15FBB36B163681E62D4F89C3019
:10378C003343C4F89C30002D3FF42AAF63681D62AC
:10379C00D4F89C302B43C4F89C3021E719622046A6
:1037AC00FFF78BFEDDE76368C3F8208041462046B7
:1037BC00FFF784FED8E76368D96BDA6B4020186298
:1037CC0002F03F02090C2046FFF779FED2E763684E
:1037DC001F6239462046FFF773FECCE72046FFF701
:1037EC006AFE02E7F0B583B000236BE085685E00EB
:1037FC000324B44025EA0405CC68B4402C4384600F
:10380C00456825EA0C054C68C4F300149C402C4315
:10381C00446069E0DD08083550F8254003F0070CDA
:10382C004FEA8C0C4FF00F0E0EFA0CFE24EA0E0E23
:10383C000C6904FA0CF444EA0E0440F825406BE0E1
:10384C00092400E0002404FA0EF42C430CF1020CC1
:10385C00664D45F82C404FF0B0442568D44325EA1A
:10386C0002064F6817F4801F01D042EA05064FF09C
:10387C00B0452E606D6804EA05064F6817F4001F0A
:10388C0001D042EA05064FF0B0456E60D5F8845081
:10389C0004EA05064F6817F4003F01D042EA05061A
:1038AC004FF0B045C5F88460D5F880502C404E6878
:1038BC0016F4803F01D042EA05044FF0B042C2F842
:1038CC00804001330A6832FA03F400F08C804FF028
:1038DC00010C0CFA03FC1CEA0202F2D04C6804F056
:1038EC000304013C012C81D94C6804F00304032C23
:1038FC000CD0C4685D004FF0030C0CFA05FC24EAF4
:10390C000C0C8C68AC4044EA0C04C4604C6804F0A9
:10391C000304022C3FF47EAF04684FEA430E4FF0D1
:10392C00030C0CFA0EFC24EA0C0C4C6804F0030497
:10393C0004FA0EF444EA0C0404604C6814F4403F9E
:10394C00BFD02B4CD4F8F45045F00205C4F8F45019
:10395C00D4F8F44004F002040194019C4FEA930C57
:10396C000CF10205214C54F8255003F0030E4FEADC
:10397C008E0E0F2404FA0EF425EA04051D4CA04209
:10398C003FF460AF04F58064A0421ED004F580645F
:10399C00A0421CD004F58064A0421AD004F58064C7
:1039AC00A04218D004F58064A04216D004F58064BF
:1039BC00A04214D004F58064A04212D004F5006437
:1039CC00A0423FF43DAF0A243DE701243BE702242B
:1039DC0039E7032437E7042435E7052433E70624C5
:1039EC0031E707242FE703B0F0BD00BF00040058F7
:1039FC000044025800000258134BDB6813F0040F0C
:103A0C0007D1114BDB6803F0070383421AD0012066
:103A1C00704710B50C4AD36823F007030343D360F7
:103A2C00FDF7A2FE0446084B5B6813F4005F07D158
:103A3C00FDF79AFE001BB0F57A7FF4D9012000E067
:103A4C00002010BD0020704700480258002800F0EC
:103A5C00D58238B50446036813F0010F25D0A04A6F
:103A6C00136903F03803926A102B15D0182B0FD062
:103A7C006368B3F5803F3FD0002B53D1984B1A6845
:103A8C0022F480321A601A6822F480221A6038E01C
:103A9C0002F00302022AEBD1914B1B6813F4003F96
:103AAC0003D06368002B00F0AB82236813F0020F85
:103ABC0000F088808A4A1369926A13F038035AD04E
:103ACC00182B55D0E368002B00F0A98084490A68B4
:103ADC0022F0190213430B60FDF746FE0546804B9E
:103AEC001B6813F0040F40F09180FDF73DFE401B66
:103AFC000228F4D903208AE2794A136843F480330C
:103B0C00136063682BB3FDF72FFE0546744B1B68DF
:103B1C0013F4003FC9D1FDF727FE401B6428F5D9EB
:103B2C00032074E2B3F5A02F09D06D4B1A6822F470
:103B3C0080321A601A6822F480221A60E1E7684B1E
:103B4C001A6842F480221A601A6842F480321A60B1
:103B5C00D7E7FDF709FE0546614B1B6813F4003FE0
:103B6C00A3D0FDF701FE401B6428F5D903204EE2DB
:103B7C0012F0030FA6D15A4B1B6813F0040F03D09D
:103B8C00E368002B00F03E82554A136823F01903BA
:103B9C00E1680B431360FDF7E7FD0546504B1B68CE
:103BAC0013F0040F06D1FDF7DFFD401B0228F5D9F9
:103BBC0003202CE24A4A536823F0FE43216943EA6E
:103BCC0001635360236813F0100F51D0444A1369FA
:103BDC0003F03803926A082B39D0182B33D0E369E1
:103BEC00002B69D03E4A136843F080031360FDF745
:103BFC00BBFD05463A4B1B6813F4807F53D1FDF790
:103C0C00B3FD401B0228F5D9032000E2344A536867
:103C1C0023F0FE43216943EA01635360D2E7304A43
:103C2C00136823F001031360FDF79EFD05462C4B32
:103C3C001B6813F0040FC5D0FDF796FD401B02283E
:103C4C00F5D90320E3E102F00302012AC7D1244B8A
:103C5C001B6813F4807F03D0E369802B40F0D48180
:103C6C001F4AD36823F07C53216A43EA0163D36073
:103C7C00236813F0080F49D06369002B32D0184A1F
:103C8C00536F43F001035367FDF76EFD0546144B6C
:103C9C005B6F13F0020F39D1FDF766FD401B022854
:103CAC00F5D90320B3E10E4AD36823F07C53216A83
:103CBC0043EA0163D360DBE7094A136823F080030E
:103CCC001360FDF751FD0546054B1B6813F4807F0F
:103CDC00CED0FDF749FD401B0228F5D9032096E113
:103CEC00004402589D4A536F23F001035367FDF7BC
:103CFC003BFD0546994B5B6F13F0020F06D0FDF7A9
:103D0C0033FD401B0228F5D9032080E1236813F012
:103D1C00200F29D0A3699BB1904A136843F48053B8
:103D2C001360FDF721FD05468C4B1B6813F4005FF7
:103D3C001AD1FDF719FD401B0228F5D9032066E1C5
:103D4C00864A136823F480531360FDF70DFD054676
:103D5C00824B1B6813F4005F06D0FDF705FD401B7A
:103D6C000228F5D9032052E1236813F0040F21D166
:103D7C00636A002B00F04A81784A126902F038021B
:103D8C00182A00F0F180022B75D0744A136823F0C6
:103D9C0080731360FDF7E8FC0446704B1B6813F04E
:103DAC00007F00F0D880FDF7DFFC001B0228F4D95F
:103DBC0003202CE16A4A136843F480731360FDF707
:103DCC00D3FC0546664B1B6813F4807F06D1FDF7C8
:103DDC00CBFC401B6428F5D9032018E1A368012B08
:103DEC000AD00BBB5D4B1A6F22F001021A671A6FD7
:103DFC0022F004021A6704E0584A136F43F00103DF
:103E0C001367A36833B3FDF7AFFC0546534B1B6F29
:103E1C0013F0020FACD1FDF7A7FC401B41F2883325
:103E2C009842F3D90320F2E0052B09D04B4B1A6FC3
:103E3C0022F001021A671A6F22F004021A67E0E7F7
:103E4C00464B1A6F42F004021A671A6F42F00102D5
:103E5C001A67D6E7FDF788FC0546404B1B6F13F03D
:103E6C00020F85D0FDF780FC401B41F2883398424D
:103E7C00F3D90320CBE0394A136823F08073136025
:103E8C00FDF772FC0546354B1B6813F0007F06D01E
:103E9C00FDF76AFC401B0228F5D90320B7E02F4B35
:103EAC00996A304A0A40A16AE06A41EA00110A4361
:103EBC009A62226B013AC2F30802616B0139490222
:103ECC0089B20A43A16B0139090401F4FE010A43CA
:103EDC00E16B0139090601F0FE410A431A63DA6A03
:103EEC0022F00102DA625A6B6FF3CF02A16C42EA44
:103EFC00C1025A63DA6A22F00C02216C0A43DA62BC
:103F0C00DA6A22F00202616C0A43DA62DA6A42F47B
:103F1C008032DA62DA6A42F40032DA62DA6A42F445
:103F2C008022DA62DA6A42F00102DA621A6842F03E
:103F3C0080721A60FDF718FC0446084B1B6813F0DE
:103F4C00007F06D1FDF710FC001B0228F5D90320D9
:103F5C005DE000205BE0002059E000BF0044025807
:103F6C00004802580CFCFFFF30498A6A086B012B91
:103F7C004ED002F00303A16A8B424BD1C2F305125F
:103F8C00E36A9A4248D1C0F30802236B013B9A4280
:103F9C0044D1C0F34622636B013B9A4240D1C0F33B
:103FAC000642A36B013B9A423CD1C0F30660E36B23
:103FBC00013B984238D11D4B5B6BC3F3CC03A26C15
:103FCC009A4201D1002022E0184AD36A23F001035F
:103FDC00D362FDF7C9FB0546FDF7C6FBA842FBD033
:103FEC00124A536B6FF3CF03A16C43EAC1035363C3
:103FFC00D36A43F00103D362002008E0012070472C
:10400C00012004E0012002E0012000E0002038BD86
:10401C000120FCE70120FAE70120F8E70120F6E790
:10402C000120F4E70120F2E70120F0E700440258F8
:10403C00754B1B6903F03803102B00F0DE80182B36
:10404C000FD0002B40F0DB806F4B1B6813F0200F60
:10405C0000F0D7806C4B1B68C3F3C1036B48D8408E
:10406C00704710B4684B9A6A02F003029C6AC4F35E
:10407C000510D96A01F001015B6BC3F3CC0301FBA2
:10408C0003F307EE903AF8EE677A14F47C7F77D05E
:10409C00012A4AD0022A76D0002A40F091805A4B4D
:1040AC001B6813F0200F23D057490A68C2F3C102D2
:1040BC00564BD34007EE103AF8EE476A07EE100A5B
:1040CC00B8EE476A86EE867A0B6BC3F3080306EEEE
:1040DC00903AF8EE666A9FED4E6A67EE867A76EE57
:1040EC00A77AF7EE006A77EEA67A27EE277A38E001
:1040FC0007EE100AF8EE476A9FED466A86EE267ABE
:10410C00414B1B6BC3F3080306EE903AF8EE666A5C
:10411C009FED3F6A67EE867A76EEA77AF7EE006A35
:10412C0077EEA67A27EE277A1BE007EE100AF8EE58
:10413C00476A9FED396A86EE267A334B1B6BC3F3C5
:10414C00080306EE903AF8EE666A9FED316A67EE68
:10415C00867A76EEA77AF7EE006A77EEA67A27EEE5
:10416C00277A294B1B6BC3F34623013307EE903A96
:10417C00F8EE677AC7EE276AFCEEE67A17EE900A3D
:10418C005DF8044B704707EE100AF8EE476A9FED96
:10419C00236A86EE267A1C4B1B6BC3F3080306EED0
:1041AC00903AF8EE666A9FED1A6A67EE867A76EEBA
:1041BC00A77AF7EE006A77EEA67A27EE277AD0E791
:1041CC0007EE100AF8EE476A9FED136A86EE267A20
:1041DC000D4B1B6BC3F3080306EE903AF8EE666AC0
:1041EC009FED0B6A67EE867A76EEA77AF7EE006A99
:1041FC0077EEA67A27EE277AB3E709487047094885
:10420C0070470248704700BF004402580090D0032A
:10421C00000000390024744C0024744A001BB74B76
:10422C0000366E0100093D00002800F0328170B5A7
:10423C000D4604469B4B1B6803F00F038B420BD2BD
:10424C00984A136823F00F030B431360136803F0B1
:10425C000F038B4240F01F81236813F0040F0CD026
:10426C002269914B9B6903F070039A4205D98E49E0
:10427C008B6923F070031A438A61236813F0080FCB
:10428C000CD06269884BDB6903F070039A4205D944
:10429C008549CB6923F070031A43CA61236813F074
:1042AC00100F0CD0A269804BDB6903F4E0639A42D7
:1042BC0005D97D49CB6923F4E0631A43CA612368AD
:1042CC0013F0200F0CD0E269774B1B6A03F07003DC
:1042DC009A4205D974490B6A23F070031A430A6297
:1042EC00236813F0020F0CD0E2686F4B9B6903F04C
:1042FC000F039A4205D96C498B6923F00F031A43BB
:10430C008A61236813F0010F41D0674A936923F443
:10431C007063A1680B4393616368022B0AD0032B73
:10432C0027D0012B2CD0604A126812F0040F06D152
:10433C000120ADE0126812F4003F00F0AE805A4943
:10434C000A6922F0070213430B61FDF70DFA0646CA
:10435C00554B1B6903F038036268B3EBC20F16D0E0
:10436C00FDF702FA801B41F288339842F0D9032002
:10437C008EE04D4A126812F0007FE0D1012087E0F8
:10438C00494A126812F4807FD9D1012080E0236859
:10439C0013F0020F0CD0E268434B9B6903F00F0340
:1043AC009A4205D240498B6923F00F031A438A6164
:1043BC003C4B1B6803F00F03AB420AD9394A136814
:1043CC0023F00F032B431360136803F00F03AB426E
:1043DC0065D1236813F0040F0CD02269324B9B6912
:1043EC0003F070039A4205D22F498B6923F07003B6
:1043FC001A438A61236813F0080F0CD062692A4BA8
:10440C00DB6903F070039A4205D22749CB6923F08C
:10441C0070031A43CA61236813F0100F0CD0A26901
:10442C00214BDB6903F4E0639A4205D21E49CB6948
:10443C0023F4E0631A43CA61236813F0200F0CD0F5
:10444C00E269194B1B6A03F070039A4205D21649B4
:10445C000B6A23F070031A430A62FFF7E9FD124955
:10446C008B69C3F30323114AD35C03F01F03D840B9
:10447C008B6903F00F03D35C03F01F0320FA03F3E3
:10448C000B4A13600B4B18600B4B1868FDF70AF9BD
:10449C0070BD012070470120FAE70120F8E70120E8
:1044AC00F6E700BF0020005200440258D87A0008FA
:1044BC0000000024040000240C00002408B5FFF7C1
:1044CC00B7FD0B4A9369C3F303230A49CB5C03F092
:1044DC001F0320FA03F3926902F00F02885C00F0CC
:1044EC001F0023FA00F0044A1060044A136008BD50
:1044FC0000440258D87A000800000024040000246C
:10450C0008B5FFF7DBFF054BDB69C3F30213044A65
:10451C00D35C03F01F03D84008BD00BF0044025811
:10452C00D87A000808B5FFF7C9FF054BDB69C3F360
:10453C000223044AD35C03F01F03D84008BD00BF1C
:10454C0000440258D87A0008404B9B6A03F00303DE
:10455C00032B79D070B505460E463C4A136823F000
:10456C0080631360FDF700F90446384B1B6813F0A9
:10457C00006F06D0FDF7F8F8031B022BF5D90320CA
:10458C0070BD324B9A6A22F47C32296842EA0132BD
:10459C009A626A68013AC2F30802A96801394902B1
:1045AC0089B20A43E9680139090401F4FE010A439E
:1045BC0029690139090601F0FE410A439A63DA6A56
:1045CC0022F0C00269690A43DA62DA6A22F0200238
:1045DC00A9690A43DA62DA6A22F01002DA62DA6B4B
:1045EC006FF3CF02E96942EAC102DA63DA6A42F098
:1045FC001002DA62C6B91A46DB6A43F40023D362AE
:10460C00124A136843F080631360FDF7ADF804465B
:10461C000E4B1B6813F0006F14D1FDF7A5F8001BAF
:10462C000228F5D90320ABE7012E05D0074AD36A3F
:10463C0043F40013D362E3E7044AD36A43F48013D0
:10464C00D362DDE700209BE701207047004402584D
:10465C00404B9B6A03F00303032B79D070B50546DE
:10466C000E463C4A136823F080531360FDF77CF828
:10467C000446384B1B6813F0005F06D0FDF774F846
:10468C00031B022BF5D9032070BD324B9A6A22F022
:10469C007C72296842EA01529A626A68013AC2F352
:1046AC000802A9680139490289B20A43E96801394B
:1046BC00090401F4FE010A4329690139090601F0D4
:1046CC00FE410A431A64DA6A22F4406269690A43B9
:1046DC00DA62DA6A22F40072A9690A43DA62DA6AE7
:1046EC0022F48072DA625A6C6FF3CF02E96942EA03
:1046FC00C1025A64DA6A42F48072DA62C6B91A46A6
:10470C00DB6A43F48003D362124A136843F080538C
:10471C001360FDF729F804460E4B1B6813F0005F7D
:10472C0014D1FDF721F8001B0228F5D90320ABE7C3
:10473C00012E05D0074AD36A43F08073D362E3E7B6
:10474C00044AD36A43F40003D362DDE700209BE7FD
:10475C000120704700440258F8B50446036813F072
:10476C00006F2FD0436EB3F5001F25D015D8E3B1E1
:10477C00B3F5801F0ED102210830FFF7E5FE054688
:10478C0075BB934A136D23F44013616E0B43136591
:10479C00002619E00126354616E0B3F5401F01D17D
:1047AC000025EEE7012635460EE0894AD36A43F42C
:1047BC000033D3620025E4E702212830FFF748FFDD
:1047CC000546DDE700263546236813F4807F29D0A3
:1047DC00A36D042B22D8DFE803F005131A0A0A0094
:1047EC002E46F1E77A4AD36A43F40033D362C5B953
:1047FC00774A136D23F00703A16D0B43136511E08A
:10480C00002104F10800FFF79FFE0546EFE70021A9
:10481C0004F12800FFF71CFF0546E8E701263546A2
:10482C0000E02E46236813F4806F2DD0D4F8A4300A
:10483C00B3F5800F3DD00DD8C3B1B3F5001F06D131
:10484C00002104F10800FFF77FFE054613E0012666
:10485C00354619E0B3F5000F0DD0B3F5200F0AD093
:10486C00B3F5C00F07D0012635460DE0584AD36A80
:10487C0043F40033D3621DBB554A936D23F460039C
:10488C00D4F8A4100B439365236813F4006F37D04E
:10489C00D4F8A830B3F1007F5ED016D80BB3B3F1C7
:1048AC00807F0FD1002104F10800FFF74DFE054673
:1048BC001CE0002104F12800FFF7CAFE0546DAE7E8
:1048CC002E46E1E7012635461AE0B3F1806F0DD094
:1048DC00B3F1A06F0AD0B3F1407F07D00126354663
:1048EC000EE03B4AD36A43F40033D362002D3AD135
:1048FC00374A936D23F0E063D4F8A8100B4393650B
:10490C00236813F0007F13D0E36C202B35D02FD805
:10491C0033B1102B29D12E4AD36A43F40033D3621E
:10492C0095BB2B4AD36C23F03003E16C0B43D3645F
:10493C00236813F4805F4ED0E36DB3F5005F3FD076
:10494C0027D87BB3B3F5805F20D1002104F1080098
:10495C00FFF7FAFD05462AE0002104F12800FFF7D5
:10496C0077FE0546C2E72E46CAE701263546DFE745
:10497C00302BD5D001263546DAE7022104F10800A8
:10498C00FFF7E2FD0546CBE72E46D1E7012635467B
:10499C0021E0B3F5405F0AD0B3F5804F07D0012674
:1049AC00354618E00A4AD36A43F40033D3628DB912
:1049BC00074A136D23F4E043E16D0B4313650AE0E2
:1049CC00002104F12800FFF743FE0546EFE700BF86
:1049DC00004402582E46236813F4005F17D0236E50
:1049EC00B3F5003F4FD042D843B1B3F5803F3BD134
:1049FC00012104F10800FFF7A7FD0546002D49D160
:104A0C00924A136D23F4E023216E0B431365236844
:104A1C0013F4804F19D0D4F8AC30B3F1005F4AD006
:104A2C003DD843B1B3F1805F36D1012104F10800C8
:104A3C00FFF78AFD0546002D44D1844A936D23F07F
:104A4C00E043D4F8AC100B439365236813F4004F88
:104A5C0047D0E36EB3F1805F36D0B3F1005F4BD03B
:104A6C00BBB3012635463CE001263546CFE7B3F50E
:104A7C00802FC3D0B3F5A02FC0D0B3F5403FBDD02D
:104A8C0001263546C3E7012104F12800FFF7E0FDBC
:104A9C000546B3E72E46BAE701263546D5E7B3F10E
:104AAC00804FC8D0B3F1A04FC5D0B3F1405FC2D096
:104ABC0001263546C9E7012104F12800FFF7C8FD9E
:104ACC000546B8E72E46C0E7604AD36A43F4003384
:104ADC00D362C5B95D4A136D23F04053E16E0B43AD
:104AEC001365236813F0807F1CD0A36C032B44D870
:104AFC00DFE803F0100B3C10012104F10800FFF774
:104B0C0023FD0546E5E72E46EBE7504AD36A43F40E
:104B1C000033D362A5BB4D4AD36C23F00303A16CC5
:104B2C000B43D364236813F4800F2BD1236813F049
:104B3C00010F00F0A980A36F282B00F2A380DFE8FF
:104B4C0003F091A1A1A1A1A1A1A18BA1A1A1A1A1BE
:104B5C00A1A19AA1A1A1A1A1A1A191A1A1A1A1A150
:104B6C00A1A191A1A1A1A1A1A1A19100022104F156
:104B7C000800FFF7E9FC0546CCE701263546D1E7EE
:104B8C002E46CFE7324A136843F480731360FCF768
:104B9C00EBFD07462E4B1B6813F4807F05D1FCF709
:104BAC00E3FDC01B6428F5D90325002D4AD1274B02
:104BBC001B6FD4F8B020534013F4407F0CD0234B20
:104BCC001A6F22F44072196F41F480311967196F12
:104BDC0021F4803119671A67D4F8B030B3F5807FAF
:104BEC0015D08DBBD4F8B03003F44072B2F5407FD1
:104BFC001ED0164A136923F47C53136113490B6FAF
:104C0C00D4F8B020C2F30B0213430B678EE7FCF70A
:104C1C00ABFD07460D4B1B6F13F0020FE1D1FCF7F8
:104C2C00A3FDC01B41F288339842F3D90325D8E782
:104C3C000648026922F47C52064901EA1313134315
:104C4C000361DBE72E4671E72E466FE700440258FE
:104C5C0000480258CFFFFF00012104F10800FFF7C4
:104C6C0073FC0546E5B9B14A536D23F03803A16FC7
:104C7C000B43536508E0012104F12800FFF7E8FC21
:104C8C000546EFE701263546236813F0020F17D0CF
:104C9C00636F052B29D8DFE803F00B05210B0B0BF9
:104CAC002E46F1E7012104F10800FFF74DFC054603
:104CBC00F5B99E4A536D23F00703616F0B4353659F
:104CCC00236813F0040F26D0D4F89030052B00F293
:104CDC00D680DFE803F0150FCD151515012104F171
:104CEC002800FFF7B5FC0546E2E701263546E7E765
:104CFC002E46E5E7012104F10800FFF725FC0546E7
:104D0C00002D40F0BF80894A936D23F00703D4F83F
:104D1C0090100B439365236813F0200F1DD0D4F82B
:104D2C008C30B3F1005F00F0C18000F2B0804BB169
:104D3C00B3F1805F40F0A880002104F10800FFF778
:104D4C0003FC0546002D40F0B880784A536D23F0E3
:104D5C00E043D4F88C100B435365236813F0400FD9
:104D6C001DD0D4F89830B3F5006F00F0BA8000F283
:104D7C00A9804BB1B3F5806F40F0A180002104F104
:104D8C000800FFF7E1FB0546002D40F0B180674AB3
:104D9C00936D23F4E053D4F898100B439365236878
:104DAC0013F0800F1DD0D4F89C30B3F5804F00F079
:104DBC00B38000F2A2804BB1B3F5005F40F09A8053
:104DCC00002104F10800FFF7BFFB0546002D40F061
:104DDC00AA80564A936D23F46043D4F89C100B437D
:104DEC009365236813F0080F0DD0D4F88030B3F519
:104DFC00805F00F09D804D4A536D23F44053D4F8EE
:104E0C0080100B435365236813F0100F0DD0D4F8AA
:104E1C009430B3F5807F00F09580444A936D23F471
:104E2C004073D4F894100B439365236813F4002F4C
:104E3C0000F09D80D4F8A030B3F5803F00F08C805A
:104E4C00B3F5003F08D0002B40F08D80002104F119
:104E5C000800FFF779FB0546002D40F08780334AA8
:104E6C00936D23F44033D4F8A0100B4393657EE08C
:104E7C00012104F12800FFF7EBFB054640E7012672
:104E8C00354648E72E4646E70126354665E7B3F139
:104E9C00804F3FF457AFB3F1A04F3FF453AFB3F192
:104EAC00405F3FF44FAF0126354656E7022104F12F
:104EBC002800FFF7CDFB054644E72E464DE70126BB
:104ECC0035466CE7B3F5805F3FF45EAFB3F5A05F9A
:104EDC003FF45AAFB3F5406F3FF456AF0126354659
:104EEC005DE7022104F12800FFF7B2FB05464BE712
:104EFC002E4654E70126354673E7B3F5004F3FF4D1
:104F0C0065AFB3F5204F3FF461AFB3F5C04F3FF43D
:104F1C005DAF0126354664E7022104F12800FFF756
:104F2C0097FB054652E72E465BE700BF004402584C
:104F3C00022104F12800FFF78BFB00283FF45BAF44
:104F4C00012658E7022104F12800FFF781FB002815
:104F5C003FF463AF012660E7022104F12800FFF75C
:104F6C0077FB054678E70126354600E02E46236898
:104F7C0013F4802F24D0D4F88430B3F5001F14D050
:104F8C00B3F5401F07D0B3F5801F15D17C4AD36A07
:104F9C0043F40033D36295B9794A536D23F440132B
:104FAC00D4F884100B4353650AE0012104F1280066
:104FBC00FFF74EFB0546EEE70126354600E02E4690
:104FCC00236813F4803F06D0236DCBB1B3F5803F3B
:104FDC0024D001263546236813F0005F27D12368BF
:104FEC0013F4003F3DD0E36FB3F5807F2BD027D96E
:104FFC00B3F5007F2CD0B3F5407F29D0012630E0EB
:10500C005F4AD36A43F40033D36275B95C4AD36CFC
:10501C0023F48033216D0B43D364DCE7022104F1CC
:10502C000800FFF791FA0546EFE72E46D3E7022179
:10503C0004F12800FFF70CFB0028D0D00126CEE7A6
:10504C0033B101260DE04E4AD36A43F40033D362E8
:10505C00002D5CD14A4A536D23F44073E16F0B432E
:10506C005365236813F4801F06D0454A136D23F053
:10507C000043216F0B431365236813F4001F06D004
:10508C003F4A136D23F08073A16E0B4313652368A5
:10509C0013F0804F09D03A4B1A6922F400421A617E
:1050AC001A69D4F8B4100A431A612368002B06DA83
:1050BC00334AD36C23F04053616D0B43D3642368A4
:1050CC0013F4000F07D02E4A536D23F44003D4F889
:1050DC0088100B435365636813F0010F19D1636893
:1050EC0013F0020F1ED1636813F0040F23D1636811
:1050FC0013F0080F28D1636813F0100F2DD16368DB
:10510C0013F0200F32D106B101263046F8BD2E46E1
:10511C00A7E7002104F10800FFF716FA0028DED0FB
:10512C000646DCE7012104F10800FFF70DFA002820
:10513C00D9D00646D7E7022104F10800FFF704FA9C
:10514C000028D4D00646D2E7002104F12800FFF74E
:10515C007FFA0028CFD00646CDE7012104F12800C4
:10516C00FFF776FA0028CAD00646C8E7022104F1F8
:10517C002800FFF76DFA0028C5D00126C5E700BF4F
:10518C000044025808B5FFF799F9054B1B6AC3F3A5
:10519C000213044AD35C03F01F03D84008BD00BFC0
:1051AC0000440258D87A000810B4794B9A6A9C6A69
:1051BC00C4F3053CD96AC1F30011DB6BC3F3CC0318
:1051CC0001FB03F314F47C3F00F0DD8002F00302DA
:1051DC0007EE903AF8EE677A012A4BD0022A00F0DB
:1051EC009880002A40F0B280694B1B6813F0200FA6
:1051FC0023D067490A68C2F3C102664BD34007EE5D
:10520C00103AF8EE476A07EE10CAB8EE476A86EE17
:10521C00867A8B6BC3F3080306EE903AF8EE666A57
:10522C009FED5D6A67EE867A76EEA77AF7EE006AF6
:10523C0077EEA67A27EE277A38E007EE10CAF8EE5A
:10524C00476A9FED566A86EE267A514B9B6BC3F3E9
:10525C00080306EE903AF8EE666A9FED4F6A67EE29
:10526C00867A76EEA77AF7EE006A77EEA67A27EEC4
:10527C00277A1BE007EE10CAF8EE476A9FED486AE2
:10528C0086EE267A424B9B6BC3F3080306EE903AEC
:10529C00F8EE666A9FED406A67EE867A76EEA77A3C
:1052AC00F7EE006A77EEA67A27EE277A384A936BE8
:1052BC00C3F3462307EE903AF8EE677AF7EE006AEE
:1052CC0077EEA67A87EE276ABCEEC66A80ED006A96
:1052DC00936BC3F3064307EE903AF8EE677A77EEDA
:1052EC00A67A87EE276ABCEEC66A80ED016A936BDC
:1052FC00C3F3066307EE903AF8EE677A77EEA67A78
:10530C00C7EE276AFCEEE66AC0ED026A5DF8044B54
:10531C00704707EE10CAF8EE476A9FED226A86EED8
:10532C00267A1B4B9B6BC3F3080306EE903AF8EE00
:10533C00666A9FED196A67EE867A76EEA77AF7EEC3
:10534C00006A77EEA67A27EE277AAFE707EE10CA47
:10535C00F8EE476A9FED126A86EE267A0C4B9B6B31
:10536C00C3F3080306EE903AF8EE666A9FED0A6AFC
:10537C0067EE867A76EEA77AF7EE006A77EEA67A73
:10538C0027EE277A92E70023036043608360BDE732
:10539C00004402580090D003000000390024744CE3
:1053AC000024744A001BB74B10B4794B9A6A9C6A60
:1053BC00C4F3055CD96AC1F300215B6CC3F3CC0365
:1053CC0001FB03F314F07C7F00F0DD8002F003029C
:1053DC0007EE903AF8EE677A012A4BD0022A00F0D9
:1053EC009880002A40F0B280694B1B6813F0200FA4
:1053FC0023D067490A68C2F3C102664BD34007EE5B
:10540C00103AF8EE476A07EE10CAB8EE476A86EE15
:10541C00867A0B6CC3F3080306EE903AF8EE666AD4
:10542C009FED5D6A67EE867A76EEA77AF7EE006AF4
:10543C0077EEA67A27EE277A38E007EE10CAF8EE58
:10544C00476A9FED566A86EE267A514B1B6CC3F366
:10545C00080306EE903AF8EE666A9FED4F6A67EE27
:10546C00867A76EEA77AF7EE006A77EEA67A27EEC2
:10547C00277A1BE007EE10CAF8EE476A9FED486AE0
:10548C0086EE267A424B1B6CC3F3080306EE903A69
:10549C00F8EE666A9FED406A67EE867A76EEA77A3A
:1054AC00F7EE006A77EEA67A27EE277A384A136C65
:1054BC00C3F3462307EE903AF8EE677AF7EE006AEC
:1054CC0077EEA67A87EE276ABCEEC66A80ED006A94
:1054DC00136CC3F3064307EE903AF8EE677A77EE57
:1054EC00A67A87EE276ABCEEC66A80ED016A136C59
:1054FC00C3F3066307EE903AF8EE677A77EEA67A76
:10550C00C7EE276AFCEEE66AC0ED026A5DF8044B52
:10551C00704707EE10CAF8EE476A9FED226A86EED6
:10552C00267A1B4B1B6CC3F3080306EE903AF8EE7D
:10553C00666A9FED196A67EE867A76EEA77AF7EEC1
:10554C00006A77EEA67A27EE277AAFE707EE10CA45
:10555C00F8EE476A9FED126A86EE267A0C4B1B6CAE
:10556C00C3F3080306EE903AF8EE666A9FED0A6AFA
:10557C0067EE867A76EEA77AF7EE006A77EEA67A71
:10558C0027EE277A92E70023036043608360BDE730
:10559C00004402580090D003000000390024744CE1
:1055AC000024744A001BB74B026852E8003F23F0FA
:1055BC00C00342E800310029F6D1026802F1080369
:1055CC0053E8003F23F40003083242E8003100297D
:1055DC00F3D12023C0F8883070470000026852E8ED
:1055EC00003F23F4907342E800310029F6D10268A1
:1055FC0002F1080353E8001F0D4B0B40083242E840
:10560C0000310029F3D1C36E012B06D02023C0F842
:10561C008C300023C36643677047026852E8003F32
:10562C0023F0100342E800310029F6D1EEE700BF69
:10563C00FEFFFFEF1346D0F88820202A3DD110B58D
:10564C000446002B18BF002939D00165A0F854304E
:10565C00A0F856300022C0F890202122C0F88820F3
:10566C00C26FCAB11749D163C26F17491164C26FB7
:10567C001649D164C26F0021116502682832016D90
:10568C00C06FFCF719FD38B11023C4F890302023FB
:10569C00C4F8883001200FE0236840221A62226887
:1056AC0002F1080353E8003F43F08003083242E85C
:1056BC0000310029F3D1002010BD022070470120D9
:1056CC00FAE700BFDF5600084B570008595700088F
:1056DC00704708B5816BC369B3F5807F18D0002380
:1056EC00A1F856300A6802F1080353E8003F23F092
:1056FC008003083242E800300028F3D10A6852E8EF
:10570C00003F43F0400342E800300028F6D108BDCA
:10571C000846FFF7DDFFFAE708B5026852E8003FDC
:10572C0023F0400342E800310029F6D12023C0F8D1
:10573C00883000238367FFF7CBFF08BD704708B59F
:10574C00806BFFF7FBFF08BD7047704738B5846B63
:10575C00D4F88820D4F88C5023689B6813F0800F01
:10576C0001D0212A10D023689B6813F0400F01D080
:10577C00222D10D0D4F8903043F01003C4F89030A0
:10578C002046FBF789FE38BD0023A4F8563020468E
:10579C00FFF70AFFE7E70023A4F85E302046FFF787
:1057AC001DFFE7E708B5806B0023A0F85E30FBF720
:1057BC0073FE08BD70B504460268D3691068916821
:1057CC0040F60F0C13EA0C0F0DD113F0200F10D074
:1057DC0010F0200F02D111F0805F0AD0636F93B3E9
:1057EC00204698472FE0884D0D402DD1874E3042F2
:1057FC002AD1E56E012D00F0C08013F4801F03D078
:10580C0011F4800F40F0A28113F0800F07D010F03C
:10581C00800F40F0A28111F4000F40F09E8113F034
:10582C00400F03D010F0400F40F09E8113F4000F96
:10583C0003D010F0804F40F09B8113F0807F02D09A
:10584C000028C0F2998170BD13F0010F09D010F43B
:10585C00807F06D001261662D4F890203243C4F81B
:10586C00902013F0020F0BD011F0010F08D022681A
:10587C0002261662D4F8902042F00402C4F890205C
:10588C0013F0040F0BD011F0010F08D0226804267E
:10589C001662D4F8902042F00202C4F8902013F063
:1058AC00080F0BD010F0200F00D13DB12268082555
:1058BC001562D4F890202A43C4F8902013F4006F9A
:1058CC000CD010F0806F09D022684FF4006515627F
:1058DC00D4F8902042F02002C4F89020D4F8902004
:1058EC00002AB0D013F0200F09D010F0200F02D1F5
:1058FC0011F0805F03D0636F0BB120469847D4F84A
:10590C00902023689B6813F0400F02D112F0280FEF
:10591C002CD02046FFF762FE23689B6813F0400FE3
:10592C0020D0226802F1080353E8003F23F0400323
:10593C00083242E800310029F3D1D4F880306BB141
:10594C00334A1A65D4F88000FCF7A2FE00283FF415
:10595C007AAFD4F88000036D984774E72046FBF7C4
:10596C009BFD70E72046FBF797FD6CE72046FBF7A5
:10597C0093FD0023C4F8903065E713F0100F3FF44B
:10598C003CAF10F0100F3FF438AF102313622368B4
:10599C009B6813F0400F00F09F80D4F880201368B0
:1059AC001C481D498B4218BF834237D018318B429B
:1059BC0034D018318B4231D018318B422ED0183163
:1059CC008B422BD018318B4228D018318B4225D0EA
:1059DC0001F556718B4221D018318B421ED01831F3
:1059EC008B421BD018318B4218D018318B4215D0FA
:1059FC0018318B4212D018318B420FD018318B4298
:105A0C000CD05B689BB20BE001000010200100047D
:105A1C00B157000810000240280002405B689BB29E
:105A2C00002B49D0B4F85C10994245D9A4F85E30EB
:105A3C00D369B3F5807F32D0226852E8003F23F45B
:105A4C00807342E800310029F6D1226802F1080384
:105A5C0053E8003F23F00103083242E800310029EB
:105A6C00F3D1226802F1080353E8003F23F040030E
:105A7C00083242E800310029F3D12023C4F88C30DD
:105A8C000023E366226852E8003F23F0100342E84B
:105A9C0000310029F6D1D4F88000FCF759FC022320
:105AAC002367B4F85C10B4F85E309BB2C91A89B2A3
:105ABC002046FBF7F5FBC6E6B4F85C1099427FF480
:105ACC00C2AED369B3F5807F7FF4BDAE02232367EA
