:020000040800F2
:10000000000005246D0C00087D0900087F09000828
:100010008109000883090008850900080000000024
:100020000000000000000000000000008709000838
:1000300089090008000000008B0900088D090008EC
:10004000C10C0008C10C0008C10C0008C10C00085C
:10005000C10C0008C10C0008C10C0008C10C00084C
:10006000C10C0008C10C0008C10C0008950900086B
:10007000C10C0008C10C0008C10C0008C10C00082C
:10008000C10C0008C10C0008C10C0008A50900083B
:10009000C10C0008B5090008C10C0008C10C00081B
:1000A000C10C0008C10C0008C10C0008C10C0008FC
:1000B000C10C0008C10C0008C10C0008C10C0008EC
:1000C000C10C0008C10C0008C10C0008C10C0008DC
:1000D000C10C0008C10C0008C10C0008C10C0008CC
:1000E000C10C0008C10C000800000000C10C000891
:1000F000C10C0008C10C0008C10C0008C10C0008AC
:10010000C10C0008C10C0008C10C0008C10C00089B
:10011000C10C0008C5090008C10C0008C10C00088A
:10012000C10C0008C10C0008C10C0008C10C00087B
:10013000C10C0008C10C0008C10C0008C10C00086B
:1001400000000000000000000000000000000000AF
:10015000C10C0008C10C0008C10C0008C10C00084B
:10016000C10C0008C10C0008C10C0008C10C00083B
:10017000C10C0008C10C0008C10C00080000000000
:10018000C10C0008C10C0008C10C0008C10C00081B
:10019000C10C0008C10C0008C10C0008C10C00080B
:1001A000C10C0008C10C0008C10C000800000000D0
:1001B000C10C0008C10C0008C10C0008C10C0008EB
:1001C000C10C0008C10C0008000000000000000085
:1001D0000000000000000000C10C0008000000004A
:1001E000000000000000000000000000000000000F
:1001F0000000000000000000C10C0008C10C000855
:10020000C10C0008C10C000800000000C10C00086F
:10021000C10C0008C10C0008C10C0008C10C00088A
:10022000C10C000800000000C10C00080000000024
:10023000C10C0008C10C000800000000C10C00083F
:10024000C10C0008C10C0008C10C0008C10C00085A
:10025000C10C0008C10C0008C10C0008C10C00084A
:10026000C10C0008C10C0008C10C0008C10C00083A
:10027000C10C0008C10C0008C10C000800000000FF
:10028000C10C0008C10C0008C10C0008C10C00081A
:1002900000000000C10C0008C10C000800000000B4
:1002A00000000000C10C0008C10C0008C10C0008CF
:1002B000C10C0008C10C0008C10C0008C10C0008EA
:0C02C000C10C0008C10C0008C10C0008B3
:1002CC0053B94AB9002908BF00281CBF4FF0FF31B1
:1002DC004FF0FF3000F0E2B8ADF1080C6DE904CE40
:1002EC0005F0ECFFDDF804E0DDE9022304B0704713
:1002FC0000F1340191E838009C46A6464CF8045DA8
:10030C0090E8FF0FE54600BD90EC210B704700BF55
:10031C0080EC210B704700BF90EC200B704700BFA6
:10032C0080EC200B704700BFD0EC200B704700BF57
:10033C00C0EC200B704700BFF0EC0201F0EC021196
:10034C00F0EC0221F0EC0231F0EC0241F0EC025145
:10035C00F0EC0261F0EC0271F0EC0281F0EC029135
:10036C00F0EC02A1F0EC02B1F0EC02C1F0EC02D125
:10037C00F0EC02E1F0EC02F1704700BFE0EC02019E
:10038C00E0EC0211E0EC0221E0EC0231E0EC024185
:10039C00E0EC0251E0EC0261E0EC0271E0EC028175
:1003AC00E0EC0291E0EC02A1E0EC02B1E0EC02C165
:1003BC00E0EC02D1E0EC02E1E0EC02F1704700BFAE
:1003CC00B0FC0181B0FC0191B0FC01A1B0FC01B109
:1003DC00704700BFA0FC0181A0FC0191A0FC01A111
:1003EC00A0FC01B1704700BFEC4600B52DE90050F0
:1003FC002DE9FF1F4FF000032DE90C0001A906F0B9
:10040C0017FADDF840E012B0704700BFEC4600B5BB
:10041C002DE900502DE9FF1F4FF000032DE90C00D2
:10042C0001A906F041FADDF840E012B0704700BFB8
:10043C00EC4600B52DE900502DE9FF1F4FF00003ED
:10044C002DE90C0001A906F051FADDF840E012B0DC
:10045C00704700BFEC4600B52DE900502DE9FF1F99
:10046C004FF000032DE90C0001AB06F015FADDF896
:10047C0040E012B0704700BFEC4600B52DE90050CB
:10048C002DE9FF1F4FF000032DE90C0001AA06F027
:10049C0085FADDF840E012B0704700BF704700BF2E
:1004AC00844641EA000313F003036DD1403A41D373
:1004BC0051F8043B40F8043B51F8043B40F8043B32
:1004CC0051F8043B40F8043B51F8043B40F8043B22
:1004DC0051F8043B40F8043B51F8043B40F8043B12
:1004EC0051F8043B40F8043B51F8043B40F8043B02
:1004FC0051F8043B40F8043B51F8043B40F8043BF2
:10050C0051F8043B40F8043B51F8043B40F8043BE1
:10051C0051F8043B40F8043B51F8043B40F8043BD1
:10052C0051F8043B40F8043B51F8043B40F8043BC1
:10053C00403ABDD2303211D351F8043B40F8043B61
:10054C0051F8043B40F8043B51F8043B40F8043BA1
:10055C0051F8043B40F8043B103AEDD20C3205D371
:10056C0051F8043B40F8043B043AF9D2043208D069
:10057C00D2071CBF11F8013B00F8013B01D30B88DB
:10058C0003806046704700BF082A13D38B078DD0B9
:10059C0010F003038AD0C3F10403D21ADB071CBF8B
:1005AC0011F8013B00F8013B80D331F8023B20F8F5
:1005BC00023B7BE7043AD9D3013A11F8013B00F82E
:1005CC00013BF9D20B7803704B7843708B788370B6
:1005DC00604670470348044B834202D0034B03B17F
:1005EC00184770475C0100245C01002400000000E7
:1005FC000548064B1B1AD90F01EBA301491002D079
:10060C00034B03B1184770475C0100245C010024C4
:10061C000000000010B5064C237843B9FFF7DAFF51
:10062C00044B13B10448AFF300800123237010BDB9
:10063C005C010024000000007475000808B5054B2F
:10064C001BB105490548AFF30080BDE80840FFF732
:10065C00CFBF00BF000000006001002474750008CB
:10066C0000B583B00B4BD3F8D82042F00102C3F88D
:10067C00D820D3F8D83003F001030193019B00225A
:10068C0011460B2000F0FCFD0B2000F009FE03B01E
:10069C005DF804FB0044025838B51648164B03604D
:1006AC0000238360C36001220274437482740325A7
:1006BC0045610A2181611D24C46101624562816228
:1006CC00C462026343638363C3630821016404222D
:1006DC0042648164C264036542658365C3650166D7
:1006EC004366826602F0C6FA00B938BD00F0C5F860
:1006FC00FBE700BF7801002400A0004010B5B6B0A5
:10070C000446002131913291339134913591B822C4
:10071C0002A806F0FDFD2268254B9A4201D036B0A6
:10072C0010BD4FF400420023CDE902234FF080535B
:10073C001D9302A803F006FE002836D11D4BD3F8FA
:10074C00EC2042F48072C3F8EC20D3F8EC2002F4D5
:10075C0080720092009AD3F8E02042F00802C3F8AD
:10076C00E020D3F8E03003F008030193019B03234E
:10077C003193022332930024339434940923359318
:10078C0031A90D4802F024FE22462146132000F028
:10079C0077FD132000F084FD22462146152000F041
:1007AC006FFD152000F07CFDB9E700F066F8C5E799
:1007BC0000A0004000440258000C025884B0194BB1
:1007CC00D3F8E02042F08002C3F8E020D3F8E02018
:1007DC0002F080020092009AD3F8E02042F002026C
:1007EC00C3F8E020D3F8E02002F002020192019A53
:1007FC00D3F8E02042F00102C3F8E020D3F8E02067
:10080C0002F001020292029AD3F8E02042F00802B0
:10081C00C3F8E020D3F8E03003F008030393039B04
:10082C0004B070470044025810B584B00024009402
:10083C0001940294039400F04BFD01238DF80030D9
:10084C008DF8014001941F228DF8082087228DF825
:10085C0009208DF80A408DF80B408DF80C308DF87E
:10086C000D308DF80E408DF80F40684600F04EFDAF
:10087C00042000F03BFD04B010BD72B6FEE7000092
:10088C0000B59DB04C22002109A806F041FD2022A4
:10089C00002101A806F03CFD022002F0A3FE00237B
:1008AC000093204B9A6922F440429A619B6903F4AD
:1008BC0040430093009B1B4B9B6913F4005FFAD0E1
:1008CC00012209924FF480330A930223129313935B
:1008DC0014932821159116920422179218930C2325
:1008EC00199300231A931B9309A802F0A5FEA8B92B
:1008FC003F230193032102910023039308230493C4
:10090C004023059306934FF480620792089301A845
:10091C0003F080FA20B91DB05DF804FBFFF7ADFFC2
:10092C00FFF7ABFF0048025808B5FFF77DFF00F05A
:10093C0015FCFFF7A5FFFFF741FFFFF791FEFFF74F
:10094C00ABFE00F0C7F800F0D3FBFEE782B0074B1C
:10095C00D3F8F42042F00202C3F8F420D3F8F430B8
:10096C0003F002030193019B02B07047004402584C
:10097C00FEE7FEE7FEE7FEE7FEE7704770477047CD
:10098C0008B500F019FC08BD08B5024801F0ECFCF4
:10099C0008BD00BF1802002408B5024802F088FB0D
:1009AC0008BD00BF7801002408B5024802F080FBA6
:1009BC0008BD00BF7801002408B5024804F07AFC99
:1009CC0008BD00BF900200240120704708B506F056
:1009DC0035FD162303604FF0FF3008BD08B54FF00E
:1009EC00FF31FFF7F3FFFEE72B4AD2F8883043F4D0
:1009FC007003C2F88830294B1B6803F00F03062BD9
:100A0C0006D8264A136823F00F0343F0070313603C
:100A1C00234B1A6842F001021A6000221A6119680D
:100A2C00204A0A401A601D4B1B6813F0080F06D0B1
:100A3C001A4A136823F00F0343F007031360184B93
:100A4C0000229A61DA611A62174999621749D962D0
:100A5C00174919635A639963DA6319645A641968FC
:100A6C0021F4802119601A66D3F8D43013F4805F16
:100A7C0010D10B4BD3F8D42042F48052C3F8D420BD
:100A8C000C4A43F2D2011160D3F8D42022F48052E4
:100A9C00C3F8D420704700BF00ED00E000200052E6
:100AAC00004402587FEDF6EA000202020000FF014A
:100ABC008002010100400052054AD36843F0020352
:100ACC00D360034B5B6813F4005FFAD0704700BF30
:100ADC000048025808B51848184B0360184B43607F
:100AEC004FF4805383600023C3600361042242618E
:100AFC008361C36103624362836205F09AFA70B941
:100B0C0000210D4805F068FB60B900210A4805F08A
:100B1C0088FB50B9084805F040FB48B908BDFFF701
:100B2C00ACFEEDE7FFF7A9FEEFE7FFF7A6FEF1E756
:100B3C00FFF7A3FEF2E700BF900200240050004034
:100B4C00A086010070B5B8B00446002133913491F1
:100B5C00359136913791B82204A806F0D9FB22685A
:100B6C00394B9A4201D038B070BD02220023CDE936
:100B7C00042304A803F0E6FB00285ED1334BD3F822
:100B8C00E82042F48012C3F8E820D3F8E82002F4FD
:100B9C0080120192019AD3F8E02042F00202C3F8CD
:100BAC00E020D3F8E02002F002020292029AD3F87D
:100BBC00E02042F00802C3F8E020D3F8E03003F064
:100BCC0008030393039B4FF400533393022634968C
:100BDC000025359536950E23379333A91C4802F022
:100BEC00F7FB0423339334963595369508233793C6
:100BFC0033A9184802F0ECFB1748184B036041234B
:100C0C0043608560C5604FF4806303614561856115
:100C1C00C5614FF440330362456200F0B3FD78B90F
:100C2C000D4BC4F880309C6300221146352000F037
:100C3C0027FB352000F034FB95E7FFF71EFE9DE700
:100C4C00FFF71BFEECE700BF0050004000440258C9
:100C5C0000040258000C0258180200241000024034
:100C6C00DFF838D0FFF728FFFFF7BEFE0C480D4920
:100C7C000D4A002302E0D458C4500433C4188C42EB
:100C8C00F9D30A4A0A4C002301E013600432A24251
:100C9C00FBD306F0D9FBFFF747FE70470000052495
:100CAC00000000245C010024E07600085C010024B4
:100CBC00202F0024FEE730B58BB0044601F002056E
:100CCC000295CD08039502250495C1F38001059189
:100CDC000692079302A902F017F9002300932A4603
:100CEC002946204602F055F90BB030BD38B5044604
:100CFC000D4602F069F900220121204602F07EF92E
:100D0C0000221021204602F079F923681C4A9342F4
:100D1C0006D01C4A934213D01B4A934220D038BDB4
:100D2C001A4B1C605D6300231A4619462046FFF7D8
:100D3C00C2FF00231A460C212046FFF7BCFFEEE74A
:100D4C00134B1C605D6300231A4670212046FFF78D
:100D5C00B2FF00231A467C212046FFF7ACFFDEE7EA
:100D6C000C4B1C605D6300231A46E0212046FFF704
:100D7C00A2FF00231A46EC212046FFF79CFFCEE78A
:100D8C0000A0004000A4004000D4004094030024C4
:100D9C005C030024240300245E4B1B78002B00F022
:100DAC00B88010B5044603685B4A93422AD05B4A6C
:100DBC00934236D05A4A934242D05A4A93424ED02A
:100DCC00594A93425AD0594A934266D0584A934250
:100DDC0072D0584A93427ED0574A934200F08A8090
:100DEC00564A93421CD1564BD3F808340BB1554894
:100DFC0098475349B1F8042401F50171204605F0D8
:100E0C0035FA0DE0504BD3F808340BB14F489847E6
:100E1C004D49B1F8042401F50171204605F026FA7C
:100E2C0010BD4B4BD3F808340BB14A48984748498E
:100E3C00B1F8042401F50171204605F017FAEFE72B
:100E4C00454BD3F808340BB1444898474249B1F8A4
:100E5C00042401F50171204605F008FAE0E7404B47
:100E6C00D3F808340BB13F4898473D49B1F80424F6
:100E7C0001F50171204605F0F9F9D1E73A4BD3F8A9
:100E8C0008340BB1394898473749B1F8042401F5B7
:100E9C000171204605F0EAF9C2E7354BD3F8083466
:100EAC000BB1344898473249B1F8042401F501716B
:100EBC00204605F0DBF9B3E72F4BD3F808340BB120
:100ECC002E4898472C49B1F8042401F501712046AD
:100EDC0005F0CCF9A4E72A4BD3F808340BB1294818
:100EEC0098472749B1F8042401F50171204605F013
:100EFC00BDF995E7244BD3F808340BB12348984738
:100F0C002149B1F8042401F50171204605F0AEF930
:100F1C0086E77047442C0024001001400044004038
:100F2C0000480040004C00400050004000140140BC
:100F3C0000780040007C004000180140001C01407B
:100F4C00CC030024D0050024382800243C2A00249B
:100F5C002C240024302600242020002424220024C9
:100F6C00141C0024181E0024081800240C1A002439
:100F7C00FC13002400160024F00F0024F4110024AC
:100F8C00E40B0024E80D0024D8070024DC0900241D
:100F9C0010B504460368424A93422DD0414A93420D
:100FAC0032D0414A934237D0404A93423CD0404AD7
:100FBC00934241D03F4A934246D03F4A93424BD052
:100FCC003E4A934250D03E4A934255D03D4A9342BA
:100FDC0019D13D4BD3F808342BB13B48B0F804146D
:100FEC0000F5017098473849B1F8042401F50171F6
:100FFC00204605F03BF906E03449B1F8042401F52C
:10100C00017105F033F910BD3149B1F8042401F533
:10101C00017105F02BF9F6E72E49B1F8042401F51E
:10102C00017105F023F9EEE72B49B1F8042401F521
:10103C00017105F01BF9E6E72849B1F8042401F524
:10104C00017105F013F9DEE72549B1F8042401F527
:10105C00017105F00BF9D6E72249B1F8042401F52A
:10106C00017105F003F9CEE71F49B1F8042401F52D
:10107C00017105F0FBF8C6E71C4BD3F808342BB113
:10108C001A48B0F8041400F5017098471749B1F8E4
:10109C00042401F50171204605F0E8F8B3E700BF20
:1010AC00001001400044004000480040004C00404B
:1010BC00005000400014014000780040007C0040CB
:1010CC0000180140001C0140CC03002438280024E7
:1010DC002C24002420200024141C00240818002494
:1010EC00FC130024F00F0024E40B0024D807002488
:1010FC0008B500210348FFF7F9FD034B01221A70D4
:10110C0008BD00BF78010024442C0024104B1B7830
:10111C000BB90120704710B504464FF47A70B0FB40
:10112C00F3F30C4A1068B0FBF3F000F0BDF868B9AB
:10113C000F2C01D901200AE0002221464FF0FF308C
:10114C0000F09EF8044B1C60002000E0012010BD54
:10115C0008000024040000240C00002410B5032017
:10116C0000F07CF802F05AFD0F498B69C3F303239E
:10117C000E4AD35C03F01F03D8408B6903F00F03B6
:10118C00D35C03F01F0320FA03F3094A1360094BE5
:10119C0018600F20FFF7BAFF10B10124204610BDD4
:1011AC000446FFF7D3FBF9E700440258D875000852
:1011BC000000002404000024034B1B78034A116830
:1011CC000B441360704700BF08000024482C002417
:1011DC00014B1868704700BF482C0024002807DB1F
:1011EC0000F01F02400901239340024A42F82030CC
:1011FC00704700BF00E100E0002804DB0901C9B220
:10120C00044B1954704700F00F000901C9B2024B8E
:10121C001954704700E400E014ED00E000B500F054
:10122C000700C0F1070CBCF1040F28BF4FF0040CF1
:10123C00031D062B0FD9C31E4FF0FF3E0EFA0CF008
:10124C0021EA000199400EFA03FE22EA0E0241EA5D
:10125C0002005DF804FB0023EEE700000649CB68B2
:10126C0023F4E0631B041B0C000200F4E060034356
:10127C00024A1A43CA60704700ED00E00000FA050C
:10128C0010B50446054BD868C0F30220FFF7C6FF23
:10129C0001462046FFF7B0FF10BD00BF00ED00E097
:1012AC0008B5FFF79BFF08BD0138B0F1807F0BD26A
:1012BC004FF0E0235861054AF02182F823100020FA
:1012CC00986107221A6170470120704700ED00E019
:1012DC00BFF35F8F044B5A6A22F480325A620022A9
:1012EC00C3F89420704700BF00ED00E040F001000F
:1012FC00054BC3F894005A6A42F480325A62BFF329
:10130C004F8FBFF36F8F704700ED00E04378144AA6
:10131C00C2F89830D2F8A03023F00103C2F8A03004
:10132C004368C2F89C30017BC37A1B0643EA017305
:10133C00817A43EAC143417B43EA8143817B43EA9F
:10134C004143C17B43EA0143417A43EA0123017AD9
:10135C0043EA410301780B43C2F8A030704700BF49
:10136C0000ED00E0F0B4876D0468664E664DAC424B
:10137C0018BFB44242D01835AC423FD01835AC42FD
:10138C003CD01835AC4239D01835AC4236D0183573
:10139C00AC4233D01835AC4230D005F55675AC4262
:1013AC002CD01835AC4229D01835AC4226D0183583
:1013BC00AC4223D01835AC4220D01835AC421DD0ED
:1013CC001835AC421AD01835AC4217D04F4DAC4240
:1013DC0014D01435AC4211D01435AC420ED01435A7
:1013EC00AC420BD01435AC4208D01435AC4205D00D
:1013FC001435AC4202D01435AC4207D1446E856E24
:10140C006560C46E14B1046F456F656004683D4E31
:10141C003D4DAC4218BFB44252D01835AC424FD0FF
:10142C001835AC424CD01835AC4249D01835AC42CA
:10143C0046D01835AC4243D01835AC4240D005F5F7
:10144C005675AC423CD01835AC4239D01835AC424C
:10145C0036D01835AC4233D01835AC4230D01835B4
:10146C00AC422DD01835AC422AD01835AC4227D01E
:10147C00264E274DAC4218BFB44211D0254DAC427C
:10148C000ED01435AC420BD01435AC4208D0143508
:10149C00AC4205D01435AC4202D01435AC4224D148
:1014AC00C46D04F01F050124AC407C6004686360CB
:1014BC008368402B20D0036899600368DA6014E0DD
:1014CC00C46D04F01F0C3F2404FA0CF4BC600568D6
:1014DC002C6824F480242C60046863608368402B9F
:1014EC0005D0036899600368DA60F0BC7047036844
:1014FC009A600368D960F8E703689A600368D9605A
:10150C00F3E700BF100002402800024008540258C4
:10151C001C5402583054025803682749274A9342F6
:10152C0018BF8B422FD0183293422CD018329342D2
:10153C0029D01832934226D01832934223D0183235
:10154C00934220D0183293421DD002F5567293422A
:10155C0019D01832934216D01832934213D0183245
:10156C00934210D0183293420DD0183293420AD0C5
:10157C001832934207D01832934204D023F0FF0361
:10158C008365806D704710B4D9B210390C4AA2FB38
:10159C000142C2F302120B4CA25CC2655F2907D94F
:1015AC006FF3090304338365806D5DF8044B70475A
:1015BC006FF309038365F7E710000240280002402F
:1015CC00ABAAAAAAE875000883699BB9836A012BA8
:1015DC000AD0022B02D00BB100207047C36A13F063
:1015EC00807F2AD100207047C36AB3F1C07F26D018
:1015FC0000207047B3F5005F0AD0836A022B26D90E
:10160C00032B26D1C36A13F0807F24D100207047AE
:10161C00836A032B03D8DFE803F01404140A0020B8
:10162C007047C36A13F0807F0DD100207047C36AE6
:10163C00B3F1C07F09D00020704701207047012012
:10164C00704701207047012070470120704701202E
:10165C007047002070470120704700000368214943
:10166C00214A934218BF8B4227D01432934224D084
:10167C001432934221D0143293421ED0143293422E
:10168C001BD01432934218D01432934215D0DAB2D4
:10169C00103A1649A1FB0212120915491944A8293E
:1016AC001ED9144B13449B000366134B436602F084
:1016BC001F020123934083667047DBB2083B0F4A3D
:1016CC00A2FB03230E4A02EB1312920002660D4A90
:1016DC004266C3F30413012202FA03F383667047D4
:1016EC000832DEE7085402581C540258ABAAAAAAC6
:1016FC00F0FBFDBF0082001080080240CDCCCCCCAA
:10170C00009600168058025801794A1E072A2BD8D9
:10171C0030B40368154D164CA34218BFAB4218D019
:10172C001434A34215D01434A34212D01434A3425F
:10173C000FD01434A3420CD01434A34209D0143467
:10174C00A34206D00B4B0B449B00C3660A4B0367AA
:10175C0005E00A4B0B449B00C366094B036701234E
:10176C009340436730BC7047704700BF0854025821
:10177C001C5402583F820010400902403F9600164C
:10178C004059025870B50446FFF722FD002C00F0BA
:10179C00B781054623685349534A934218BF8B427D
:1017AC000CBF0121002150D0183293424DD0183279
:1017BC0093424AD01832934247D01832934244D0C5
:1017CC001832934241D0183293423ED002F55672F1
:1017DC0093423AD01832934237D01832934234D0D5
:1017EC001832934231D0183293422ED01832934291
:1017FC002BD01832934228D01832934225D03B4933
:10180C003B4A934218BF8B4200F03281394A9342D3
:10181C0000F02E811432934200F02A81143293424C
:10182C0000F026811432934200F02281143293424C
:10183C0000F01E811432934200F01A81402363653C
:10184C00032384F8353001204AE0022284F8352045
:10185C00002284F8342079BB274A93422CD01832CA
:10186C00934229D01832934226D01832934223D077
:10187C001832934220D0183293421DD002F5567282
:10188C00934219D01832934216D01832934213D087
:10189C001832934210D0183293420DD01832934222
:1018AC000AD01832934207D01832934204D01A68E7
:1018BC0022F001021A6003E01A6822F001021A6099
:1018CC0023681A6812F0010F18D0FFF781FC431B34
:1018DC00052BF5D920236365032384F835300120CB
:1018EC0070BD00BF1000024028000240085402588E
:1018FC001C54025830540258400002401A68814966
:10190C001140A268E0680243206902436069024307
:10191C00A0690243E0690243206A02430A43616AF8
:10192C00042900F090806168522900F296803F29CA
:10193C00C0F08E803F39744820FA01F111F0010F8C
:10194C0001D042F480121A602668756925F00705EB
:10195C00636A1D43042B08D1A36A1D43E36A23B1B8
:10196C002046FFF731FE00287CD175612046FFF739
:10197C00D3FDE36D03F01F023F2393408360236884
:10198C006249634A934218BF8B4242D01832934249
:10199C003FD0183293423CD01832934239D018328F
:1019AC00934236D01832934233D01832934230D00F
:1019BC0002F5567293422CD01832934229D0183229
:1019CC00934226D01832934223D01832934220D01F
:1019DC00183293421DD0183293421AD018329342C7
:1019EC0017D04C4A934214D01432934211D0143273
:1019FC0093420ED0143293420BD01432934208D03F
:101A0C001432934205D01432934202D014329342D2
:101A1C0013D12046FFF722FEA368802B63D0236EE0
:101A2C0022791A60636EA26E5A606368013B072BC1
:101A3C005CD90023E366236763670020606501239C
:101A4C0084F835304CE7E16A206B01430A436AE7BE
:101A5C00293905293FF677AF73E7743903293FF627
:101A6C0072AF6EE740236365012084F8350037E7D9
:101A7C00022284F83520002284F8342019686FF390
:101A8C001011A268402A2CD0802A27D00022E068AE
:101A9C0042EAD002206942EAD002606942EAD002EE
:101AAC00A06942EAD002E06942EAD002206A42EA26
:101ABC0010120A431A602268174B1344174AA2FBF0
:101ACC0003231B099B00E3652046FFF725FDE26D10
:101ADC0002F01F0101228A40426050E74FF480421D
:101AEC00D5E71022D3E70023636098E72046FFF781
:101AFC000BFEE36E00221A60236F626F5A609CE744
:101B0C000120EDE63F8010FE0F030F001000024095
:101B1C002800024008540258F8ABFDA7CDCCCCCC21
:101B2C00002800F03E8170B5044690F8340001287E
:101B3C0000F03981012084F8340094F83500C0B2EB
:101B4C00012807D04FF400636365002384F8343018
:101B5C00012070BD022084F83500002060652068EB
:101B6C00924E934DA84218BFB0422FD01835A842C0
:101B7C002CD01835A84229D01835A84226D01835B3
:101B8C00A84223D01835A84220D01835A8421DD021
:101B9C0005F55675A84219D01835A84216D0183537
:101BAC00A84213D01835A84210D01835A8420DD031
:101BBC001835A8420AD01835A84207D01835A842C3
:101BCC0004D0056825F00105056003E0056825F0E3
:101BDC00010505602046FFF7C5FB23687349744A6D
:101BEC00934218BF8B4238D01832934235D01832FA
:101BFC00934232D0183293422FD0183293422CD0C9
:101C0C001832934229D01832934226D002F55672DC
:101C1C00934222D0183293421FD0183293421CD0D8
:101C2C001832934219D01832934216D0183293427C
:101C3C0013D01832934210D0183293420DD01A6838
:101C4C0022F00E0242F00A021A60236C93B1226851
:101C5C00136843F0040313600CE01A6822F01E02B0
:101C6C0042F016021A60236C23B12268136843F009
:101C7C000803136023684D494D4A934218BF8B42A9
:101C8C0042D0183293423FD0183293423CD0183293
:101C9C00934239D01832934236D01832934233D013
:101CAC001832934230D002F5567293422CD018322F
:101CBC00934229D01832934226D01832934223D023
:101CCC001832934220D0183293421DD018329342CE
:101CDC001AD01832934217D0364A934214D0143289
:101CEC00934211D0143293420ED0143293420BD043
:101CFC001432934208D01432934205D014329342DA
:101D0C0002D0143293420ED1236E1A6812F4803F23
:101D1C0003D01A6842F480721A60E36E1BB11A6821
:101D2C0042F480721A6023682049214A934218BFFA
:101D3C008B4230D0183293422DD0183293422AD095
:101D4C001832934227D01832934224D0183293423F
:101D5C0021D0183293421ED002F5567293421AD0FB
:101D6C001832934217D01832934214D0183293423F
:101D7C0011D0183293420ED0183293420BD0183235
:101D8C00934208D01832934205D01A6842F00102EF
:101D9C001A600020DDE61A6842F001021A60002089
:101DAC00D7E6012070470220D3E600BF10000240A6
:101DBC00280002400854025870B50446FFF708FA90
:101DCC00002C00F09181054694F83530DBB2022BE3
:101DDC0006D080236365002384F83430012070BD65
:101DEC0023688C498C4A934218BF8B4230D01832EE
:101DFC0093422DD0183293422AD01832934227D0D6
:101E0C001832934224D01832934221D01832934284
:101E1C001ED002F5567293421AD01832934217D044
:101E2C001832934214D01832934211D01832934284
:101E3C000ED0183293420BD01832934208D018327D
:101E4C00934205D01A6822F00E021A60266809E047
:101E5C001A6822F01E021A602268536923F080036C
:101E6C005361266823686B496B4A934218BF8B42B7
:101E7C0042D0183293423FD0183293423CD01832A1
:101E8C00934239D01832934236D01832934233D021
:101E9C001832934230D002F5567293422CD018323D
:101EAC00934229D01832934226D01832934223D031
:101EBC001832934220D0183293421DD018329342DC
:101ECC001AD01832934217D0544A934214D0143279
:101EDC00934211D0143293420ED0143293420BD051
:101EEC001432934208D01432934205D014329342E8
:101EFC0002D01432934204D1226E136823F48073FF
:101F0C00136023684349444A934218BF8B422FD035
:101F1C00183293422CD01832934229D01832934263
:101F2C0026D01832934223D01832934220D0183244
:101F3C0093421DD002F55672934219D01832934237
:101F4C0016D01832934213D01832934210D0183254
:101F5C0093420DD0183293420AD01832934207D0D4
:101F6C001832934204D01A6822F001021A6003E07E
:101F7C001A6822F001021A60336813F0010F0ED0B8
:101F8C00FFF726F9431B052BF6D9202363650323A2
:101F9C0084F83530002384F8343001201FE723689F
:101FAC001C491D4A934218BF8B4239D018329342B8
:101FBC0036D01832934233D01832934230D0183284
:101FCC0093422DD0183293422AD01832934227D004
:101FDC0002F55672934223D01832934220D0183215
:101FEC0093421DD0183293421AD01832934217D014
:101FFC001832934214D01832934211D018329342B3
:10200C000ED0A16DE36D03F01F02012393404B60D2
:10201C000DE000BF10000240280002400854025896
:10202C00A16DE36D03F01F023F2393408B60236887
:10203C002E492F4A934218BF8B4242D018329342FA
:10204C003FD0183293423CD01832934239D01832D8
:10205C00934236D01832934233D01832934230D058
:10206C0002F5567293422CD01832934229D0183272
:10207C00934226D01832934223D01832934220D068
:10208C00183293421DD0183293421AD01832934210
:10209C0017D0184A934214D01432934211D01432F0
:1020AC0093420ED0143293420BD01432934208D088
:1020BC001432934205D01432934202D0143293421C
:1020CC000BD1636EA26E5A60E36E33B11A6822F4C0
:1020DC0080721A60236F626F5A60012384F8353066
:1020EC00002084F834007AE6012078E610000240E3
:1020FC002800024008540258002800F0288108B536
:10210C00024690F83530DBB2022B03D080234365B6
:10211C00012008BD0368904890498B4218BF834248
:10212C000CBF0120002065D018318B4262D01831D1
:10213C008B425FD018318B425CD018318B4259D016
:10214C0018318B4256D018318B4253D001F5567151
:10215C008B424FD018318B424CD018318B4249D026
:10216C0018318B4246D018318B4243D018318B42F8
:10217C0040D018318B423DD018318B423AD019687F
:10218C0021F00E0119601368734874498B4218BF13
:10219C0083426AD072498B4267D018318B4264D02B
:1021AC0018318B4261D018318B425ED018318B4282
:1021BC005BD018318B4258D001F556718B4254D0FC
:1021CC0018318B4251D018318B424ED018318B4282
:1021DC004BD018318B4248D018318B4245D0183136
:1021EC008B4242D018318B423FD0196821F001014B
:1021FC0019603EE0042182F8351080BB584A9342A6
:10220C002DD0183293422AD01832934227D018324C
:10221C00934224D01832934221D0183293421ED0CC
:10222C0002F5567293421AD01832934217D01832D4
:10223C00934214D01832934211D0183293420ED0DC
:10224C00183293420BD01832934208D01832934272
:10225C0005D01A6822F001021A60002059E71A68AA
:10226C0022F001021A60002053E7196821F00101E5
:10227C0019601368384839498B4218BF834242D0E1
:10228C0018318B423FD018318B423CD018318B42E5
:10229C0039D018318B4236D018318B4233D01831AB
:1022AC008B4230D001F556718B422CD018318B42B9
:1022BC0029D018318B4226D018318B4223D01831BB
:1022CC008B4220D018318B421DD018318B421AD042
:1022DC0018318B4217D023498B4214D014318B42C6
:1022EC0011D014318B420ED014318B420BD01431DF
:1022FC008B4208D014318B4205D014318B4202D062
:10230C0014318B4217D1116E0B6823F480730B6060
:10231C00906DD36D03F01F0101238B404360536E0E
:10232C00916E5960D36E33B1196821F480711960C4
:10233C00136F516F5960012382F83530002382F8F6
:10234C003430136D2BB1104698470020E1E6012084
:10235C0070470020DDE600BF10000240280002405C
:10236C004000024008540258F0B583B004460023E4
:10237C0001937D4B1D687D4BA3FB0535AD0A876D25
:10238C003E68D7F800C0036879497A48834218BF81
:10239C008B420CBF0120002061D0774A93425ED063
:1023AC00183293425BD01832934258D01832934271
:1023BC0055D01832934252D0183293424FD002F576
:1023CC00567293424BD01832934248D018329342F3
:1023DC0045D01832934242D0183293423FD0183233
:1023EC0093423CD01832934239D01832934236D0B3
:1023FC006249634A934218BF8B4212D0614A93429E
:10240C000FD0143293420CD01432934209D01432B0
:10241C00934206D01432934203D01432934240F0CC
:10242C0061821A68E16D01F01F010420884010EAF6
:10243C000C0F00F0A78212F0040F00F0A38278605A
:10244C0012F4004F00F05A8212F4803F40F0508298
:10245C00A36C002B00F046822046984742E2E26DC6
:10246C0002F01F0108228A40324241D070BB424A1E
:10247C0093422BD01832934228D01832934225D055
:10248C001832934222D0183293421FD01832934202
:10249C001CD002F55672934218D01832934215D0C4
:1024AC001832934212D0183293420FD01832934202
:1024BC000CD01832934209D01832934206D01832FD
:1024CC00934203D01A68C2F3C00202E01A68C2F346
:1024DC0080026AB11A6822F004021A60E36D03F0FC
:1024EC001F0208239340BB60636D43F001036365D7
:1024FC00E26D02F01F0226FA02F313F0010F47D02F
:10250C0023681B481B498B4218BF83423CD01831AF
:10251C008B4239D018318B4236D018318B4233D0A4
:10252C0018318B4230D018318B422DD018318B4260
:10253C002AD001F556718B4226D018318B4223D00C
:10254C0018318B4220D018318B421DD018318B4260
:10255C001AD018318B4217D018318B4214D0183145
:10256C008B4211D01B6813E004000024B5814E1B74
:10257C00100002402800024040000240085402585B
:10258C001C540258305402585B6913F0800F3BD135
:10259C00E36D03F01F03042202FA03F333423FD02E
:1025AC002268964896498A4218BF824234D0183124
:1025BC008A4231D018318A422ED018318A422BD01F
:1025CC0018318A4228D018318A4225D018318A42D3
:1025DC0022D001F556718A421ED018318A421BD086
:1025EC0018318A4218D018318A4215D018318A42D3
:1025FC0012D018318A420FD018318A420CD01831BF
:10260C008A4209D013680BE001239340BB60636DD1
:10261C0043F002036365BBE7126812F0020F3DD171
:10262C00E36D03F01F03102202FA03F333425FD071
:10263C002268724872498A4218BF824234D01831DB
:10264C008A4231D018318A422ED018318A422BD08E
:10265C0018318A4228D018318A4225D018318A4242
:10266C0022D001F556718A421ED018318A421BD0F5
:10267C0018318A4218D018318A4215D018318A4242
:10268C0012D018318A420FD018318A420CD018312E
:10269C008A4209D01268C2F3800208E0BB60636D05
:1026AC0043F004036365BBE71268C2F3C002FAB1DE
:1026BC00BB6023681A6812F4802F0DD01B6813F4CA
:1026CC00002F04D1236C9BB12046984710E0A36CDB
:1026DC0073B1204698470BE01A6812F4807F03D13F
:1026EC001A6822F008021A60236C0BB12046984736
:1026FC00E36D03F01F03202202FA03F3334200F0D0
:10270C00938022683D483E498A4218BF82422ED0AF
:10271C0018318A422BD018318A4228D018318A427B
:10272C0025D018318A4222D018318A421FD0183154
:10273C008A421CD001F556718A4218D018318A424F
:10274C0015D018318A4212D018318A420FD0183164
:10275C008A420CD018318A4209D018318A4206D0EC
:10276C0018318A4203D01268C2F3400202E01268A8
:10277C00C2F30012002A57D0BB6094F83530DBB29C
:10278C00042B0ED023681A6812F4802F3AD01B68E1
:10279C0013F4002F2DD1636C002B45D020469847A5
:1027AC0042E02268136823F0160313602268536911
:1027BC0023F080035361236CBBB12268136823F0B0
:1027CC0008031360E36D03F01F023F239340BB60CB
:1027DC00012384F83530002384F83430236D002B2A
:1027EC0000F08080204698477CE0A36C002BE4D15D
:1027FC00E8E7E36BC3B12046984715E010000240B0
:10280C00280002401A6812F4807F09D11A6822F05D
:10281C0010021A60012384F83530002384F8343018
:10282C00E36B0BB120469847636D002B5AD0636D58
:10283C0013F0010F52D0042384F8353023689649E5
:10284C00964A934218BF8B422FD0183293422CD009
:10285C001832934229D01832934226D01832934220
:10286C0023D01832934220D0183293421DD002F557
:10287C005672934219D01832934216D018329342A2
:10288C0013D01832934210D0183293420DD0183214
:10289C0093420AD01832934207D01832934204D094
:1028AC001A6822F001021A6003E01A6822F0010291
:1028BC001A60019B01330193AB4204D823681B6857
:1028CC0013F0010FF5D123681B6813F0010F0BD027
:1028DC00032384F83530002384F83430E36C0BB1D7
:1028EC002046984703B0F0BD012384F83530F2E759
:1028FC00236C002BF6D020469847F3E712F0200FFC
:10290C003AD123686449654A934218BF8B422FD051
:10291C00183293422CD01832934229D01832934259
:10292C0026D01832934223D01832934220D018323A
:10293C0093421DD002F55672934219D0183293422D
:10294C0016D01832934213D01832934210D018324A
:10295C0093420DD0183293420AD01832934207D0CA
:10296C001832934204D01A6822F004021A6003E071
:10297C001A6822F008021A60236C002BB2D0204691
:10298C009847AFE70220884010EA0C0F60D012F095
:10299C00020F5DD0786012F4004F0ED012F4803F1D
:1029AC0005D1636C002B9DD0204698479AE7E36BCA
:1029BC00002B97D02046984794E712F0200F40D177
:1029CC0023683549354A934218BF8B422FD01832B1
:1029DC0093422CD01832934229D01832934226D0ED
:1029EC001832934223D01832934220D0183293429B
:1029FC001DD002F55672934219D01832934216D05C
:102A0C001832934213D01832934210D0183293429A
:102A1C000DD0183293420AD01832934207D0183294
:102A2C00934204D01A6822F00A021A6003E01A6872
:102A3C0022F014021A60012384F83530002384F844
:102A4C003430E36B002B3FF44DAF2046984749E7F9
:102A5C00082000FA01F111EA0C0F3FF443AF12F019
:102A6C00080F3FF43FAF1A6822F00E021A60E36DB4
:102A7C0003F01F03012202FA03F37B60626584F802
:102A8C003520002384F83430E36C002B3FF42AAF5C
:102A9C002046984726E700BF10000240280002405D
:102AAC0030B4416B0468D4F884306F4A134043EA65
:102ABC008103C4F884300468D4F8843023F47F0391
:102ACC00856B43EA0543C4F88430836B0B4404687C
:102ADC00D4F88810114041EA8301C4F888100468C6
:102AEC00D4F8881021F4FE01C56B41EA0541C4F805
:102AFC008810C16B03EB41030468D4F8A01011409B
:102B0C0041EA8301C4F8A0100468D4F8A01021F4A1
:102B1C00FE01056C41EA0541C4F8A010016C446C3F
:102B2C0004FB01330468D4F8B010114041EA83016E
:102B3C00C4F8B0100468D4F8B01021F4FE01856C10
:102B4C0041EA0541C4F8B010816CC46C04FB01333C
:102B5C000468D4F8AC10114041EA8301C4F8AC10FD
:102B6C00016D446D04FB01330468D4F8F01011407E
:102B7C0041EA8301C4F8F0100468D4F8F01021F491
:102B8C007C11856D41EA0541C4F8F010816D03EBB1
:102B9C0041030468D4F8C0100A4042EA8303C4F825
:102BAC00C0300268D2F8C03023F47C13C16D43EA04
:102BBC000143C2F8C0300268D2F8C03023F07C5315
:102BCC00016E43EA0163C2F8C030436B274A1A44D2
:102BDC009200C266836B02EB83030367C16B03EB4A
:102BEC00C1034367016C446C04FB01F103EB8103EB
:102BFC008367816CC46C04FB01F103EB8103C36735
:102C0C00016D446D04FB01F103EB8103C0F88030CE
:102C1C00816D03EBC103C0F88430816EC46D01FB80
:102C2C0004FC03EB8C03C0F88830046E04FB01F148
:102C3C0003EB8103C0F890300D498B420DD9D0F8CD
:102C4C009C3043F02003C0F89C30032380F898306C
:102C5C00012007E0002342F8043BD0F89030934267
:102C6C00F8D8002030BC70470300FFFF002B001089
:102C7C00FCD3004030B595B004464C22A04901A8C5
:102C8C00FDF70EFC002C00F0388123689D4A93421E
:102C9C0020D094F898300BB32268936923F010037A
:102CAC009361FEF795FA054623689A6912F0080FAE
:102CBC001AD0FEF78DFA431B0A2BF5D9D4F89C30A9
:102CCC0043F00103C4F89C30032384F898300120AE
:102CDC0015B030BD03F580736360DAE784F8993082
:102CEC002046FDF70BFDD7E79A6942F001029A6185
:102CFC00FEF76EFA054623689A6912F0010F0FD1A0
:102D0C00FEF766FA401B0A28F5D9D4F89C3043F03C
:102D1C000103C4F89C30032384F898300120D7E7D2
:102D2C009A6942F002029A61237C012B40D02268FE
:102D3C00936943F040039361637C012B3ED022687E
:102D4C00936923F480439361A37C012B3CD02268CC
:102D5C00936943F4805393612268936923F440731D
:102D6C00A1680B4393612268936923F0A4039361D8
:102D7C002268136923F010031361E368012B29D037
:102D8C00002B2CD0022B00F09B802268936943F01F
:102D9C00800393612268136943F010031361E368A5
:102DAC00032B1CD12268936943F02003936116E036
:102DBC002268936923F040039361BDE7226893690D
:102DCC0043F480439361BFE72268936923F48053F3
:102DDC009361C1E72268936943F004039361A3698B
:102DEC005A1EE369013B1B0243EA4263226A013A21
:102DFC0013436269013A216843EA0243CB61A36839
:102E0C00B3F5407F62D0236E33B12268D2F8C03064
:102E1C00616E0B43C2F8C030E36D226ED3420DD00D
:102E2C002168D1F8C83023F00703A26E14A800EB78
:102E3C00820252F84C2C1343C1F8C830236C6BB18E
:102E4C002168D1F8BC3023F00703626C14A800EBA6
:102E5C00820252F84C2C1343C1F8BC30A36C73B1F2
:102E6C002168D1F8BC3023F07003E26C14A800EB9D
:102E7C00820252F84C2C43EA0213C1F8BC30236D89
:102E8C0073B12168D1F8BC3023F4E063626D14A8EF
:102E9C0000EB820252F84C2C43EA0223C1F8BC30FE
:102EAC002268184B9A4222D00023C4F89430C4F8FC
:102EBC009C30012384F898302046FFF7F1FD07E79A
:102ECC002268936943F02003936188E7A36A013B6E
:102EDC00E26A013A43EA0223226B013A43EA021303
:102EEC00626A013A216843EA0243CB608BE762686D
:102EFC00936823F003039360D6E70120E8E600BF54
:102F0C008C75000800A0004090F89830013BDBB2B3
:102F1C00012B07D9D0F89C3043F00203C0F89C3049
:102F2C00012070470B68DBB9CB68072B0ED08A6881
:102F3C00DB0643EA82730A6943EA02434A69134394
:102F4C00C26E496842F82130002070470A69CB698B
:102F5C001B0243EA02438A69134343F06053EFE7D1
:102F6C0010B4CA680B6943EA4273072A0FD04A6946
:102F7C008C6842EA8472006F496800EBC10C40F81F
:102F8C003130CCF8042000205DF8044B70478A697E
:102F9C00F1E790F898C05FFA8CFCBCF1010F07D0F8
:102FAC00D0F89C3043F00403C0F89C3001207047EB
:102FBC00920042EA011242EA43030168009A1A4362
:102FCC00C1F880200020704790F89830DBB2012BBC
:102FDC0007D0D0F89C3043F00403C0F89C3001209B
:102FEC007047022380F898300268936923F001033C
:102FFC0093610023C0F89C301846704790F89830C5
:10300C00013BDBB2012B07D9D0F89C3043F0020313
:10301C00C0F89C300120704710B403689C6D0C42C2
:10302C0024D1DC6D44F00104DC6511F4007F05D083
:10303C000468D4F8E0301343C4F8E03011F4806F26
:10304C0005D00468D4F8E4301343C4F8E4300068C5
:10305C00436D0C4A0A40134343650B4A536943EAD8
:10306C009173536100205DF8044B70479C6D31EAFD
:10307C00040402D00324DC65D7E7DC6D44F00204C1
:10308C00DC65D2E7FFFFCF3F00A8004070477047D8
:10309C00704770477047704770477047704770476C
:1030AC007047704770477047704770477047000013
:1030BC002DE9F04F83B00446904B1A695B691340BD
:1030CC0001939B07009303681A6D02F4704A5A6DC2
:1030DC000AEA020A1A6D02F00F095A6D09EA02098E
:1030EC001A6D02F0F0085A6D08EA02081E6D06F01F
:1030FC0071565A6D16401F6D07F060775A6D174068
:10310C005D6DD3F850B015F4807F02D01BF4807F36
:10311C0064D115F4806F02D01BF4806F67D1009BD3
:10312C00002B74D1BAF1000F7ED1B9F1000F40F031
:10313C008780B8F1000F40F08F8015F4006F03D03A
:10314C001BF4006F40F0948015F4007F03D01BF447
:10315C00007F40F0988015F4002F03D01BF4002F53
:10316C0040F0A18015F4803F03D01BF4803F40F069
:10317C00A58015F4802F03D01BF4802F40F0A9807C
:10318C0015F4003F0FD01BF4003F0CD023684FF414
:10319C0000321A65594B00221A61D4F89C3043F066
:1031AC008003C4F89C30002F40F09E804EB1236801
:1031BC001E65B20F514B1A61D4F89C303343C4F8DE
:1031CC009C3022684E4B9A4200F09C80D4F89C3084
:1031DC00002B40F0F98003B0BDE8F08F4FF4807203
:1031EC001A65464B00221A61FFF75AFF91E72368D4
:1031FC00D3F8DC10D3F8E4204FF4806018653F4B13
:10320C000020186111402046FFF746FF87E723682E
:10321C0000221A65019B03F00303384A13610099DD
:10322C002046FFF733FF7DE72368C3F850A04FEA31
:10323C009A72324B1A6151462046FFF728FF74E709
:10324C002368C3F850904FEA99722C4B1A61494687
:10325C002046FFF71DFF6CE72368C3F850804FEA48
:10326C009872264B1A6141462046FFF712FF64E71D
:10327C0023684FF400621A65204B00221A61204625
:10328C00FFF708FF60E72368D3F8D810D3F8E020E5
:10329C004FF400701865194B00201861114020463E
:1032AC00FFF7F9FE57E723684FF400221A65134B1A
:1032BC0000221A612046FFF7F0FE53E723684FF413
:1032CC0080321A650D4B00221A612046FFF7E6FE8C
:1032DC004FE723684FF480221A65084B00221A61CD
:1032EC002046FFF7DCFE4BE723681F65BA0F034B44
:1032FC001A6139462046FFF7D5FE57E700A8004073
:10330C0000A0004063689A6812F0030F3FF45EAFB0
:10331C00196A01F00F015A6A186A00F03008586AED
:10332C0008EA00081F6A07F4C077586A07401E6A4B
:10333C0006F4FC46586A06401D6A05F4F025586AE6
:10334C000540D3F82490D3F820A011401CD1B8F13B
:10335C00000F1ED119F0400F02D01AF0400F20D1EF
:10336C005FBB36B163681E62D4F89C303343C4F83B
:10337C009C30002D3FF42AAF63681D62D4F89C305A
:10338C002B43C4F89C3021E719622046FFF78BFED3
:10339C00DDE76368C3F8208041462046FFF784FED2
:1033AC00D8E76368D96BDA6B4020186202F03F02F1
:1033BC00090C2046FFF779FED2E763681F62394695
:1033CC002046FFF773FECCE72046FFF76AFE02E7C4
:1033DC00F0B583B000236BE085685E000324B44035
:1033EC0025EA0405CC68B4402C438460456825EA82
:1033FC000C054C68C4F300149C402C43446069E0F9
:10340C00DD08083550F8254003F0070C4FEA8C0C0A
:10341C004FF00F0E0EFA0CFE24EA0E0E0C6904FA95
:10342C000CF444EA0E0440F825406BE0092400E05B
:10343C00002404FA0EF42C430CF1020C664D45F8F2
:10344C002C404FF0B0442568D44325EA02064F685F
:10345C0017F4801F01D042EA05064FF0B0452E60EC
:10346C006D6804EA05064F6817F4001F01D042EAA4
:10347C0005064FF0B0456E60D5F8845004EA050699
:10348C004F6817F4003F01D042EA05064FF0B045F3
:10349C00C5F88460D5F880502C404E6816F4803FF7
:1034AC0001D042EA05044FF0B042C2F8804001332B
:1034BC000A6832FA03F400F08C804FF0010C0CFA1D
:1034CC0003FC1CEA0202F2D04C6804F00304013C39
:1034DC00012C81D94C6804F00304032C0CD0C46873
:1034EC005D004FF0030C0CFA05FC24EA0C0C8C6804
:1034FC00AC4044EA0C04C4604C6804F00304022C95
:10350C003FF47EAF04684FEA430E4FF0030C0CFA05
:10351C000EFC24EA0C0C4C6804F0030404FA0EF4C0
:10352C0044EA0C0404604C6814F4403FBFD02B4CAC
:10353C00D4F8F45045F00205C4F8F450D4F8F44033
:10354C0004F002040194019C4FEA930C0CF1020567
:10355C00214C54F8255003F0030E4FEA8E0E0F2425
:10356C0004FA0EF425EA04051D4CA0423FF460AFAA
:10357C0004F58064A0421ED004F58064A0421CD0E7
:10358C0004F58064A0421AD004F58064A04218D0DF
:10359C0004F58064A04216D004F58064A04214D0D7
:1035AC0004F58064A04212D004F50064A0423FF4FC
:1035BC003DAF0A243DE701243BE7022439E703240D
:1035CC0037E7042435E7052433E7062431E70724DD
:1035DC002FE703B0F0BD00BF0004005800440258B0
:1035EC0000000258134BDB6813F0040F07D1114B8A
:1035FC00DB6803F0070383421AD00120704710B533
:10360C000C4AD36823F007030343D360FDF7E0FDB6
:10361C000446084B5B6813F4005F07D1FDF7D8FD37
:10362C00001BB0F57A7FF4D9012000E0002010BD1A
:10363C000020704700480258002800F0D58238B5A9
:10364C000446036813F0010F25D0A04A136903F058
:10365C003803926A102B15D0182B0FD06368B3F572
:10366C00803F3FD0002B53D1984B1A6822F4803204
:10367C001A601A6822F480221A6038E002F0030201
:10368C00022AEBD1914B1B6813F4003F03D0636803
:10369C00002B00F0AB82236813F0020F00F088803F
:1036AC008A4A1369926A13F038035AD0182B55D0F2
:1036BC00E368002B00F0A98084490A6822F0190203
:1036CC0013430B60FDF784FD0546804B1B6813F01C
:1036DC00040F40F09180FDF77BFD401B0228F4D9CC
:1036EC0003208AE2794A136843F4803313606368D9
:1036FC002BB3FDF76DFD0546744B1B6813F4003FAF
:10370C00C9D1FDF765FD401B6428F5D9032074E28F
:10371C00B3F5A02F09D06D4B1A6822F480321A60D1
:10372C001A6822F480221A60E1E7684B1A6842F4A6
:10373C0080221A601A6842F480321A60D7E7FDF7CB
:10374C0047FD0546614B1B6813F4003FA3D0FDF702
:10375C003FFD401B6428F5D903204EE212F0030F05
:10376C00A6D15A4B1B6813F0040F03D0E368002B4F
:10377C0000F03E82554A136823F01903E1680B43AD
:10378C001360FDF725FD0546504B1B6813F0040F25
:10379C0006D1FDF71DFD401B0228F5D903202CE2B4
:1037AC004A4A536823F0FE43216943EA016353609C
:1037BC00236813F0100F51D0444A136903F03803F7
:1037CC00926A082B39D0182B33D0E369002B69D0BF
:1037DC003E4A136843F080031360FDF7F9FC05467D
:1037EC003A4B1B6813F4807F53D1FDF7F1FC401B5F
:1037FC000228F5D9032000E2344A536823F0FE4333
:10380C00216943EA01635360D2E7304A136823F01D
:10381C0001031360FDF7DCFC05462C4B1B6813F011
:10382C00040FC5D0FDF7D4FC401B0228F5D90320AA
:10383C00E3E102F00302012AC7D1244B1B6813F405
:10384C00807F03D0E369802B40F0D4811F4AD3687A
:10385C0023F07C53216A43EA0163D360236813F09D
:10386C00080F49D06369002B32D0184A536F43F0CC
:10387C0001035367FDF7ACFC0546144B5B6F13F06B
:10388C00020F39D1FDF7A4FC401B0228F5D9032007
:10389C00B3E10E4AD36823F07C53216A43EA0163F7
:1038AC00D360DBE7094A136823F080031360FDF74C
:1038BC008FFC0546054B1B6813F4807FCED0FDF7BB
:1038CC0087FC401B0228F5D9032096E100440258DE
:1038DC009D4A536F23F001035367FDF779FC0546AE
:1038EC00994B5B6F13F0020F06D0FDF771FC401B78
:1038FC000228F5D9032080E1236813F0200F29D08A
:10390C00A3699BB1904A136843F480531360FDF78D
:10391C005FFC05468C4B1B6813F4005F1AD1FDF756
:10392C0057FC401B0228F5D9032066E1864A136830
:10393C0023F480531360FDF74BFC0546824B1B6848
:10394C0013F4005F06D0FDF743FC401B0228F5D9A9
:10395C00032052E1236813F0040F21D1636A002B7A
:10396C0000F04A81784A126902F03802182A00F0F5
:10397C00F180022B75D0744A136823F080731360A6
:10398C00FDF726FC0446704B1B6813F0007F00F01B
:10399C00D880FDF71DFC001B0228F4D903202CE174
:1039AC006A4A136843F480731360FDF711FC0546F3
:1039BC00664B1B6813F4807F06D1FDF709FC401B96
:1039CC006428F5D9032018E1A368012B0AD00BBB9E
:1039DC005D4B1A6F22F001021A671A6F22F0040273
:1039EC001A6704E0584A136F43F001031367A36886
:1039FC0033B3FDF7EDFB0546534B1B6F13F0020F72
:103A0C00ACD1FDF7E5FB401B41F288339842F3D96A
:103A1C000320F2E0052B09D04B4B1A6F22F0010268
:103A2C001A671A6F22F004021A67E0E7464B1A6F06
:103A3C0042F004021A671A6F42F001021A67D6E7C5
:103A4C00FDF7C6FB0546404B1B6F13F0020F85D0EC
:103A5C00FDF7BEFB401B41F288339842F3D903209B
:103A6C00CBE0394A136823F080731360FDF7B0FB89
:103A7C000546354B1B6813F0007F06D0FDF7A8FBFD
:103A8C00401B0228F5D90320B7E02F4B996A304A26
:103A9C000A40A16AE06A41EA00110A439A62226B69
:103AAC00013AC2F30802616B0139490289B20A4337
:103ABC00A16B0139090401F4FE010A43E16B0139E0
:103ACC00090601F0FE410A431A63DA6A22F0010288
:103ADC00DA625A6B6FF3CF02A16C42EAC1025A63ED
:103AEC00DA6A22F00C02216C0A43DA62DA6A22F0FA
:103AFC000202616C0A43DA62DA6A42F48032DA62F8
:103B0C00DA6A42F40032DA62DA6A42F48022DA6269
:103B1C00DA6A42F00102DA621A6842F080721A60C4
:103B2C00FDF756FB0446084B1B6813F0007F06D1CB
:103B3C00FDF74EFB001B0228F5D903205DE00020A9
:103B4C005BE0002059E000BF0044025800480258D6
:103B5C000CFCFFFF30498A6A086B012B4ED002F037
:103B6C000303A16A8B424BD1C2F30512E36A9A425A
:103B7C0048D1C0F30802236B013B9A4244D1C0F3F5
:103B8C004622636B013B9A4240D1C0F30642A36BC1
:103B9C00013B9A423CD1C0F30660E36B013B984277
:103BAC0038D11D4B5B6BC3F3CC03A26C9A4201D191
:103BBC00002022E0184AD36A23F00103D362FDF7F8
:103BCC0007FB0546FDF704FBA842FBD0124A536BDA
:103BDC006FF3CF03A16C43EAC1035363D36A43F081
:103BEC000103D362002008E001207047012004E0AB
:103BFC00012002E0012000E0002038BD0120FCE79C
:103C0C000120FAE70120F8E70120F6E70120F4E7AC
:103C1C000120F2E70120F0E700440258754B1B69C4
:103C2C0003F03803102B00F0DE80182B0FD0002B84
:103C3C0040F0DB806F4B1B6813F0200F00F0D78037
:103C4C006C4B1B68C3F3C1036B48D840704710B46E
:103C5C00684B9A6A02F003029C6AC4F30510D96A95
:103C6C0001F001015B6BC3F3CC0301FB03F307EE23
:103C7C00903AF8EE677A14F47C7F77D0012A4AD018
:103C8C00022A76D0002A40F091805A4B1B6813F020
:103C9C00200F23D057490A68C2F3C102564BD340B8
:103CAC0007EE103AF8EE476A07EE100AB8EE476ACC
:103CBC0086EE867A0B6BC3F3080306EE903AF8EEA9
:103CCC00666A9FED4E6A67EE867A76EEA77AF7EE15
:103CDC00006A77EEA67A27EE277A38E007EE100A0C
:103CEC00F8EE476A9FED466A86EE267A414B1B6BCF
:103CFC00C3F3080306EE903AF8EE666A9FED3F6A4E
:103D0C0067EE867A76EEA77AF7EE006A77EEA67AF9
:103D1C0027EE277A1BE007EE100AF8EE476A9FEDB4
:103D2C00396A86EE267A334B1B6BC3F3080306EE17
:103D3C00903AF8EE666A9FED316A67EE867A76EE17
:103D4C00A77AF7EE006A77EEA67A27EE277A294B48
:103D5C001B6BC3F34623013307EE903AF8EE677AF8
:103D6C00C7EE276AFCEEE67A17EE900A5DF8044B74
:103D7C00704707EE100AF8EE476A9FED236A86EE4D
:103D8C00267A1C4B1B6BC3F3080306EE903AF8EE35
:103D9C00666A9FED1A6A67EE867A76EEA77AF7EE78
:103DAC00006A77EEA67A27EE277AD0E707EE100A9C
:103DBC00F8EE476A9FED136A86EE267A0D4B1B6B65
:103DCC00C3F3080306EE903AF8EE666A9FED0B6AB1
:103DDC0067EE867A76EEA77AF7EE006A77EEA67A29
:103DEC0027EE277AB3E7094870470948704702481D
:103DFC00704700BF004402580090D0030000003907
:103E0C000024744C0024744A001BB74B00366E011E
:103E1C0000093D00002800F0328170B50D460446C3
:103E2C009B4B1B6803F00F038B420BD2984A136811
:103E3C0023F00F030B431360136803F00F038B4243
:103E4C0040F01F81236813F0040F0CD02269914BB2
:103E5C009B6903F070039A4205D98E498B6923F054
:103E6C0070031A438A61236813F0080F0CD062693F
:103E7C00884BDB6903F070039A4205D98549CB69FD
:103E8C0023F070031A43CA61236813F0100F0CD08F
:103E9C00A269804BDB6903F4E0639A4205D97D4942
:103EAC00CB6923F4E0631A43CA61236813F0200F33
:103EBC000CD0E269774B1B6A03F070039A4205D968
:103ECC0074490B6A23F070031A430A62236813F0D7
:103EDC00020F0CD0E2686F4B9B6903F00F039A4200
:103EEC0005D96C498B6923F00F031A438A61236847
:103EFC0013F0010F41D0674A936923F47063A168F2
:103F0C000B4393616368022B0AD0032B27D0012B40
:103F1C002CD0604A126812F0040F06D10120ADE0DB
:103F2C00126812F4003F00F0AE805A490A6922F080
:103F3C00070213430B61FDF74BF90646554B1B6902
:103F4C0003F038036268B3EBC20F16D0FDF740F9EB
:103F5C00801B41F288339842F0D903208EE04D4A01
:103F6C00126812F0007FE0D1012087E0494A126804
:103F7C0012F4807FD9D1012080E0236813F0020F66
:103F8C000CD0E268434B9B6903F00F039A4205D2B5
:103F9C0040498B6923F00F031A438A613C4B1B6821
:103FAC0003F00F03AB420AD9394A136823F00F030D
:103FBC002B431360136803F00F03AB4265D12368E6
:103FCC0013F0040F0CD02269324B9B6903F0700381
:103FDC009A4205D22F498B6923F070031A438A61E8
:103FEC00236813F0080F0CD062692A4BDB6903F0CD
:103FFC0070039A4205D22749CB6923F070031A4308
:10400C00CA61236813F0100F0CD0A269214BDB6935
:10401C0003F4E0639A4205D21E49CB6923F4E063B2
:10402C001A43CA61236813F0200F0CD0E269194BB4
:10403C001B6A03F070039A4205D216490B6A23F0EF
:10404C0070031A430A62FFF7E9FD12498B69C3F347
:10405C000323114AD35C03F01F03D8408B6903F090
:10406C000F03D35C03F01F0320FA03F30B4A136016
:10407C000B4B18600B4B1868FDF748F870BD01200E
:10408C0070470120FAE70120F8E70120F6E700BFAE
:10409C000020005200440258D8750008000000248B
:1040AC00040000240C00002408B5FFF7B7FD0B4AF0
:1040BC009369C3F303230A49CB5C03F01F0320FA73
:1040CC0003F3926902F00F02885C00F01F0023FAE0
:1040DC0000F0044A1060044A136008BD0044025802
:1040EC00D8750008000000240400002408B5FFF770
:1040FC00DBFF054BDB69C3F30213044AD35C03F00B
:10410C001F03D84008BD00BF00440258D8750008F2
:10411C0008B5FFF7C9FF054BDB69C3F30223044A5B
:10412C00D35C03F01F03D84008BD00BF0044025805
:10413C00D8750008404B9B6A03F00303032B79D01E
:10414C0070B505460E463C4A136823F08063136035
:10415C00FDF73EF80446384B1B6813F0006F06D091
:10416C00FDF736F8031B022BF5D9032070BD324B3B
:10417C009A6A22F47C32296842EA01329A626A68AD
:10418C00013AC2F30802A9680139490289B20A430B
:10419C00E9680139090401F4FE010A43296901396E
:1041AC00090601F0FE410A439A63DA6A22F0C00262
:1041BC0069690A43DA62DA6A22F02002A9690A43C1
:1041CC00DA62DA6A22F01002DA62DA6B6FF3CF028B
:1041DC00E96942EAC102DA63DA6A42F01002DA6291
:1041EC00C6B91A46DB6A43F40023D362124A136839
:1041FC0043F080631360FCF7EBFF04460E4B1B6827
:10420C0013F0006F14D1FCF7E3FF001B0228F5D963
:10421C000320ABE7012E05D0074AD36A43F4001301
:10422C00D362E3E7044AD36A43F48013D362DDE735
:10423C0000209BE70120704700440258404B9B6ACA
:10424C0003F00303032B79D070B505460E463C4AA8
:10425C00136823F080531360FCF7BAFF0446384B05
:10426C001B6813F0005F06D0FCF7B2FF031B022B98
:10427C00F5D9032070BD324B9A6A22F07C72296802
:10428C0042EA01529A626A68013AC2F30802A968CA
:10429C000139490289B20A43E9680139090401F478
:1042AC00FE010A4329690139090601F0FE410A435E
:1042BC001A64DA6A22F4406269690A43DA62DA6AD9
:1042CC0022F40072A9690A43DA62DA6A22F4807273
:1042DC00DA625A6C6FF3CF02E96942EAC1025A649E
:1042EC00DA6A42F48072DA62C6B91A46DB6A43F4BF
:1042FC008003D362124A136843F080531360FCF7B7
:10430C0067FF04460E4B1B6813F0005F14D1FCF7DB
:10431C005FFF001B0228F5D90320ABE7012E05D067
:10432C00074AD36A43F08073D362E3E7044AD36A43
:10433C0043F40003D362DDE700209BE701207047C4
:10434C0000440258F8B50446036813F0006F2FD0F0
:10435C00436EB3F5001F25D015D8E3B1B3F5801F1C
:10436C000ED102210830FFF7E5FE054675BB934AD6
:10437C00136D23F44013616E0B431365002619E093
:10438C000126354616E0B3F5401F01D10025EEE7B6
:10439C00012635460EE0894AD36A43F40033D362D2
:1043AC000025E4E702212830FFF748FF0546DDE74A
:1043BC0000263546236813F4807F29D0A36D042B87
:1043CC0022D8DFE803F005131A0A0A002E46F1E79B
:1043DC007A4AD36A43F40033D362C5B9774A136D72
:1043EC0023F00703A16D0B43136511E0002104F1C9
:1043FC000800FFF79FFE0546EFE7002104F12800B7
:10440C00FFF71CFF0546E8E70126354600E02E467F
:10441C00236813F4806F2DD0D4F8A430B3F5800F3B
:10442C003DD00DD8C3B1B3F5001F06D1002104F166
:10443C000800FFF77FFE054613E00126354619E01C
:10444C00B3F5000F0DD0B3F5200F0AD0B3F5C00FA4
:10445C0007D0012635460DE0584AD36A43F40033A1
:10446C00D3621DBB554A936D23F46003D4F8A4109A
:10447C000B439365236813F4006F37D0D4F8A8303E
:10448C00B3F1007F5ED016D80BB3B3F1807F0FD1A0
:10449C00002104F10800FFF74DFE05461CE0002149
:1044AC0004F12800FFF7CAFE0546DAE72E46E1E7DD
:1044BC00012635461AE0B3F1806F0DD0B3F1A06F31
:1044CC000AD0B3F1407F07D0012635460EE03B4AB7
:1044DC00D36A43F40033D362002D3AD1374A936D3B
:1044EC0023F0E063D4F8A8100B439365236813F012
:1044FC00007F13D0E36C202B35D02FD833B1102B89
:10450C0029D12E4AD36A43F40033D36295BB2B4A8C
:10451C00D36C23F03003E16C0B43D364236813F4A6
:10452C00805F4ED0E36DB3F5005F3FD027D87BB3EF
:10453C00B3F5805F20D1002104F10800FFF7FAFDEC
:10454C0005462AE0002104F12800FFF777FE054616
:10455C00C2E72E46CAE701263546DFE7302BD5D019
:10456C0001263546DAE7022104F10800FFF7E2FDE7
:10457C000546CBE72E46D1E70126354621E0B3F5BB
:10458C00405F0AD0B3F5804F07D00126354618E0BE
:10459C000A4AD36A43F40033D3628DB9074A136DC8
:1045AC0023F4E043E16D0B4313650AE0002104F1B1
:1045BC002800FFF743FE0546EFE700BF0044025812
:1045CC002E46236813F4005F17D0236EB3F5003F1B
:1045DC004FD042D843B1B3F5803F3BD1012104F118
:1045EC000800FFF7A7FD0546002D49D1924A136D2F
:1045FC0023F4E023216E0B431365236813F4804FDF
:10460C0019D0D4F8AC30B3F1005F4AD03DD843B1E7
:10461C00B3F1805F36D1012104F10800FFF78AFD68
:10462C000546002D44D1844A936D23F0E043D4F821
:10463C00AC100B439365236813F4004F47D0E36E23
:10464C00B3F1805F36D0B3F1005F4BD0BBB3012622
:10465C0035463CE001263546CFE7B3F5802FC3D075
:10466C00B3F5A02FC0D0B3F5403FBDD001263546E1
:10467C00C3E7012104F12800FFF7E0FD0546B3E78D
:10468C002E46BAE701263546D5E7B3F1804FC8D0A0
:10469C00B3F1A04FC5D0B3F1405FC2D0012635466F
:1046AC00C9E7012104F12800FFF7C8FD0546B8E76A
:1046BC002E46C0E7604AD36A43F40033D362C5B9CF
:1046CC005D4A136D23F04053E16E0B431365236871
:1046DC0013F0807F1CD0A36C032B44D8DFE803F0CD
:1046EC00100B3C10012104F10800FFF723FD0546D7
:1046FC00E5E72E46EBE7504AD36A43F40033D36226
:10470C00A5BB4D4AD36C23F00303A16C0B43D364BC
:10471C00236813F4800F2BD1236813F0010F00F0E2
:10472C00A980A36F282B00F2A380DFE803F091A1EE
:10473C00A1A1A1A1A1A18BA1A1A1A1A1A1A19AA17A
:10474C00A1A1A1A1A1A191A1A1A1A1A1A1A191A16D
:10475C00A1A1A1A1A1A19100022104F10800FFF7E0
:10476C00E9FC0546CCE701263546D1E72E46CFE7D6
:10477C00324A136843F480731360FCF729FD074633
:10478C002E4B1B6813F4807F05D1FCF721FDC01B59
:10479C006428F5D90325002D4AD1274B1B6FD4F87B
:1047AC00B020534013F4407F0CD0234B1A6F22F4EB
:1047BC004072196F41F480311967196F21F48031FF
:1047CC0019671A67D4F8B030B3F5807F15D08DBB5C
:1047DC00D4F8B03003F44072B2F5407F1ED0164AC4
:1047EC00136923F47C53136113490B6FD4F8B02075
:1047FC00C2F30B0213430B678EE7FCF7E9FC074689
:10480C000D4B1B6F13F0020FE1D1FCF7E1FCC01B49
:10481C0041F288339842F3D90325D8E70648026958
:10482C0022F47C52064901EA131313430361DBE7BC
:10483C002E4671E72E466FE7004402580048025896
:10484C00CFFFFF00012104F10800FFF773FC0546C0
:10485C00E5B9B14A536D23F03803A16F0B4353658F
:10486C0008E0012104F12800FFF7E8FC0546EFE71A
:10487C0001263546236813F0020F17D0636F052B02
:10488C0029D8DFE803F00B05210B0B0B2E46F1E7C3
:10489C00012104F10800FFF74DFC0546F5B99E4ACD
:1048AC00536D23F00703616F0B435365236813F0BB
:1048BC00040F26D0D4F89030052B00F2D680DFE818
:1048CC0003F0150FCD151515012104F12800FFF784
:1048DC00B5FC0546E2E701263546E7E72E46E5E757
:1048EC00012104F10800FFF725FC0546002D40F0DE
:1048FC00BF80894A936D23F00703D4F890100B43C3
:10490C009365236813F0200F1DD0D4F88C30B3F1CD
:10491C00005F00F0C18000F2B0804BB1B3F1805F5A
:10492C0040F0A880002104F10800FFF703FC0546C5
:10493C00002D40F0B880784A536D23F0E043D4F852
:10494C008C100B435365236813F0400F1DD0D4F823
:10495C009830B3F5006F00F0BA8000F2A9804BB12B
:10496C00B3F5806F40F0A180002104F10800FFF73F
:10497C00E1FB0546002D40F0B180674A936D23F4AE
:10498C00E053D4F898100B439365236813F0800F11
:10499C001DD0D4F89C30B3F5804F00F0B38000F2FA
:1049AC00A2804BB1B3F5005F40F09A80002104F176
:1049BC000800FFF7BFFB0546002D40F0AA80564AC1
:1049CC00936D23F46043D4F89C100B4393652368D8
:1049DC0013F0080F0DD0D4F88030B3F5805F00F0E1
:1049EC009D804D4A536D23F44053D4F880100B43F3
:1049FC005365236813F0100F0DD0D4F89430B3F531
:104A0C00807F00F09580444A936D23F44073D4F872
:104A1C0094100B439365236813F4002F00F09D80D2
:104A2C00D4F8A030B3F5803F00F08C80B3F5003F94
:104A3C0008D0002B40F08D80002104F10800FFF716
:104A4C0079FB0546002D40F08780334A936D23F4A3
:104A5C004033D4F8A0100B4393657EE0012104F1A0
:104A6C002800FFF7EBFB054640E70126354648E7F3
:104A7C002E4646E70126354665E7B3F1804F3FF4F5
:104A8C0057AFB3F1A04F3FF453AFB3F1405F3FF4D6
:104A9C004FAF0126354656E7022104F12800FFF7F7
:104AAC00CDFB054644E72E464DE7012635466CE71F
:104ABC00B3F5805F3FF45EAFB3F5A05F3FF45AAF40
:104ACC00B3F5406F3FF456AF012635465DE7022142
:104ADC0004F12800FFF7B2FB05464BE72E4654E7DE
:104AEC000126354673E7B3F5004F3FF465AFB3F5D8
:104AFC00204F3FF461AFB3F5C04F3FF45DAF0126DB
:104B0C00354664E7022104F12800FFF797FB0546C0
:104B1C0052E72E465BE700BF00440258022104F125
:104B2C002800FFF78BFB00283FF45BAF012658E70A
:104B3C00022104F12800FFF781FB00283FF463AF4A
:104B4C00012660E7022104F12800FFF777FB0546F8
:104B5C0078E70126354600E02E46236813F4802FB3
:104B6C0024D0D4F88430B3F5001F14D0B3F5401F13
:104B7C0007D0B3F5801F15D17C4AD36A43F40033B8
:104B8C00D36295B9794A536D23F44013D4F8841049
:104B9C000B4353650AE0012104F12800FFF74EFB9B
:104BAC000546EEE70126354600E02E46236813F451
:104BBC00803F06D0236DCBB1B3F5803F24D00126C6
:104BCC003546236813F0005F27D1236813F4003FA8
:104BDC003DD0E36FB3F5807F2BD027D9B3F5007FA1
:104BEC002CD0B3F5407F29D0012630E05F4AD36A40
:104BFC0043F40033D36275B95C4AD36C23F480332D
:104C0C00216D0B43D364DCE7022104F10800FFF7AC
:104C1C0091FA0546EFE72E46D3E7022104F128006E
:104C2C00FFF70CFB0028D0D00126CEE733B10126CC
:104C3C000DE04E4AD36A43F40033D362002D5CD1AD
:104C4C004A4A536D23F44073E16F0B435365236859
:104C5C0013F4801F06D0454A136D23F00043216FD7
:104C6C000B431365236813F4001F06D03F4A136DE2
:104C7C0023F08073A16E0B431365236813F0804FF0
:104C8C0009D03A4B1A6922F400421A611A69D4F815
:104C9C00B4100A431A612368002B06DA334AD36C2A
:104CAC0023F04053616D0B43D364236813F4000F5E
:104CBC0007D02E4A536D23F44003D4F888100B43CD
:104CCC005365636813F0010F19D1636813F0020F79
:104CDC001ED1636813F0040F23D1636813F0080F1F
:104CEC0028D1636813F0100F2DD1636813F0200FD7
:104CFC0032D106B101263046F8BD2E46A7E7002179
:104D0C0004F10800FFF716FA0028DED00646DCE7AF
:104D1C00012104F10800FFF70DFA0028D9D006464E
:104D2C00D7E7022104F10800FFF704FA0028D4D0D9
:104D3C000646D2E7002104F12800FFF77FFA00288D
:104D4C00CFD00646CDE7012104F12800FFF776FA13
:104D5C000028CAD00646C8E7022104F12800FFF754
:104D6C006DFA0028C5D00126C5E700BF00440258E3
:104D7C0008B5FFF799F9054B1B6AC3F30213044AF4
:104D8C00D35C03F01F03D84008BD00BF0044025899
:104D9C00D875000810B4794B9A6A9C6AC4F3053C28
:104DAC00D96AC1F30011DB6BC3F3CC0301FB03F332
:104DBC0014F47C3F00F0DD8002F0030207EE903A21
:104DCC00F8EE677A012A4BD0022A00F09880002A6C
:104DDC0040F0B280694B1B6813F0200F23D0674959
:104DEC000A68C2F3C102664BD34007EE103AF8EEE4
:104DFC00476A07EE10CAB8EE476A86EE867A8B6B66
:104E0C00C3F3080306EE903AF8EE666A9FED5D6A0E
:104E1C0067EE867A76EEA77AF7EE006A77EEA67AD8
:104E2C0027EE277A38E007EE10CAF8EE476A9FEDB6
:104E3C00566A86EE267A514B9B6BC3F3080306EE3B
:104E4C00903AF8EE666A9FED4F6A67EE867A76EED8
:104E5C00A77AF7EE006A77EEA67A27EE277A1BE0A0
:104E6C0007EE10CAF8EE476A9FED486A86EE267A7E
:104E7C00424B9B6BC3F3080306EE903AF8EE666A5E
:104E8C009FED406A67EE867A76EEA77AF7EE006AB7
:104E9C0077EEA67A27EE277A384A936BC3F346232C
:104EAC0007EE903AF8EE677AF7EE006A77EEA67A9C
:104EBC0087EE276ABCEEC66A80ED006A936BC3F37B
:104ECC00064307EE903AF8EE677A77EEA67A87EE0D
:104EDC00276ABCEEC66A80ED016A936BC3F3066366
:104EEC0007EE903AF8EE677A77EEA67AC7EE276A65
:104EFC00FCEEE66AC0ED026A5DF8044B704707EE03
:104F0C0010CAF8EE476A9FED226A86EE267A1B4B92
:104F1C009B6BC3F3080306EE903AF8EE666A9FEDBE
:104F2C00196A67EE867A76EEA77AF7EE006A77EE64
:104F3C00A67A27EE277AAFE707EE10CAF8EE476A93
:104F4C009FED126A86EE267A0C4B9B6BC3F308031B
:104F5C0006EE903AF8EE666A9FED0A6A67EE867A7C
:104F6C0076EEA77AF7EE006A77EEA67A27EE277A26
:104F7C0092E70023036043608360BDE7004402585E
:104F8C000090D003000000390024744C0024744AB3
:104F9C00001BB74B10B4794B9A6A9C6AC4F3055C3E
:104FAC00D96AC1F300215B6CC3F3CC0301FB03F39F
:104FBC0014F07C7F00F0DD8002F0030207EE903AE3
:104FCC00F8EE677A012A4BD0022A00F09880002A6A
:104FDC0040F0B280694B1B6813F0200F23D0674957
:104FEC000A68C2F3C102664BD34007EE103AF8EEE2
:104FFC00476A07EE10CAB8EE476A86EE867A0B6CE3
:10500C00C3F3080306EE903AF8EE666A9FED5D6A0C
:10501C0067EE867A76EEA77AF7EE006A77EEA67AD6
:10502C0027EE277A38E007EE10CAF8EE476A9FEDB4
:10503C00566A86EE267A514B1B6CC3F3080306EEB8
:10504C00903AF8EE666A9FED4F6A67EE867A76EED6
:10505C00A77AF7EE006A77EEA67A27EE277A1BE09E
:10506C0007EE10CAF8EE476A9FED486A86EE267A7C
:10507C00424B1B6CC3F3080306EE903AF8EE666ADB
:10508C009FED406A67EE867A76EEA77AF7EE006AB5
:10509C0077EEA67A27EE277A384A136CC3F34623A9
:1050AC0007EE903AF8EE677AF7EE006A77EEA67A9A
:1050BC0087EE276ABCEEC66A80ED006A136CC3F3F8
:1050CC00064307EE903AF8EE677A77EEA67A87EE0B
:1050DC00276ABCEEC66A80ED016A136CC3F30663E3
:1050EC0007EE903AF8EE677A77EEA67AC7EE276A63
:1050FC00FCEEE66AC0ED026A5DF8044B704707EE01
:10510C0010CAF8EE476A9FED226A86EE267A1B4B90
:10511C001B6CC3F3080306EE903AF8EE666A9FED3B
:10512C00196A67EE867A76EEA77AF7EE006A77EE62
:10513C00A67A27EE277AAFE707EE10CAF8EE476A91
:10514C009FED126A86EE267A0C4B1B6CC3F3080398
:10515C0006EE903AF8EE666A9FED0A6A67EE867A7A
:10516C0076EEA77AF7EE006A77EEA67A27EE277A24
:10517C0092E70023036043608360BDE7004402585C
:10518C000090D003000000390024744C0024744AB1
:10519C00001BB74B026852E8003F23F0C00342E803
:1051AC0000310029F6D1026802F1080353E8003FF0
:1051BC0023F40003083242E800310029F3D1202304
:1051CC00C0F8883070470000026852E8003F23F4B2
:1051DC00907342E800310029F6D1026802F108030D
:1051EC0053E8001F0D4B0B40083242E800310029F8
:1051FC00F3D1C36E012B06D02023C0F88C300023D2
:10520C00C36643677047026852E8003F23F01003FF
:10521C0042E800310029F6D1EEE700BFFEFFFFEFB8
:10522C00704708B5026852E8003F23F0400342E89B
:10523C0000310029F6D12023C0F888300023836781
:10524C00FFF7EEFF08BD7047704738B5846BD4F894
:10525C008820D4F88C5023689B6813F0800F01D001
:10526C00212A10D023689B6813F0400F01D0222D07
:10527C0010D0D4F8903043F01003C4F8903020468E
:10528C00FBF786FE38BD0023A4F856302046FFF706
:10529C0081FFE7E70023A4F85E302046FFF794FF78
:1052AC00E7E708B5806B0023A0F85E30FBF770FED3
:1052BC0008BD000070B504460268D3691068916897
:1052CC0040F60F0C13EA0C0F0DD113F0200F10D079
:1052DC0010F0200F02D111F0805F0AD0636F93B3EE
:1052EC00204698472FE0884D0D402DD1874E3042F7
:1052FC002AD1E56E012D00F0C08013F4801F03D07D
:10530C0011F4800F40F0A28113F0800F07D010F041
:10531C00800F40F0A28111F4000F40F09E8113F039
:10532C00400F03D010F0400F40F09E8113F4000F9B
:10533C0003D010F0804F40F09B8113F0807F02D09F
:10534C000028C0F2998170BD13F0010F09D010F440
:10535C00807F06D001261662D4F890203243C4F820
:10536C00902013F0020F0BD011F0010F08D022681F
:10537C0002261662D4F8902042F00402C4F8902061
:10538C0013F0040F0BD011F0010F08D02268042683
:10539C001662D4F8902042F00202C4F8902013F068
:1053AC00080F0BD010F0200F00D13DB1226808255A
:1053BC001562D4F890202A43C4F8902013F4006F9F
:1053CC000CD010F0806F09D022684FF40065156284
:1053DC00D4F8902042F02002C4F89020D4F8902009
:1053EC00002AB0D013F0200F09D010F0200F02D1FA
:1053FC0011F0805F03D0636F0BB120469847D4F84F
:10540C00902023689B6813F0400F02D112F0280FF4
:10541C002CD02046FFF7D8FE23689B6813F0400F72
:10542C0020D0226802F1080353E8003F23F0400328
:10543C00083242E800310029F3D1D4F880306BB146
:10544C00334A1A65D4F88000FCF756FE00283FF466
:10545C007AAFD4F88000036D984774E72046FBF7C9
:10546C0097FD70E72046FBF793FD6CE72046FBF7B2
:10547C008FFD0023C4F8903065E713F0100F3FF454
:10548C003CAF10F0100F3FF438AF102313622368B9
:10549C009B6813F0400F00F09F80D4F880201368B5
:1054AC001C481D498B4218BF834237D018318B42A0
:1054BC0034D018318B4231D018318B422ED0183168
:1054CC008B422BD018318B4228D018318B4225D0EF
:1054DC0001F556718B4221D018318B421ED01831F8
:1054EC008B421BD018318B4218D018318B4215D0FF
:1054FC0018318B4212D018318B420FD018318B429D
:10550C000CD05B689BB20BE0010000102001000482
:10551C00AF52000810000240280002405B689BB2AA
:10552C00002B49D0B4F85C10994245D9A4F85E30F0
:10553C00D369B3F5807F32D0226852E8003F23F460
:10554C00807342E800310029F6D1226802F1080389
:10555C0053E8003F23F00103083242E800310029F0
:10556C00F3D1226802F1080353E8003F23F0400313
:10557C00083242E800310029F3D12023C4F88C30E2
:10558C000023E366226852E8003F23F0100342E850
:10559C0000310029F6D1D4F88000FCF70DFC022371
:1055AC002367B4F85C10B4F85E309BB2C91A89B2A8
:1055BC002046FBF7F1FBC6E6B4F85C1099427FF489
:1055CC00C2AED369B3F5807F7FF4BDAE02232367EF
:1055DC002046FBF7E1FBB6E6B4F85C10B4F85E309D
:1055EC009BB2C91A89B2B4F85E309BB2002B3FF45F
:1055FC00AAAE00293FF4A7AE226852E8003F23F47C
:10560C00907342E800300028F6D1226802F10803BA
:10561C0053E8000F1A4B0340083242E800300028D0
:10562C00F3D12023C4F88C300023E366636722682F
:10563C0052E8003F23F0100342E800300028F6D176
:10564C00022323672046FBF7A7FB7CE64FF480136D
:10565C001362204600F09EFD75E6A36F002B3FF40D
:10566C0072AE204698476EE62046FFF7DAFD6AE6F2
:10567C00204600F091FD66E6204600F08CFD62E6C7
:10568C00FEFFFFEF08B5806B01230367C36E012B90
:10569C0002D0FFF7D9FD08BDB0F85C104908FBF744
:1056AC007BFBF8E708B50346806BDB69B3F5807FBD
:1056BC0029D00023A0F85E30026852E8003F23F4A2
:1056CC00807342E800310029F6D1026802F1080328
:1056DC0053E8003F23F00103083242E8003100296F
:1056EC00F3D1026802F1080353E8003F23F04003B2
:1056FC00083242E800310029F3D12023C0F88C3065
:10570C00C36E012B07D000230367C36E012B0CD093
:10571C00FFF799FD08BD026852E8003F23F0100323
:10572C0042E800310029F6D1EDE7B0F85C10FBF748
:10573C0033FBEFE770B586B0044683680269134308
:10574C0042691343C269134301680868904A0240D6
:10575C001A430A602268536823F44053E1680B43F0
:10576C005360A16922688B4B9A4201D0236A19437A
:10577C009068894B03400B4393602268D36A23F0F3
:10578C000F03616A0B43D3622368844A934229D086
:10579C00834A934200F09480824A934200F0AA809C
:1057AC00814A934200F0C080804A934200F0D68038
:1057BC007F4A934200F008817E4A934200F02D818B
:1057CC007D4A934200F040817C4A934200F0538121
:1057DC007B4A934200F078816E4A934200F09D819F
:1057EC00802233E0774A526D02F03802282A65D8BD
:1057FC00DFE812F0290064006400640064006400B7
:10580C0064006400AB016400640064006400640024
:10581C00640064002B006400640064006400640095
:10582C00640064005E006400640064006400640052
:10583C006400640060006400640064006400640040
:10584C00640064006200012200E0082251498B428E
:10585C0000F09481E069B0F5004F00F00A82202A34
:10586C0000F26182202A00F2AE82DFE812F06302BD
:10587C007D02AC02AC028002AC02AC02AC0285022E
:10588C00AC02AC02AC02AC02AC02AC02AC028A02BE
:10589C00AC02AC02AC02AC02AC02AC02AC02AC028C
:1058AC00AC02AC02AC02AC02AC02AC02AC02960292
:1058BC001022CBE72022C9E74022C7E78022C5E7A8
:1058CC00404A526D02F00702052A11D8DFE812F0A7
:1058DC0006003F0108000A000C000E000022B5E78C
:1058EC000822B3E71022B1E72022AFE74022ADE750
:1058FC008022ABE7334A526D02F00702052A11D819
:10590C00DFE812F00600270108000A000C000E0068
:10591C0000229BE7082299E7102297E7202295E7BF
:10592C00402293E7802291E7264A526D02F007024B
:10593C00052A11D8DFE812F006000F0108000A0052
:10594C000C000E00002281E708227FE710227DE781
:10595C0020227BE7402279E7802277E7194A526DB3
:10596C0002F00702052A11D8DFE812F00600F70052
:10597C0008000A000C000E00002267E7082265E709
:10598C00102263E7202261E740225FE780225DE777
:10599C00F369FFCF000C0058FFF4FF110010014019
:1059AC000044004000480040004C004000500040C3
:1059BC000014014000780040007C004000180140B9
:1059CC00001C014000440258694A526D02F0380232
:1059DC00282A20D8DFE802F0151F1F1F1F1F1F1FCA
:1059EC00C31F1F1F1F1F1F1F171F1F1F1F1F1F1F1F
:1059FC00191F1F1F1F1F1F1F1B1F1F1F1F1F1F1FB5
:105A0C001D00012222E7082220E710221EE7202297
:105A1C001CE740221AE7802218E7554A526D02F023
:105A2C000702052A0ED8DFE802F0039C0507090BD4
:105A3C0000220BE7082209E7102207E7202205E7DE
:105A4C00402203E7802201E7494A526D02F0070227
:105A5C00052A0ED8DFE802F003870507090B0022A0
:105A6C00F4E60822F2E61022F0E62022EEE64022CE
:105A7C00ECE68022EAE63E4A526D02F03802282A11
:105A8C0020D8DFE802F0151F1F1F1F1F1F1F721FDA
:105A9C001F1F1F1F1F1F171F1F1F1F1F1F1F191F18
:105AAC001F1F1F1F1F1F1B1F1F1F1F1F1F1F1D001F
:105ABC000122CBE60822C9E61022C7E62022C5E661
:105ACC004022C3E68022C1E6294A526D02F0380218
